{
  "contractName": "NIL2",
  "abi": [
    {
      "constant": true,
      "inputs": [],
      "name": "name",
      "outputs": [
        {
          "name": "",
          "type": "string"
        }
      ],
      "payable": false,
      "stateMutability": "view",
      "type": "function"
    },
    {
      "constant": true,
      "inputs": [
        {
          "name": "_tokenId",
          "type": "uint256"
        }
      ],
      "name": "getApproved",
      "outputs": [
        {
          "name": "",
          "type": "address"
        }
      ],
      "payable": false,
      "stateMutability": "view",
      "type": "function"
    },
    {
      "constant": false,
      "inputs": [
        {
          "name": "_to",
          "type": "address"
        },
        {
          "name": "_tokenId",
          "type": "uint256"
        }
      ],
      "name": "approve",
      "outputs": [],
      "payable": false,
      "stateMutability": "nonpayable",
      "type": "function"
    },
    {
      "constant": true,
      "inputs": [],
      "name": "totalSupply",
      "outputs": [
        {
          "name": "",
          "type": "uint256"
        }
      ],
      "payable": false,
      "stateMutability": "view",
      "type": "function"
    },
    {
      "constant": false,
      "inputs": [
        {
          "name": "_from",
          "type": "address"
        },
        {
          "name": "_to",
          "type": "address"
        },
        {
          "name": "_tokenId",
          "type": "uint256"
        }
      ],
      "name": "transferFrom",
      "outputs": [],
      "payable": false,
      "stateMutability": "nonpayable",
      "type": "function"
    },
    {
      "constant": true,
      "inputs": [
        {
          "name": "_owner",
          "type": "address"
        },
        {
          "name": "_index",
          "type": "uint256"
        }
      ],
      "name": "tokenOfOwnerByIndex",
      "outputs": [
        {
          "name": "",
          "type": "uint256"
        }
      ],
      "payable": false,
      "stateMutability": "view",
      "type": "function"
    },
    {
      "constant": false,
      "inputs": [],
      "name": "unpause",
      "outputs": [],
      "payable": false,
      "stateMutability": "nonpayable",
      "type": "function"
    },
    {
      "constant": false,
      "inputs": [
        {
          "name": "_from",
          "type": "address"
        },
        {
          "name": "_to",
          "type": "address"
        },
        {
          "name": "_tokenId",
          "type": "uint256"
        }
      ],
      "name": "safeTransferFrom",
      "outputs": [],
      "payable": false,
      "stateMutability": "nonpayable",
      "type": "function"
    },
    {
      "constant": true,
      "inputs": [
        {
          "name": "_tokenId",
          "type": "uint256"
        }
      ],
      "name": "exists",
      "outputs": [
        {
          "name": "",
          "type": "bool"
        }
      ],
      "payable": false,
      "stateMutability": "view",
      "type": "function"
    },
    {
      "constant": true,
      "inputs": [
        {
          "name": "_index",
          "type": "uint256"
        }
      ],
      "name": "tokenByIndex",
      "outputs": [
        {
          "name": "",
          "type": "uint256"
        }
      ],
      "payable": false,
      "stateMutability": "view",
      "type": "function"
    },
    {
      "constant": true,
      "inputs": [],
      "name": "paused",
      "outputs": [
        {
          "name": "",
          "type": "bool"
        }
      ],
      "payable": false,
      "stateMutability": "view",
      "type": "function"
    },
    {
      "constant": true,
      "inputs": [
        {
          "name": "_tokenId",
          "type": "uint256"
        }
      ],
      "name": "ownerOf",
      "outputs": [
        {
          "name": "",
          "type": "address"
        }
      ],
      "payable": false,
      "stateMutability": "view",
      "type": "function"
    },
    {
      "constant": true,
      "inputs": [
        {
          "name": "_owner",
          "type": "address"
        }
      ],
      "name": "balanceOf",
      "outputs": [
        {
          "name": "",
          "type": "uint256"
        }
      ],
      "payable": false,
      "stateMutability": "view",
      "type": "function"
    },
    {
      "constant": false,
      "inputs": [],
      "name": "destroy",
      "outputs": [],
      "payable": false,
      "stateMutability": "nonpayable",
      "type": "function"
    },
    {
      "constant": false,
      "inputs": [],
      "name": "pause",
      "outputs": [],
      "payable": false,
      "stateMutability": "nonpayable",
      "type": "function"
    },
    {
      "constant": true,
      "inputs": [],
      "name": "owner",
      "outputs": [
        {
          "name": "",
          "type": "address"
        }
      ],
      "payable": false,
      "stateMutability": "view",
      "type": "function"
    },
    {
      "constant": true,
      "inputs": [],
      "name": "symbol",
      "outputs": [
        {
          "name": "",
          "type": "string"
        }
      ],
      "payable": false,
      "stateMutability": "view",
      "type": "function"
    },
    {
      "constant": false,
      "inputs": [
        {
          "name": "_to",
          "type": "address"
        },
        {
          "name": "_approved",
          "type": "bool"
        }
      ],
      "name": "setApprovalForAll",
      "outputs": [],
      "payable": false,
      "stateMutability": "nonpayable",
      "type": "function"
    },
    {
      "constant": false,
      "inputs": [
        {
          "name": "_from",
          "type": "address"
        },
        {
          "name": "_to",
          "type": "address"
        },
        {
          "name": "_tokenId",
          "type": "uint256"
        },
        {
          "name": "_data",
          "type": "bytes"
        }
      ],
      "name": "safeTransferFrom",
      "outputs": [],
      "payable": false,
      "stateMutability": "nonpayable",
      "type": "function"
    },
    {
      "constant": true,
      "inputs": [
        {
          "name": "_tokenId",
          "type": "uint256"
        }
      ],
      "name": "tokenURI",
      "outputs": [
        {
          "name": "",
          "type": "string"
        }
      ],
      "payable": false,
      "stateMutability": "view",
      "type": "function"
    },
    {
      "constant": true,
      "inputs": [
        {
          "name": "_owner",
          "type": "address"
        },
        {
          "name": "_operator",
          "type": "address"
        }
      ],
      "name": "isApprovedForAll",
      "outputs": [
        {
          "name": "",
          "type": "bool"
        }
      ],
      "payable": false,
      "stateMutability": "view",
      "type": "function"
    },
    {
      "constant": false,
      "inputs": [
        {
          "name": "newOwner",
          "type": "address"
        }
      ],
      "name": "transferOwnership",
      "outputs": [],
      "payable": false,
      "stateMutability": "nonpayable",
      "type": "function"
    },
    {
      "constant": false,
      "inputs": [
        {
          "name": "_recipient",
          "type": "address"
        }
      ],
      "name": "destroyAndSend",
      "outputs": [],
      "payable": false,
      "stateMutability": "nonpayable",
      "type": "function"
    },
    {
      "inputs": [
        {
          "name": "_contractName",
          "type": "string"
        },
        {
          "name": "_supplierSymbol",
          "type": "string"
        },
        {
          "name": "_contractCID",
          "type": "string"
        },
        {
          "name": "_byuer",
          "type": "address"
        },
        {
          "name": "_supplier",
          "type": "address"
        }
      ],
      "payable": true,
      "stateMutability": "payable",
      "type": "constructor"
    },
    {
      "anonymous": false,
      "inputs": [
        {
          "indexed": false,
          "name": "name",
          "type": "string"
        },
        {
          "indexed": false,
          "name": "CID",
          "type": "string"
        },
        {
          "indexed": false,
          "name": "price",
          "type": "uint256"
        }
      ],
      "name": "GoodAdded",
      "type": "event"
    },
    {
      "anonymous": false,
      "inputs": [
        {
          "indexed": false,
          "name": "param",
          "type": "string"
        },
        {
          "indexed": false,
          "name": "value",
          "type": "string"
        }
      ],
      "name": "ParameterAdded",
      "type": "event"
    },
    {
      "anonymous": false,
      "inputs": [
        {
          "indexed": false,
          "name": "goodID",
          "type": "uint256"
        },
        {
          "indexed": false,
          "name": "timestamp",
          "type": "uint256"
        }
      ],
      "name": "ByuerMadeOrder",
      "type": "event"
    },
    {
      "anonymous": false,
      "inputs": [
        {
          "indexed": false,
          "name": "orderID",
          "type": "uint256"
        },
        {
          "indexed": false,
          "name": "orderState",
          "type": "uint256"
        }
      ],
      "name": "SupplierUpdatedOrderState",
      "type": "event"
    },
    {
      "anonymous": false,
      "inputs": [
        {
          "indexed": false,
          "name": "orderID",
          "type": "uint256"
        }
      ],
      "name": "ByuerConfirmedDelivery",
      "type": "event"
    },
    {
      "anonymous": false,
      "inputs": [
        {
          "indexed": false,
          "name": "orderID",
          "type": "uint256"
        }
      ],
      "name": "ByuerTransferPayment",
      "type": "event"
    },
    {
      "anonymous": false,
      "inputs": [],
      "name": "Pause",
      "type": "event"
    },
    {
      "anonymous": false,
      "inputs": [],
      "name": "Unpause",
      "type": "event"
    },
    {
      "anonymous": false,
      "inputs": [
        {
          "indexed": true,
          "name": "previousOwner",
          "type": "address"
        },
        {
          "indexed": true,
          "name": "newOwner",
          "type": "address"
        }
      ],
      "name": "OwnershipTransferred",
      "type": "event"
    },
    {
      "anonymous": false,
      "inputs": [
        {
          "indexed": true,
          "name": "_from",
          "type": "address"
        },
        {
          "indexed": true,
          "name": "_to",
          "type": "address"
        },
        {
          "indexed": false,
          "name": "_tokenId",
          "type": "uint256"
        }
      ],
      "name": "Transfer",
      "type": "event"
    },
    {
      "anonymous": false,
      "inputs": [
        {
          "indexed": true,
          "name": "_owner",
          "type": "address"
        },
        {
          "indexed": true,
          "name": "_approved",
          "type": "address"
        },
        {
          "indexed": false,
          "name": "_tokenId",
          "type": "uint256"
        }
      ],
      "name": "Approval",
      "type": "event"
    },
    {
      "anonymous": false,
      "inputs": [
        {
          "indexed": true,
          "name": "_owner",
          "type": "address"
        },
        {
          "indexed": true,
          "name": "_operator",
          "type": "address"
        },
        {
          "indexed": false,
          "name": "_approved",
          "type": "bool"
        }
      ],
      "name": "ApprovalForAll",
      "type": "event"
    },
    {
      "constant": true,
      "inputs": [],
      "name": "getContractName",
      "outputs": [
        {
          "name": "name",
          "type": "string"
        }
      ],
      "payable": false,
      "stateMutability": "view",
      "type": "function"
    },
    {
      "constant": true,
      "inputs": [],
      "name": "getContractCID",
      "outputs": [
        {
          "name": "CID",
          "type": "string"
        }
      ],
      "payable": false,
      "stateMutability": "view",
      "type": "function"
    },
    {
      "constant": true,
      "inputs": [],
      "name": "getByuer",
      "outputs": [
        {
          "name": "byuer",
          "type": "address"
        }
      ],
      "payable": false,
      "stateMutability": "view",
      "type": "function"
    },
    {
      "constant": true,
      "inputs": [],
      "name": "getSupplier",
      "outputs": [
        {
          "name": "supplier",
          "type": "address"
        }
      ],
      "payable": false,
      "stateMutability": "view",
      "type": "function"
    },
    {
      "constant": true,
      "inputs": [
        {
          "name": "_param",
          "type": "string"
        }
      ],
      "name": "getParameter",
      "outputs": [
        {
          "name": "value",
          "type": "string"
        }
      ],
      "payable": false,
      "stateMutability": "view",
      "type": "function"
    },
    {
      "constant": true,
      "inputs": [],
      "name": "getParametersAmount",
      "outputs": [
        {
          "name": "amount",
          "type": "uint256"
        }
      ],
      "payable": false,
      "stateMutability": "view",
      "type": "function"
    },
    {
      "constant": false,
      "inputs": [
        {
          "name": "param_",
          "type": "string"
        },
        {
          "name": "value_",
          "type": "string"
        }
      ],
      "name": "addContractParameter",
      "outputs": [],
      "payable": false,
      "stateMutability": "nonpayable",
      "type": "function"
    },
    {
      "constant": false,
      "inputs": [
        {
          "name": "name_",
          "type": "string"
        },
        {
          "name": "description_",
          "type": "string"
        },
        {
          "name": "CID_",
          "type": "string"
        },
        {
          "name": "price_",
          "type": "uint256"
        }
      ],
      "name": "addGood",
      "outputs": [],
      "payable": false,
      "stateMutability": "nonpayable",
      "type": "function"
    },
    {
      "constant": true,
      "inputs": [
        {
          "name": "_goodID",
          "type": "uint256"
        }
      ],
      "name": "getGoodInfo",
      "outputs": [
        {
          "name": "",
          "type": "string"
        },
        {
          "name": "",
          "type": "string"
        },
        {
          "name": "",
          "type": "string"
        },
        {
          "name": "",
          "type": "uint256"
        }
      ],
      "payable": false,
      "stateMutability": "view",
      "type": "function"
    },
    {
      "constant": false,
      "inputs": [
        {
          "name": "_goodID",
          "type": "uint256"
        }
      ],
      "name": "makeOrder",
      "outputs": [
        {
          "name": "ID",
          "type": "uint256"
        }
      ],
      "payable": true,
      "stateMutability": "payable",
      "type": "function"
    },
    {
      "constant": true,
      "inputs": [
        {
          "name": "_orderID",
          "type": "uint256"
        }
      ],
      "name": "getOrder",
      "outputs": [
        {
          "name": "",
          "type": "string"
        },
        {
          "name": "",
          "type": "string"
        },
        {
          "name": "",
          "type": "uint256"
        },
        {
          "name": "",
          "type": "uint256"
        },
        {
          "name": "",
          "type": "uint8"
        }
      ],
      "payable": false,
      "stateMutability": "view",
      "type": "function"
    },
    {
      "constant": false,
      "inputs": [
        {
          "name": "_orderID",
          "type": "uint256"
        },
        {
          "name": "_orderState",
          "type": "uint256"
        }
      ],
      "name": "supplierUpdateManufacturingState",
      "outputs": [],
      "payable": false,
      "stateMutability": "nonpayable",
      "type": "function"
    },
    {
      "constant": false,
      "inputs": [
        {
          "name": "_orderID",
          "type": "uint256"
        },
        {
          "name": "_message",
          "type": "bytes32"
        }
      ],
      "name": "supplierStartDelivery",
      "outputs": [],
      "payable": false,
      "stateMutability": "nonpayable",
      "type": "function"
    },
    {
      "constant": false,
      "inputs": [
        {
          "name": "_orderID",
          "type": "uint256"
        },
        {
          "name": "_hash",
          "type": "bytes32"
        },
        {
          "name": "_v",
          "type": "uint8"
        },
        {
          "name": "_r",
          "type": "bytes32"
        },
        {
          "name": "_s",
          "type": "bytes32"
        }
      ],
      "name": "byuerConfirmedDelivery",
      "outputs": [],
      "payable": false,
      "stateMutability": "nonpayable",
      "type": "function"
    }
  ],
  "bytecode": "0x60606040526000600b60146101000a81548160ff021916908315150217905550604051620045593803806200455983398101604052808051820191906020018051820191906020018051820191906020018051906020019091908051906020019091905050848481600490805190602001906200007e9291906200019a565b508060059080519060200190620000979291906200019a565b50505033600b60006101000a81548173ffffffffffffffffffffffffffffffffffffffff021916908373ffffffffffffffffffffffffffffffffffffffff16021790555084600c9080519060200190620000f39291906200019a565b5082600d90805190602001906200010c9291906200019a565b5081601060006101000a81548173ffffffffffffffffffffffffffffffffffffffff021916908373ffffffffffffffffffffffffffffffffffffffff16021790555080601160006101000a81548173ffffffffffffffffffffffffffffffffffffffff021916908373ffffffffffffffffffffffffffffffffffffffff160217905550505050505062000249565b828054600181600116156101000203166002900490600052602060002090601f016020900481019282601f10620001dd57805160ff19168380011785556200020e565b828001600101855582156200020e579182015b828111156200020d578251825591602001919060010190620001f0565b5b5090506200021d919062000221565b5090565b6200024691905b808211156200024257600081600090555060010162000228565b5090565b90565b61430080620002596000396000f3006060604052600436106101cd576000357c0100000000000000000000000000000000000000000000000000000000900463ffffffff1680630525cafa146101d257806306fdde0314610260578063081812fc146102ee578063095ea7b31461035157806318160ddd146103935780631f0cbfb9146103bc57806323300ca4146103e857806323b872dd1461043d578063298c8c921461049e5780632f745c59146104f4578063309d20811461054a57806339ca5ad01461057a5780633a684138146106665780633f4ba83a146107e157806342842e0e146107f65780634f558e79146108575780634f6ccce7146108925780635c975abb146108c95780636352211e146108f657806370a082311461095957806383197ef0146109a65780638456cb59146109bb57806385f145c1146109d05780638da5cb5b146109fc57806395d89b4114610a515780639e647aac14610adf578063a22cb46514610bb5578063b88d4fde14610bf9578063c87b56dd14610c9d578063cad4e39914610d39578063cdf9e33b14610d62578063d07d1e2b14610db7578063d09ef24114610e57578063e985e9c514610f82578063f2fde38b14610ff2578063f5074f411461102b578063f5f5ba7214611064575b600080fd5b34156101dd57600080fd5b6101e56110f2565b6040518080602001828103825283818151815260200191508051906020019080838360005b8381101561022557808201518184015260208101905061020a565b50505050905090810190601f1680156102525780820380516001836020036101000a031916815260200191505b509250505060405180910390f35b341561026b57600080fd5b61027361119a565b6040518080602001828103825283818151815260200191508051906020019080838360005b838110156102b3578082015181840152602081019050610298565b50505050905090810190601f1680156102e05780820380516001836020036101000a031916815260200191505b509250505060405180910390f35b34156102f957600080fd5b61030f6004808035906020019091905050611242565b604051808273ffffffffffffffffffffffffffffffffffffffff1673ffffffffffffffffffffffffffffffffffffffff16815260200191505060405180910390f35b341561035c57600080fd5b610391600480803573ffffffffffffffffffffffffffffffffffffffff1690602001909190803590602001909190505061127f565b005b341561039e57600080fd5b6103a6611445565b6040518082815260200191505060405180910390f35b6103d26004808035906020019091905050611452565b6040518082815260200191505060405180910390f35b34156103f357600080fd5b6103fb611883565b604051808273ffffffffffffffffffffffffffffffffffffffff1673ffffffffffffffffffffffffffffffffffffffff16815260200191505060405180910390f35b341561044857600080fd5b61049c600480803573ffffffffffffffffffffffffffffffffffffffff1690602001909190803573ffffffffffffffffffffffffffffffffffffffff169060200190919080359060200190919050506118ad565b005b34156104a957600080fd5b6104f260048080359060200190919080356000191690602001909190803560ff1690602001909190803560001916906020019091908035600019169060200190919050506119c4565b005b34156104ff57600080fd5b610534600480803573ffffffffffffffffffffffffffffffffffffffff16906020019091908035906020019091905050611b78565b6040518082815260200191505060405180910390f35b341561055557600080fd5b610578600480803590602001909190803560001916906020019091905050611bf0565b005b341561058557600080fd5b610664600480803590602001908201803590602001908080601f0160208091040260200160405190810160405280939291908181526020018383808284378201915050505050509190803590602001908201803590602001908080601f0160208091040260200160405190810160405280939291908181526020018383808284378201915050505050509190803590602001908201803590602001908080601f01602080910402602001604051908101604052809392919081815260200183838082843782019150505050505091908035906020019091905050611cc2565b005b341561067157600080fd5b6106876004808035906020019091905050611ef0565b60405180806020018060200180602001858152602001848103845288818151815260200191508051906020019080838360005b838110156106d55780820151818401526020810190506106ba565b50505050905090810190601f1680156107025780820380516001836020036101000a031916815260200191505b50848103835287818151815260200191508051906020019080838360005b8381101561073b578082015181840152602081019050610720565b50505050905090810190601f1680156107685780820380516001836020036101000a031916815260200191505b50848103825286818151815260200191508051906020019080838360005b838110156107a1578082015181840152602081019050610786565b50505050905090810190601f1680156107ce5780820380516001836020036101000a031916815260200191505b5097505050505050505060405180910390f35b34156107ec57600080fd5b6107f461216e565b005b341561080157600080fd5b610855600480803573ffffffffffffffffffffffffffffffffffffffff1690602001909190803573ffffffffffffffffffffffffffffffffffffffff1690602001909190803590602001909190505061222e565b005b341561086257600080fd5b6108786004808035906020019091905050612266565b604051808215151515815260200191505060405180910390f35b341561089d57600080fd5b6108b360048080359060200190919050506122d7565b6040518082815260200191505060405180910390f35b34156108d457600080fd5b6108dc612310565b604051808215151515815260200191505060405180910390f35b341561090157600080fd5b6109176004808035906020019091905050612323565b604051808273ffffffffffffffffffffffffffffffffffffffff1673ffffffffffffffffffffffffffffffffffffffff16815260200191505060405180910390f35b341561096457600080fd5b610990600480803573ffffffffffffffffffffffffffffffffffffffff169060200190919050506123a0565b6040518082815260200191505060405180910390f35b34156109b157600080fd5b6109b9612424565b005b34156109c657600080fd5b6109ce6124bb565b005b34156109db57600080fd5b6109fa600480803590602001909190803590602001909190505061257c565b005b3415610a0757600080fd5b610a0f6126ae565b604051808273ffffffffffffffffffffffffffffffffffffffff1673ffffffffffffffffffffffffffffffffffffffff16815260200191505060405180910390f35b3415610a5c57600080fd5b610a646126d4565b6040518080602001828103825283818151815260200191508051906020019080838360005b83811015610aa4578082015181840152602081019050610a89565b50505050905090810190601f168015610ad15780820380516001836020036101000a031916815260200191505b509250505060405180910390f35b3415610aea57600080fd5b610b3a600480803590602001908201803590602001908080601f0160208091040260200160405190810160405280939291908181526020018383808284378201915050505050509190505061277c565b6040518080602001828103825283818151815260200191508051906020019080838360005b83811015610b7a578082015181840152602081019050610b5f565b50505050905090810190601f168015610ba75780820380516001836020036101000a031916815260200191505b509250505060405180910390f35b3415610bc057600080fd5b610bf7600480803573ffffffffffffffffffffffffffffffffffffffff16906020019091908035151590602001909190505061288f565b005b3415610c0457600080fd5b610c9b600480803573ffffffffffffffffffffffffffffffffffffffff1690602001909190803573ffffffffffffffffffffffffffffffffffffffff1690602001909190803590602001909190803590602001908201803590602001908080601f016020809104026020016040519081016040528093929190818152602001838380828437820191505050505050919050506129cb565b005b3415610ca857600080fd5b610cbe6004808035906020019091905050612a0a565b6040518080602001828103825283818151815260200191508051906020019080838360005b83811015610cfe578082015181840152602081019050610ce3565b50505050905090810190601f168015610d2b5780820380516001836020036101000a031916815260200191505b509250505060405180910390f35b3415610d4457600080fd5b610d4c612ad9565b6040518082815260200191505060405180910390f35b3415610d6d57600080fd5b610d75612ae6565b604051808273ffffffffffffffffffffffffffffffffffffffff1673ffffffffffffffffffffffffffffffffffffffff16815260200191505060405180910390f35b3415610dc257600080fd5b610e55600480803590602001908201803590602001908080601f0160208091040260200160405190810160405280939291908181526020018383808284378201915050505050509190803590602001908201803590602001908080601f01602080910402602001604051908101604052809392919081815260200183838082843782019150505050505091905050612b10565b005b3415610e6257600080fd5b610e786004808035906020019091905050612d35565b604051808060200180602001868152602001858152602001846005811115610e9c57fe5b60ff168152602001838103835288818151815260200191508051906020019080838360005b83811015610edc578082015181840152602081019050610ec1565b50505050905090810190601f168015610f095780820380516001836020036101000a031916815260200191505b50838103825287818151815260200191508051906020019080838360005b83811015610f42578082015181840152602081019050610f27565b50505050905090810190601f168015610f6f5780820380516001836020036101000a031916815260200191505b5097505050505050505060405180910390f35b3415610f8d57600080fd5b610fd8600480803573ffffffffffffffffffffffffffffffffffffffff1690602001909190803573ffffffffffffffffffffffffffffffffffffffff16906020019091905050612f4e565b604051808215151515815260200191505060405180910390f35b3415610ffd57600080fd5b611029600480803573ffffffffffffffffffffffffffffffffffffffff16906020019091905050612fe2565b005b341561103657600080fd5b611062600480803573ffffffffffffffffffffffffffffffffffffffff1690602001909190505061313a565b005b341561106f57600080fd5b6110776131af565b6040518080602001828103825283818151815260200191508051906020019080838360005b838110156110b757808201518184015260208101905061109c565b50505050905090810190601f1680156110e45780820380516001836020036101000a031916815260200191505b509250505060405180910390f35b6110fa613eb1565b600d8054600181600116156101000203166002900480601f0160208091040260200160405190810160405280929190818152602001828054600181600116156101000203166002900480156111905780601f1061116557610100808354040283529160200191611190565b820191906000526020600020905b81548152906001019060200180831161117357829003601f168201915b5050505050905090565b6111a2613eb1565b60048054600181600116156101000203166002900480601f0160208091040260200160405190810160405280929190818152602001828054600181600116156101000203166002900480156112385780601f1061120d57610100808354040283529160200191611238565b820191906000526020600020905b81548152906001019060200180831161121b57829003601f168201915b5050505050905090565b60006001600083815260200190815260200160002060009054906101000a900473ffffffffffffffffffffffffffffffffffffffff169050919050565b600061128a82612323565b90508073ffffffffffffffffffffffffffffffffffffffff168373ffffffffffffffffffffffffffffffffffffffff16141515156112c757600080fd5b8073ffffffffffffffffffffffffffffffffffffffff163373ffffffffffffffffffffffffffffffffffffffff16148061130757506113068133612f4e565b5b151561131257600080fd5b600073ffffffffffffffffffffffffffffffffffffffff1661133383611242565b73ffffffffffffffffffffffffffffffffffffffff161415806113835750600073ffffffffffffffffffffffffffffffffffffffff168373ffffffffffffffffffffffffffffffffffffffff1614155b1561144057826001600084815260200190815260200160002060006101000a81548173ffffffffffffffffffffffffffffffffffffffff021916908373ffffffffffffffffffffffffffffffffffffffff1602179055508273ffffffffffffffffffffffffffffffffffffffff168173ffffffffffffffffffffffffffffffffffffffff167f8c5be1e5ebec7d5bd14f71427d1e84f3dd0314c0f7b2291e5b200ac8c7c3b925846040518082815260200191505060405180910390a35b505050565b6000600880549050905090565b600061145c613ec5565b6000601060009054906101000a900473ffffffffffffffffffffffffffffffffffffffff1673ffffffffffffffffffffffffffffffffffffffff163373ffffffffffffffffffffffffffffffffffffffff161415156114ba57600080fd5b600a600f805490501415156114ce57600080fd5b6013848154811015156114dd57fe5b906000526020600020906004020160030154341415156114fc57600080fd5b60606040519081016040528060138681548110151561151757fe5b906000526020600020906004020160806040519081016040529081600082018054600181600116156101000203166002900480601f0160208091040260200160405190810160405280929190818152602001828054600181600116156101000203166002900480156115ca5780601f1061159f576101008083540402835291602001916115ca565b820191906000526020600020905b8154815290600101906020018083116115ad57829003601f168201915b50505050508152602001600182018054600181600116156101000203166002900480601f01602080910402602001604051908101604052809291908181526020018280546001816001161561010002031660029004801561166c5780601f106116415761010080835404028352916020019161166c565b820191906000526020600020905b81548152906001019060200180831161164f57829003601f168201915b50505050508152602001600282018054600181600116156101000203166002900480601f01602080910402602001604051908101604052809291908181526020018280546001816001161561010002031660029004801561170e5780601f106116e35761010080835404028352916020019161170e565b820191906000526020600020905b8154815290600101906020018083116116f157829003601f168201915b5050505050815260200160038201548152505081526020016000600581111561173357fe5b81526020014281525091506001601480548060010182816117549190613ef8565b91600052602060002090600602016000859091909150600082015181600001600082015181600001908051906020019061178f929190613f2a565b5060208201518160010190805190602001906117ac929190613f2a565b5060408201518160020190805190602001906117c9929190613f2a565b5060608201518160030155505060208201518160040160006101000a81548160ff021916908360058111156117fa57fe5b021790555060408201518160050155505003905061183a601160009054906101000a900473ffffffffffffffffffffffffffffffffffffffff1682613257565b7ff1d542d1e8d64ae8d9aa6c51c4cecbd3ca17548d2800e0c55cfd76d35cc31a1e8442604051808381526020018281526020019250505060405180910390a18092505050919050565b6000601160009054906101000a900473ffffffffffffffffffffffffffffffffffffffff16905090565b806118b833826132ab565b15156118c357600080fd5b600073ffffffffffffffffffffffffffffffffffffffff168473ffffffffffffffffffffffffffffffffffffffff16141515156118ff57600080fd5b600073ffffffffffffffffffffffffffffffffffffffff168373ffffffffffffffffffffffffffffffffffffffff161415151561193b57600080fd5b6119458483613340565b61194f84836134a9565b61195983836136c4565b8273ffffffffffffffffffffffffffffffffffffffff168473ffffffffffffffffffffffffffffffffffffffff167fddf252ad1be2c89b69c2b068fc378daa952ba7f163c4a11628f55a4df523b3ef846040518082815260200191505060405180910390a350505050565b600a600f805490501415156119d857600080fd5b601060009054906101000a900473ffffffffffffffffffffffffffffffffffffffff1673ffffffffffffffffffffffffffffffffffffffff163373ffffffffffffffffffffffffffffffffffffffff16141515611a3457600080fd5b8360001916601260008781526020019081526020016000205460001916141515611a5d57600080fd5b611a8c601060009054906101000a900473ffffffffffffffffffffffffffffffffffffffff1685858585613798565b1515611a9757600080fd5b6004601486815481101515611aa857fe5b906000526020600020906006020160040160006101000a81548160ff02191690836005811115611ad457fe5b0217905550611b05601160009054906101000a900473ffffffffffffffffffffffffffffffffffffffff16866134a9565b611b31601060009054906101000a900473ffffffffffffffffffffffffffffffffffffffff16866136c4565b611b3a8561385a565b7fd874b613099af8e7e8d6713dd132e17582243caf64e06907af5ccc0475408fd3856040518082815260200191505060405180910390a15050505050565b6000611b83836123a0565b82101515611b9057600080fd5b600660008473ffffffffffffffffffffffffffffffffffffffff1673ffffffffffffffffffffffffffffffffffffffff16815260200190815260200160002082815481101515611bdc57fe5b906000526020600020900154905092915050565b600a600f80549050141515611c0457600080fd5b601160009054906101000a900473ffffffffffffffffffffffffffffffffffffffff1673ffffffffffffffffffffffffffffffffffffffff163373ffffffffffffffffffffffffffffffffffffffff16141515611c6057600080fd5b6003601483815481101515611c7157fe5b906000526020600020906006020160040160006101000a81548160ff02191690836005811115611c9d57fe5b0217905550806012600084815260200190815260200160002081600019169055505050565b611cca613faa565b601160009054906101000a900473ffffffffffffffffffffffffffffffffffffffff1673ffffffffffffffffffffffffffffffffffffffff163373ffffffffffffffffffffffffffffffffffffffff16141515611d2657600080fd5b60806040519081016040528086815260200185815260200184815260200183815250905060138054806001018281611d5e9190613fe5565b916000526020600020906004020160008390919091506000820151816000019080519060200190611d90929190613f2a565b506020820151816001019080519060200190611dad929190613f2a565b506040820151816002019080519060200190611dca929190613f2a565b50606082015181600301555050507fdf087dd188026a4df1138ae7f5d804f9c9d1fccb66fdd27ee4c44a65ccb1d319858484604051808060200180602001848152602001838103835286818151815260200191508051906020019080838360005b83811015611e46578082015181840152602081019050611e2b565b50505050905090810190601f168015611e735780820380516001836020036101000a031916815260200191505b50838103825285818151815260200191508051906020019080838360005b83811015611eac578082015181840152602081019050611e91565b50505050905090810190601f168015611ed95780820380516001836020036101000a031916815260200191505b509550505050505060405180910390a15050505050565b611ef8613eb1565b611f00613eb1565b611f08613eb1565b6000601385815481101515611f1957fe5b9060005260206000209060040201600001601386815481101515611f3957fe5b9060005260206000209060040201600101601387815481101515611f5957fe5b9060005260206000209060040201600201601388815481101515611f7957fe5b906000526020600020906004020160030154838054600181600116156101000203166002900480601f0160208091040260200160405190810160405280929190818152602001828054600181600116156101000203166002900480156120205780601f10611ff557610100808354040283529160200191612020565b820191906000526020600020905b81548152906001019060200180831161200357829003601f168201915b50505050509350828054600181600116156101000203166002900480601f0160208091040260200160405190810160405280929190818152602001828054600181600116156101000203166002900480156120bc5780601f10612091576101008083540402835291602001916120bc565b820191906000526020600020905b81548152906001019060200180831161209f57829003601f168201915b50505050509250818054600181600116156101000203166002900480601f0160208091040260200160405190810160405280929190818152602001828054600181600116156101000203166002900480156121585780601f1061212d57610100808354040283529160200191612158565b820191906000526020600020905b81548152906001019060200180831161213b57829003601f168201915b5050505050915093509350935093509193509193565b600b60009054906101000a900473ffffffffffffffffffffffffffffffffffffffff1673ffffffffffffffffffffffffffffffffffffffff163373ffffffffffffffffffffffffffffffffffffffff161415156121ca57600080fd5b600b60149054906101000a900460ff1615156121e557600080fd5b6000600b60146101000a81548160ff0219169083151502179055507f7805862f689e2f13df9f062ff482ad3ad112aca9e0847911ed832e158c525b3360405160405180910390a1565b8061223933826132ab565b151561224457600080fd5b61226084848460206040519081016040528060008152506129cb565b50505050565b60008060008084815260200190815260200160002060009054906101000a900473ffffffffffffffffffffffffffffffffffffffff169050600073ffffffffffffffffffffffffffffffffffffffff168173ffffffffffffffffffffffffffffffffffffffff161415915050919050565b60006122e1611445565b821015156122ee57600080fd5b6008828154811015156122fd57fe5b9060005260206000209001549050919050565b600b60149054906101000a900460ff1681565b60008060008084815260200190815260200160002060009054906101000a900473ffffffffffffffffffffffffffffffffffffffff169050600073ffffffffffffffffffffffffffffffffffffffff168173ffffffffffffffffffffffffffffffffffffffff161415151561239757600080fd5b80915050919050565b60008073ffffffffffffffffffffffffffffffffffffffff168273ffffffffffffffffffffffffffffffffffffffff16141515156123dd57600080fd5b600260008373ffffffffffffffffffffffffffffffffffffffff1673ffffffffffffffffffffffffffffffffffffffff168152602001908152602001600020549050919050565b600b60009054906101000a900473ffffffffffffffffffffffffffffffffffffffff1673ffffffffffffffffffffffffffffffffffffffff163373ffffffffffffffffffffffffffffffffffffffff1614151561248057600080fd5b600b60009054906101000a900473ffffffffffffffffffffffffffffffffffffffff1673ffffffffffffffffffffffffffffffffffffffff16ff5b600b60009054906101000a900473ffffffffffffffffffffffffffffffffffffffff1673ffffffffffffffffffffffffffffffffffffffff163373ffffffffffffffffffffffffffffffffffffffff1614151561251757600080fd5b600b60149054906101000a900460ff1615151561253357600080fd5b6001600b60146101000a81548160ff0219169083151502179055507f6985a02210a168e66602d3235cb6db0e70f92b3ba4d376a33c0f3d9434bff62560405160405180910390a1565b600a600f8054905014151561259057600080fd5b601160009054906101000a900473ffffffffffffffffffffffffffffffffffffffff1673ffffffffffffffffffffffffffffffffffffffff163373ffffffffffffffffffffffffffffffffffffffff161415156125ec57600080fd5b80600260058111156125fa57fe5b1015801561261457506001600581111561261057fe5b8110155b151561261f57600080fd5b80600581111561262b57fe5b60148381548110151561263a57fe5b906000526020600020906006020160040160006101000a81548160ff0219169083600581111561266657fe5b02179055507fd432bc214507012b549be455591444ece6efc9df290a656c7ae372e9770fa9118282604051808381526020018281526020019250505060405180910390a15050565b600b60009054906101000a900473ffffffffffffffffffffffffffffffffffffffff1681565b6126dc613eb1565b60058054600181600116156101000203166002900480601f0160208091040260200160405190810160405280929190818152602001828054600181600116156101000203166002900480156127725780601f1061274757610100808354040283529160200191612772565b820191906000526020600020905b81548152906001019060200180831161275557829003601f168201915b5050505050905090565b612784613eb1565b600e826040518082805190602001908083835b6020831015156127bc5780518252602082019150602081019050602083039250612797565b6001836020036101000a03801982511681845116808217855250505050505090500191505090815260200160405180910390208054600181600116156101000203166002900480601f0160208091040260200160405190810160405280929190818152602001828054600181600116156101000203166002900480156128835780601f1061285857610100808354040283529160200191612883565b820191906000526020600020905b81548152906001019060200180831161286657829003601f168201915b50505050509050919050565b3373ffffffffffffffffffffffffffffffffffffffff168273ffffffffffffffffffffffffffffffffffffffff16141515156128ca57600080fd5b80600360003373ffffffffffffffffffffffffffffffffffffffff1673ffffffffffffffffffffffffffffffffffffffff16815260200190815260200160002060008473ffffffffffffffffffffffffffffffffffffffff1673ffffffffffffffffffffffffffffffffffffffff16815260200190815260200160002060006101000a81548160ff0219169083151502179055508173ffffffffffffffffffffffffffffffffffffffff163373ffffffffffffffffffffffffffffffffffffffff167f17307eab39ab6107e8899845ad3d59bd9653f200f220920489ca2b5937696c3183604051808215151515815260200191505060405180910390a35050565b816129d633826132ab565b15156129e157600080fd5b6129ec8585856118ad565b6129f88585858561395b565b1515612a0357600080fd5b5050505050565b612a12613eb1565b612a1b82612266565b1515612a2657600080fd5b600a60008381526020019081526020016000208054600181600116156101000203166002900480601f016020809104026020016040519081016040528092919081815260200182805460018160011615610100020316600290048015612acd5780601f10612aa257610100808354040283529160200191612acd565b820191906000526020600020905b815481529060010190602001808311612ab057829003601f168201915b50505050509050919050565b6000600f80549050905090565b6000601060009054906101000a900473ffffffffffffffffffffffffffffffffffffffff16905090565b600b60009054906101000a900473ffffffffffffffffffffffffffffffffffffffff1673ffffffffffffffffffffffffffffffffffffffff163373ffffffffffffffffffffffffffffffffffffffff16141515612b6c57600080fd5b80600e836040518082805190602001908083835b602083101515612ba55780518252602082019150602081019050602083039250612b80565b6001836020036101000a03801982511681845116808217855250505050505090500191505090815260200160405180910390209080519060200190612beb929190614017565b50600f8054806001018281612c009190614097565b916000526020600020900160008490919091509080519060200190612c26929190614017565b50507f5ad69516aee2b1d29a4c660228ff067db85c427a079dff23d38097ae0acdde068282604051808060200180602001838103835285818151815260200191508051906020019080838360005b83811015612c8f578082015181840152602081019050612c74565b50505050905090810190601f168015612cbc5780820380516001836020036101000a031916815260200191505b50838103825284818151815260200191508051906020019080838360005b83811015612cf5578082015181840152602081019050612cda565b50505050905090810190601f168015612d225780820380516001836020036101000a031916815260200191505b5094505050505060405180910390a15050565b612d3d613eb1565b612d45613eb1565b6000806000601486815481101515612d5957fe5b9060005260206000209060060201600001600001601487815481101515612d7c57fe5b9060005260206000209060060201600001600201601488815481101515612d9f57fe5b906000526020600020906006020160000160030154601489815481101515612dc357fe5b90600052602060002090600602016005015460148a815481101515612de457fe5b906000526020600020906006020160040160009054906101000a900460ff16848054600181600116156101000203166002900480601f016020809104026020016040519081016040528092919081815260200182805460018160011615610100020316600290048015612e985780601f10612e6d57610100808354040283529160200191612e98565b820191906000526020600020905b815481529060010190602001808311612e7b57829003601f168201915b50505050509450838054600181600116156101000203166002900480601f016020809104026020016040519081016040528092919081815260200182805460018160011615610100020316600290048015612f345780601f10612f0957610100808354040283529160200191612f34565b820191906000526020600020905b815481529060010190602001808311612f1757829003601f168201915b505050505093509450945094509450945091939590929450565b6000600360008473ffffffffffffffffffffffffffffffffffffffff1673ffffffffffffffffffffffffffffffffffffffff16815260200190815260200160002060008373ffffffffffffffffffffffffffffffffffffffff1673ffffffffffffffffffffffffffffffffffffffff16815260200190815260200160002060009054906101000a900460ff16905092915050565b600b60009054906101000a900473ffffffffffffffffffffffffffffffffffffffff1673ffffffffffffffffffffffffffffffffffffffff163373ffffffffffffffffffffffffffffffffffffffff1614151561303e57600080fd5b600073ffffffffffffffffffffffffffffffffffffffff168173ffffffffffffffffffffffffffffffffffffffff161415151561307a57600080fd5b8073ffffffffffffffffffffffffffffffffffffffff16600b60009054906101000a900473ffffffffffffffffffffffffffffffffffffffff1673ffffffffffffffffffffffffffffffffffffffff167f8be0079c531659141344cd1fd0a4f28419497f9722a3daafe3b4186f6b6457e060405160405180910390a380600b60006101000a81548173ffffffffffffffffffffffffffffffffffffffff021916908373ffffffffffffffffffffffffffffffffffffffff16021790555050565b600b60009054906101000a900473ffffffffffffffffffffffffffffffffffffffff1673ffffffffffffffffffffffffffffffffffffffff163373ffffffffffffffffffffffffffffffffffffffff1614151561319657600080fd5b8073ffffffffffffffffffffffffffffffffffffffff16ff5b6131b7613eb1565b600c8054600181600116156101000203166002900480601f01602080910402602001604051908101604052809291908181526020018280546001816001161561010002031660029004801561324d5780601f106132225761010080835404028352916020019161324d565b820191906000526020600020905b81548152906001019060200180831161323057829003601f168201915b5050505050905090565b6132618282613b31565b60088054905060096000838152602001908152602001600020819055506008805480600101828161329291906140c3565b9160005260206000209001600083909190915055505050565b6000806132b783612323565b90508073ffffffffffffffffffffffffffffffffffffffff168473ffffffffffffffffffffffffffffffffffffffff16148061332657508373ffffffffffffffffffffffffffffffffffffffff1661330e84611242565b73ffffffffffffffffffffffffffffffffffffffff16145b8061333757506133368185612f4e565b5b91505092915050565b8173ffffffffffffffffffffffffffffffffffffffff1661336082612323565b73ffffffffffffffffffffffffffffffffffffffff1614151561338257600080fd5b600073ffffffffffffffffffffffffffffffffffffffff166001600083815260200190815260200160002060009054906101000a900473ffffffffffffffffffffffffffffffffffffffff1673ffffffffffffffffffffffffffffffffffffffff161415156134a55760006001600083815260200190815260200160002060006101000a81548173ffffffffffffffffffffffffffffffffffffffff021916908373ffffffffffffffffffffffffffffffffffffffff160217905550600073ffffffffffffffffffffffffffffffffffffffff168273ffffffffffffffffffffffffffffffffffffffff167f8c5be1e5ebec7d5bd14f71427d1e84f3dd0314c0f7b2291e5b200ac8c7c3b925836040518082815260200191505060405180910390a35b5050565b60008060006134b88585613be1565b600760008581526020019081526020016000205492506135246001600660008873ffffffffffffffffffffffffffffffffffffffff1673ffffffffffffffffffffffffffffffffffffffff16815260200190815260200160002080549050613d0f90919063ffffffff16565b9150600660008673ffffffffffffffffffffffffffffffffffffffff1673ffffffffffffffffffffffffffffffffffffffff1681526020019081526020016000208281548110151561357257fe5b906000526020600020900154905080600660008773ffffffffffffffffffffffffffffffffffffffff1673ffffffffffffffffffffffffffffffffffffffff168152602001908152602001600020848154811015156135cd57fe5b9060005260206000209001819055506000600660008773ffffffffffffffffffffffffffffffffffffffff1673ffffffffffffffffffffffffffffffffffffffff1681526020019081526020016000208381548110151561362a57fe5b906000526020600020900181905550600660008673ffffffffffffffffffffffffffffffffffffffff1673ffffffffffffffffffffffffffffffffffffffff16815260200190815260200160002080548091906001900361368b91906140ef565b50600060076000868152602001908152602001600020819055508260076000838152602001908152602001600020819055505050505050565b60006136d08383613d28565b600660008473ffffffffffffffffffffffffffffffffffffffff1673ffffffffffffffffffffffffffffffffffffffff168152602001908152602001600020805490509050600660008473ffffffffffffffffffffffffffffffffffffffff1673ffffffffffffffffffffffffffffffffffffffff168152602001908152602001600020805480600101828161376691906140c3565b916000526020600020900160008490919091505550806007600084815260200190815260200160002081905550505050565b60008573ffffffffffffffffffffffffffffffffffffffff16600186868686604051600081526020016040526000604051602001526040518085600019166000191681526020018460ff1660ff16815260200183600019166000191681526020018260001916600019168152602001945050505050602060405160208103908084039060008661646e5a03f1151561382f57600080fd5b50506020604051035173ffffffffffffffffffffffffffffffffffffffff1614905095945050505050565b601160009054906101000a900473ffffffffffffffffffffffffffffffffffffffff1673ffffffffffffffffffffffffffffffffffffffff166108fc6014838154811015156138a557fe5b9060005260206000209060060201600001600301549081150290604051600060405180830381858888f1935050505015156138df57600080fd5b60056014828154811015156138f057fe5b906000526020600020906006020160040160006101000a81548160ff0219169083600581111561391c57fe5b02179055507f0ffc50e9307fb2a4c6b030ccd0129cfae0b9cca37264f558d91c49a16f5ff03b816040518082815260200191505060405180910390a150565b60008061397d8573ffffffffffffffffffffffffffffffffffffffff16613e80565b151561398c5760019150613b28565b8473ffffffffffffffffffffffffffffffffffffffff1663f0b9e5ba8786866000604051602001526040518463ffffffff167c0100000000000000000000000000000000000000000000000000000000028152600401808473ffffffffffffffffffffffffffffffffffffffff1673ffffffffffffffffffffffffffffffffffffffff16815260200183815260200180602001828103825283818151815260200191508051906020019080838360005b83811015613a57578082015181840152602081019050613a3c565b50505050905090810190601f168015613a845780820380516001836020036101000a031916815260200191505b50945050505050602060405180830381600087803b1515613aa457600080fd5b6102c65a03f11515613ab557600080fd5b50505060405180519050905063f0b9e5ba7c0100000000000000000000000000000000000000000000000000000000027bffffffffffffffffffffffffffffffffffffffffffffffffffffffff1916817bffffffffffffffffffffffffffffffffffffffffffffffffffffffff19161491505b50949350505050565b600073ffffffffffffffffffffffffffffffffffffffff168273ffffffffffffffffffffffffffffffffffffffff1614151515613b6d57600080fd5b613b7782826136c4565b8173ffffffffffffffffffffffffffffffffffffffff16600073ffffffffffffffffffffffffffffffffffffffff167fddf252ad1be2c89b69c2b068fc378daa952ba7f163c4a11628f55a4df523b3ef836040518082815260200191505060405180910390a35050565b8173ffffffffffffffffffffffffffffffffffffffff16613c0182612323565b73ffffffffffffffffffffffffffffffffffffffff16141515613c2357600080fd5b613c766001600260008573ffffffffffffffffffffffffffffffffffffffff1673ffffffffffffffffffffffffffffffffffffffff16815260200190815260200160002054613d0f90919063ffffffff16565b600260008473ffffffffffffffffffffffffffffffffffffffff1673ffffffffffffffffffffffffffffffffffffffff16815260200190815260200160002081905550600080600083815260200190815260200160002060006101000a81548173ffffffffffffffffffffffffffffffffffffffff021916908373ffffffffffffffffffffffffffffffffffffffff1602179055505050565b6000828211151515613d1d57fe5b818303905092915050565b600073ffffffffffffffffffffffffffffffffffffffff1660008083815260200190815260200160002060009054906101000a900473ffffffffffffffffffffffffffffffffffffffff1673ffffffffffffffffffffffffffffffffffffffff16141515613d9557600080fd5b8160008083815260200190815260200160002060006101000a81548173ffffffffffffffffffffffffffffffffffffffff021916908373ffffffffffffffffffffffffffffffffffffffff160217905550613e396001600260008573ffffffffffffffffffffffffffffffffffffffff1673ffffffffffffffffffffffffffffffffffffffff16815260200190815260200160002054613e9390919063ffffffff16565b600260008473ffffffffffffffffffffffffffffffffffffffff1673ffffffffffffffffffffffffffffffffffffffff168152602001908152602001600020819055505050565b600080823b905060008111915050919050565b6000808284019050838110151515613ea757fe5b8091505092915050565b602060405190810160405280600081525090565b60c060405190810160405280613ed961411b565b815260200160006005811115613eeb57fe5b8152602001600081525090565b815481835581811511613f2557600602816006028360005260206000209182019101613f249190614156565b5b505050565b828054600181600116156101000203166002900490600052602060002090601f016020900481019282601f10613f6b57805160ff1916838001178555613f99565b82800160010185558215613f99579182015b82811115613f98578251825591602001919060010190613f7d565b5b509050613fa691906141d0565b5090565b608060405190810160405280613fbe6141f5565b8152602001613fcb6141f5565b8152602001613fd86141f5565b8152602001600081525090565b815481835581811511614012576004028160040283600052602060002091820191016140119190614209565b5b505050565b828054600181600116156101000203166002900490600052602060002090601f016020900481019282601f1061405857805160ff1916838001178555614086565b82800160010185558215614086579182015b8281111561408557825182559160200191906001019061406a565b5b50905061409391906141d0565b5090565b8154818355818115116140be578183600052602060002091820191016140bd9190614260565b5b505050565b8154818355818115116140ea578183600052602060002091820191016140e991906141d0565b5b505050565b8154818355818115116141165781836000526020600020918201910161411591906141d0565b5b505050565b60806040519081016040528061412f6141f5565b815260200161413c6141f5565b81526020016141496141f5565b8152602001600081525090565b6141cd91905b808211156141c95760008082016000808201600061417a919061428c565b60018201600061418a919061428c565b60028201600061419a919061428c565b600382016000905550506004820160006101000a81549060ff021916905560058201600090555060060161415c565b5090565b90565b6141f291905b808211156141ee5760008160009055506001016141d6565b5090565b90565b602060405190810160405280600081525090565b61425d91905b808211156142595760008082016000614228919061428c565b600182016000614238919061428c565b600282016000614248919061428c565b60038201600090555060040161420f565b5090565b90565b61428991905b80821115614285576000818161427c919061428c565b50600101614266565b5090565b90565b50805460018160011615610100020316600290046000825580601f106142b257506142d1565b601f0160209004906000526020600020908101906142d091906141d0565b5b505600a165627a7a723058208726d94cde3c86d70f0541180079590ee09f31c356b814e407e4dde1d7e9e89c0029",
  "source": "pragma solidity ^0.4.19;\n\nimport \"zeppelin-solidity/contracts/ownership/Ownable.sol\";\nimport \"zeppelin-solidity/contracts/lifecycle/Destructible.sol\";\nimport \"zeppelin-solidity/contracts/token/ERC721/ERC721Token.sol\";\nimport \"zeppelin-solidity/contracts/math/SafeMath.sol\";\nimport \"zeppelin-solidity/contracts/AddressUtils.sol\";\nimport \"zeppelin-solidity/contracts/lifecycle/Pausable.sol\";\n\n\ncontract NIL2 is ERC721Token, Ownable, Pausable, Destructible {\n\n    using SafeMath for uint256;\n    using AddressUtils for address;\n\n    string internal contractName_;\n    string internal contractCID_;\n    mapping (string => string) parameters_;\n    string[] parametersKeys_;\n    address internal byuer_;\n    address internal supplier_;\n\n    enum goodState {Ordered, Manufacturing, Manufactured, Delivery, Delivered, Payed}\n\n    event GoodAdded(string name, string CID, uint price);\n    event ParameterAdded(string param, string value);\n    event ByuerMadeOrder(uint goodID, uint timestamp);\n    event SupplierUpdatedOrderState(uint orderID, uint orderState);\n    event ByuerConfirmedDelivery(uint orderID);\n    event ByuerTransferPayment(uint orderID);\n\n    modifier onlySupplier() {\n        require(msg.sender == supplier_);\n        _;\n    }\n\n    modifier onlyByuer() {\n        require(msg.sender == byuer_);\n        _;\n    }\n\n    modifier contractDataFilled() {\n        require(parametersKeys_.length == 10);\n        _;\n    }\n\n    struct GoodInfo {\n        string name;\n        string description;\n        string CID;\n        uint price;\n    }\n\n    struct Order {\n        GoodInfo good;\n        goodState state;\n        uint orderTimestamp;\n    }\n\n    mapping (uint => bytes32) ordersMessages;\n\n    GoodInfo[] internal supplierGoods;\n    Order[] internal orders;\n\n    function NIL2(\n        string _contractName,\n        string _supplierSymbol,\n        string _contractCID,\n        address _byuer,\n        address _supplier\n    )\n        ERC721Token(_contractName, _supplierSymbol)\n        public\n        payable\n    {\n        contractName_ = _contractName;\n        contractCID_ = _contractCID;\n        byuer_ = _byuer;\n        supplier_ = _supplier;\n    }\n\n    function getContractName()\n        public\n        view\n        returns (string name)\n    {\n        return contractName_;\n    }\n\n    function getContractCID()\n        public\n        view\n        returns (string CID)\n    {\n        return contractCID_;\n    }\n\n    function getByuer()\n        public\n        view\n        returns (address byuer)\n    {\n        return byuer_;\n    }\n\n    function getSupplier()\n        public\n        view\n        returns (address supplier)\n    {\n        return supplier_;\n    }\n\n    function getParameter(string _param)\n        public\n        view\n        returns (string value)\n    {\n        return parameters_[_param];\n    }\n\n    function getParametersAmount()\n        public\n        view\n        returns (uint amount)\n    {\n        return parametersKeys_.length;\n    }\n\n    function addContractParameter(string param_, string value_)\n        public\n        onlyOwner\n    {\n        parameters_[param_] = value_;\n        parametersKeys_.push(param_);\n\n        ParameterAdded(param_, value_);\n    }\n\n    function addGood(string name_, string description_, string CID_, uint price_)\n        public\n        onlySupplier\n    {\n        GoodInfo memory good = (GoodInfo(\n        {\n            name: name_,\n            description: description_,\n            CID: CID_,\n            price: price_\n        }));\n        supplierGoods.push(good);\n\n        GoodAdded(name_, CID_, price_);\n    }\n\n    function getGoodInfo(uint _goodID)\n        public\n        view\n        returns(string, string, string, uint)\n    {\n        return (\n            supplierGoods[_goodID].name,\n            supplierGoods[_goodID].description,\n            supplierGoods[_goodID].CID,\n            supplierGoods[_goodID].price\n        );\n    }\n\n    function makeOrder(uint _goodID)\n        public\n        payable\n        onlyByuer\n        contractDataFilled\n        returns (uint ID)\n    {\n        require(msg.value == supplierGoods[_goodID].price);\n\n        Order memory order = (Order(\n        {\n            good: supplierGoods[_goodID],\n            state: goodState.Ordered,\n            orderTimestamp: block.timestamp\n        }));\n\n        uint orderID = orders.push(order) - 1;\n        _mint(supplier_, orderID);\n\n        ByuerMadeOrder(_goodID, block.timestamp);\n\n        return orderID;\n    }\n\n    function getOrder(uint _orderID)\n        public\n        view\n        returns (string, string, uint, uint, goodState)\n    {\n        return(\n            orders[_orderID].good.name,\n            orders[_orderID].good.CID,\n            orders[_orderID].good.price,\n            orders[_orderID].orderTimestamp,\n            orders[_orderID].state\n        );\n    }\n\n    function supplierUpdateManufacturingState(uint _orderID, uint _orderState)\n        public\n        contractDataFilled\n        onlySupplier\n    {\n        require(uint(goodState.Manufactured) >= _orderState && _orderState >= uint(goodState.Manufacturing));\n        orders[_orderID].state = goodState(_orderState);\n\n        SupplierUpdatedOrderState(_orderID, _orderState);\n    }\n\n    function supplierStartDelivery(uint _orderID, bytes32 _message)\n        public\n        contractDataFilled\n        onlySupplier\n    {\n        orders[_orderID].state = goodState.Delivery;\n        ordersMessages[_orderID] = _message;\n    }\n\n    function byuerConfirmedDelivery(uint _orderID, bytes32 _hash, uint8 _v, bytes32 _r, bytes32 _s)\n        public\n        contractDataFilled\n        onlyByuer\n    {\n        require(ordersMessages[_orderID] == _hash);\n        require(verifyByuerSignature(byuer_, _hash, _v, _r, _s));\n\n        orders[_orderID].state = goodState.Delivered;\n\n        super.removeTokenFrom(supplier_, _orderID);\n        super.addTokenTo(byuer_, _orderID);\n\n        transferPaymentToSupplier(_orderID);\n\n        ByuerConfirmedDelivery(_orderID);\n    }\n\n    function verifyByuerSignature(address p, bytes32 hash, uint8 v, bytes32 r, bytes32 s)\n        private\n        constant\n        returns(bool)\n    {\n        return ecrecover(hash, v, r, s) == p;\n    }\n\n    function transferPaymentToSupplier(uint _orderID)\n        private\n    {\n        supplier_.transfer(orders[_orderID].good.price);\n        orders[_orderID].state = goodState.Payed;\n        ByuerTransferPayment(_orderID);\n    }\n}\n",
  "sourcePath": "/Users/litvintech/Projects/NIL-2/contracts/NIL2.sol",
  "compiler": {
    "name": "solc",
    "version": "0.4.19+commit.c4cbbb05.Emscripten.clang"
  },
  "schemaVersion": "1.0.1",
  "updatedAt": "2018-04-21T13:09:21.368Z"
}