{
  "contractName": "NIL2",
  "abi": [
    {
      "constant": true,
      "inputs": [],
      "name": "name",
      "outputs": [
        {
          "name": "",
          "type": "string"
        }
      ],
      "payable": false,
      "stateMutability": "view",
      "type": "function"
    },
    {
      "constant": true,
      "inputs": [
        {
          "name": "_tokenId",
          "type": "uint256"
        }
      ],
      "name": "getApproved",
      "outputs": [
        {
          "name": "",
          "type": "address"
        }
      ],
      "payable": false,
      "stateMutability": "view",
      "type": "function"
    },
    {
      "constant": false,
      "inputs": [
        {
          "name": "_to",
          "type": "address"
        },
        {
          "name": "_tokenId",
          "type": "uint256"
        }
      ],
      "name": "approve",
      "outputs": [],
      "payable": false,
      "stateMutability": "nonpayable",
      "type": "function"
    },
    {
      "constant": true,
      "inputs": [],
      "name": "totalSupply",
      "outputs": [
        {
          "name": "",
          "type": "uint256"
        }
      ],
      "payable": false,
      "stateMutability": "view",
      "type": "function"
    },
    {
      "constant": false,
      "inputs": [
        {
          "name": "_from",
          "type": "address"
        },
        {
          "name": "_to",
          "type": "address"
        },
        {
          "name": "_tokenId",
          "type": "uint256"
        }
      ],
      "name": "transferFrom",
      "outputs": [],
      "payable": false,
      "stateMutability": "nonpayable",
      "type": "function"
    },
    {
      "constant": true,
      "inputs": [
        {
          "name": "_owner",
          "type": "address"
        },
        {
          "name": "_index",
          "type": "uint256"
        }
      ],
      "name": "tokenOfOwnerByIndex",
      "outputs": [
        {
          "name": "",
          "type": "uint256"
        }
      ],
      "payable": false,
      "stateMutability": "view",
      "type": "function"
    },
    {
      "constant": false,
      "inputs": [],
      "name": "unpause",
      "outputs": [],
      "payable": false,
      "stateMutability": "nonpayable",
      "type": "function"
    },
    {
      "constant": false,
      "inputs": [
        {
          "name": "_from",
          "type": "address"
        },
        {
          "name": "_to",
          "type": "address"
        },
        {
          "name": "_tokenId",
          "type": "uint256"
        }
      ],
      "name": "safeTransferFrom",
      "outputs": [],
      "payable": false,
      "stateMutability": "nonpayable",
      "type": "function"
    },
    {
      "constant": true,
      "inputs": [
        {
          "name": "_tokenId",
          "type": "uint256"
        }
      ],
      "name": "exists",
      "outputs": [
        {
          "name": "",
          "type": "bool"
        }
      ],
      "payable": false,
      "stateMutability": "view",
      "type": "function"
    },
    {
      "constant": true,
      "inputs": [
        {
          "name": "_index",
          "type": "uint256"
        }
      ],
      "name": "tokenByIndex",
      "outputs": [
        {
          "name": "",
          "type": "uint256"
        }
      ],
      "payable": false,
      "stateMutability": "view",
      "type": "function"
    },
    {
      "constant": true,
      "inputs": [],
      "name": "paused",
      "outputs": [
        {
          "name": "",
          "type": "bool"
        }
      ],
      "payable": false,
      "stateMutability": "view",
      "type": "function"
    },
    {
      "constant": true,
      "inputs": [
        {
          "name": "_tokenId",
          "type": "uint256"
        }
      ],
      "name": "ownerOf",
      "outputs": [
        {
          "name": "",
          "type": "address"
        }
      ],
      "payable": false,
      "stateMutability": "view",
      "type": "function"
    },
    {
      "constant": true,
      "inputs": [
        {
          "name": "_owner",
          "type": "address"
        }
      ],
      "name": "balanceOf",
      "outputs": [
        {
          "name": "",
          "type": "uint256"
        }
      ],
      "payable": false,
      "stateMutability": "view",
      "type": "function"
    },
    {
      "constant": false,
      "inputs": [],
      "name": "destroy",
      "outputs": [],
      "payable": false,
      "stateMutability": "nonpayable",
      "type": "function"
    },
    {
      "constant": false,
      "inputs": [],
      "name": "pause",
      "outputs": [],
      "payable": false,
      "stateMutability": "nonpayable",
      "type": "function"
    },
    {
      "constant": true,
      "inputs": [],
      "name": "owner",
      "outputs": [
        {
          "name": "",
          "type": "address"
        }
      ],
      "payable": false,
      "stateMutability": "view",
      "type": "function"
    },
    {
      "constant": true,
      "inputs": [],
      "name": "symbol",
      "outputs": [
        {
          "name": "",
          "type": "string"
        }
      ],
      "payable": false,
      "stateMutability": "view",
      "type": "function"
    },
    {
      "constant": false,
      "inputs": [
        {
          "name": "_to",
          "type": "address"
        },
        {
          "name": "_approved",
          "type": "bool"
        }
      ],
      "name": "setApprovalForAll",
      "outputs": [],
      "payable": false,
      "stateMutability": "nonpayable",
      "type": "function"
    },
    {
      "constant": false,
      "inputs": [
        {
          "name": "_from",
          "type": "address"
        },
        {
          "name": "_to",
          "type": "address"
        },
        {
          "name": "_tokenId",
          "type": "uint256"
        },
        {
          "name": "_data",
          "type": "bytes"
        }
      ],
      "name": "safeTransferFrom",
      "outputs": [],
      "payable": false,
      "stateMutability": "nonpayable",
      "type": "function"
    },
    {
      "constant": true,
      "inputs": [
        {
          "name": "_tokenId",
          "type": "uint256"
        }
      ],
      "name": "tokenURI",
      "outputs": [
        {
          "name": "",
          "type": "string"
        }
      ],
      "payable": false,
      "stateMutability": "view",
      "type": "function"
    },
    {
      "constant": true,
      "inputs": [
        {
          "name": "_owner",
          "type": "address"
        },
        {
          "name": "_operator",
          "type": "address"
        }
      ],
      "name": "isApprovedForAll",
      "outputs": [
        {
          "name": "",
          "type": "bool"
        }
      ],
      "payable": false,
      "stateMutability": "view",
      "type": "function"
    },
    {
      "constant": false,
      "inputs": [
        {
          "name": "newOwner",
          "type": "address"
        }
      ],
      "name": "transferOwnership",
      "outputs": [],
      "payable": false,
      "stateMutability": "nonpayable",
      "type": "function"
    },
    {
      "constant": false,
      "inputs": [
        {
          "name": "_recipient",
          "type": "address"
        }
      ],
      "name": "destroyAndSend",
      "outputs": [],
      "payable": false,
      "stateMutability": "nonpayable",
      "type": "function"
    },
    {
      "inputs": [
        {
          "name": "_contractName",
          "type": "string"
        },
        {
          "name": "_supplierSymbol",
          "type": "string"
        },
        {
          "name": "_contractCID",
          "type": "string"
        },
        {
          "name": "_byuer",
          "type": "address"
        },
        {
          "name": "_supplier",
          "type": "address"
        }
      ],
      "payable": true,
      "stateMutability": "payable",
      "type": "constructor"
    },
    {
      "anonymous": false,
      "inputs": [
        {
          "indexed": false,
          "name": "name",
          "type": "string"
        },
        {
          "indexed": false,
          "name": "CID",
          "type": "string"
        },
        {
          "indexed": false,
          "name": "price",
          "type": "uint256"
        }
      ],
      "name": "GoodAdded",
      "type": "event"
    },
    {
      "anonymous": false,
      "inputs": [
        {
          "indexed": false,
          "name": "param",
          "type": "string"
        },
        {
          "indexed": false,
          "name": "value",
          "type": "string"
        }
      ],
      "name": "ParameterAdded",
      "type": "event"
    },
    {
      "anonymous": false,
      "inputs": [
        {
          "indexed": false,
          "name": "goodID",
          "type": "uint256"
        },
        {
          "indexed": false,
          "name": "timestamp",
          "type": "uint256"
        }
      ],
      "name": "ByuerMadeOrder",
      "type": "event"
    },
    {
      "anonymous": false,
      "inputs": [
        {
          "indexed": false,
          "name": "orderID",
          "type": "uint256"
        },
        {
          "indexed": false,
          "name": "orderState",
          "type": "uint256"
        }
      ],
      "name": "SupplierUpdatedOrderState",
      "type": "event"
    },
    {
      "anonymous": false,
      "inputs": [
        {
          "indexed": false,
          "name": "orderID",
          "type": "uint256"
        }
      ],
      "name": "ByuerConfirmedDelivery",
      "type": "event"
    },
    {
      "anonymous": false,
      "inputs": [
        {
          "indexed": false,
          "name": "orderID",
          "type": "uint256"
        }
      ],
      "name": "ByuerTransferPayment",
      "type": "event"
    },
    {
      "anonymous": false,
      "inputs": [],
      "name": "Pause",
      "type": "event"
    },
    {
      "anonymous": false,
      "inputs": [],
      "name": "Unpause",
      "type": "event"
    },
    {
      "anonymous": false,
      "inputs": [
        {
          "indexed": true,
          "name": "previousOwner",
          "type": "address"
        },
        {
          "indexed": true,
          "name": "newOwner",
          "type": "address"
        }
      ],
      "name": "OwnershipTransferred",
      "type": "event"
    },
    {
      "anonymous": false,
      "inputs": [
        {
          "indexed": true,
          "name": "_from",
          "type": "address"
        },
        {
          "indexed": true,
          "name": "_to",
          "type": "address"
        },
        {
          "indexed": false,
          "name": "_tokenId",
          "type": "uint256"
        }
      ],
      "name": "Transfer",
      "type": "event"
    },
    {
      "anonymous": false,
      "inputs": [
        {
          "indexed": true,
          "name": "_owner",
          "type": "address"
        },
        {
          "indexed": true,
          "name": "_approved",
          "type": "address"
        },
        {
          "indexed": false,
          "name": "_tokenId",
          "type": "uint256"
        }
      ],
      "name": "Approval",
      "type": "event"
    },
    {
      "anonymous": false,
      "inputs": [
        {
          "indexed": true,
          "name": "_owner",
          "type": "address"
        },
        {
          "indexed": true,
          "name": "_operator",
          "type": "address"
        },
        {
          "indexed": false,
          "name": "_approved",
          "type": "bool"
        }
      ],
      "name": "ApprovalForAll",
      "type": "event"
    },
    {
      "constant": true,
      "inputs": [],
      "name": "getContractName",
      "outputs": [
        {
          "name": "name",
          "type": "string"
        }
      ],
      "payable": false,
      "stateMutability": "view",
      "type": "function"
    },
    {
      "constant": true,
      "inputs": [],
      "name": "getContractCID",
      "outputs": [
        {
          "name": "CID",
          "type": "string"
        }
      ],
      "payable": false,
      "stateMutability": "view",
      "type": "function"
    },
    {
      "constant": true,
      "inputs": [],
      "name": "getByuer",
      "outputs": [
        {
          "name": "byuer",
          "type": "address"
        }
      ],
      "payable": false,
      "stateMutability": "view",
      "type": "function"
    },
    {
      "constant": true,
      "inputs": [],
      "name": "getSupplier",
      "outputs": [
        {
          "name": "supplier",
          "type": "address"
        }
      ],
      "payable": false,
      "stateMutability": "view",
      "type": "function"
    },
    {
      "constant": true,
      "inputs": [
        {
          "name": "_param",
          "type": "string"
        }
      ],
      "name": "getParameter",
      "outputs": [
        {
          "name": "value",
          "type": "string"
        }
      ],
      "payable": false,
      "stateMutability": "view",
      "type": "function"
    },
    {
      "constant": false,
      "inputs": [
        {
          "name": "param_",
          "type": "string"
        },
        {
          "name": "value_",
          "type": "string"
        }
      ],
      "name": "addContractParameter",
      "outputs": [],
      "payable": false,
      "stateMutability": "nonpayable",
      "type": "function"
    },
    {
      "constant": false,
      "inputs": [
        {
          "name": "name_",
          "type": "string"
        },
        {
          "name": "description_",
          "type": "string"
        },
        {
          "name": "CID_",
          "type": "string"
        },
        {
          "name": "price_",
          "type": "uint256"
        }
      ],
      "name": "addGood",
      "outputs": [],
      "payable": false,
      "stateMutability": "nonpayable",
      "type": "function"
    },
    {
      "constant": true,
      "inputs": [
        {
          "name": "_goodID",
          "type": "uint256"
        }
      ],
      "name": "getGoodInfo",
      "outputs": [
        {
          "name": "",
          "type": "string"
        },
        {
          "name": "",
          "type": "string"
        },
        {
          "name": "",
          "type": "string"
        },
        {
          "name": "",
          "type": "uint256"
        }
      ],
      "payable": false,
      "stateMutability": "view",
      "type": "function"
    },
    {
      "constant": false,
      "inputs": [
        {
          "name": "_goodID",
          "type": "uint256"
        }
      ],
      "name": "makeOrder",
      "outputs": [
        {
          "name": "ID",
          "type": "uint256"
        }
      ],
      "payable": true,
      "stateMutability": "payable",
      "type": "function"
    },
    {
      "constant": true,
      "inputs": [
        {
          "name": "_orderID",
          "type": "uint256"
        }
      ],
      "name": "getOrder",
      "outputs": [
        {
          "name": "",
          "type": "string"
        },
        {
          "name": "",
          "type": "string"
        },
        {
          "name": "",
          "type": "uint256"
        },
        {
          "name": "",
          "type": "uint256"
        },
        {
          "name": "",
          "type": "uint8"
        }
      ],
      "payable": false,
      "stateMutability": "view",
      "type": "function"
    },
    {
      "constant": false,
      "inputs": [
        {
          "name": "_orderID",
          "type": "uint256"
        },
        {
          "name": "_orderState",
          "type": "uint256"
        }
      ],
      "name": "supplierUpdateManufacturingState",
      "outputs": [],
      "payable": false,
      "stateMutability": "nonpayable",
      "type": "function"
    },
    {
      "constant": false,
      "inputs": [
        {
          "name": "_orderID",
          "type": "uint256"
        },
        {
          "name": "_message",
          "type": "bytes32"
        }
      ],
      "name": "supplierStartDelivery",
      "outputs": [],
      "payable": false,
      "stateMutability": "nonpayable",
      "type": "function"
    },
    {
      "constant": false,
      "inputs": [
        {
          "name": "_orderID",
          "type": "uint256"
        },
        {
          "name": "_hash",
          "type": "bytes32"
        },
        {
          "name": "_v",
          "type": "uint8"
        },
        {
          "name": "_r",
          "type": "bytes32"
        },
        {
          "name": "_s",
          "type": "bytes32"
        }
      ],
      "name": "byuerConfirmedDelivery",
      "outputs": [],
      "payable": false,
      "stateMutability": "nonpayable",
      "type": "function"
    }
  ],
  "bytecode": "0x60606040526000600b60146101000a81548160ff021916908315150217905550604051620045183803806200451883398101604052808051820191906020018051820191906020018051820191906020018051906020019091908051906020019091905050848481600490805190602001906200007e9291906200019a565b508060059080519060200190620000979291906200019a565b50505033600b60006101000a81548173ffffffffffffffffffffffffffffffffffffffff021916908373ffffffffffffffffffffffffffffffffffffffff16021790555084600c9080519060200190620000f39291906200019a565b5082600d90805190602001906200010c9291906200019a565b5081601060006101000a81548173ffffffffffffffffffffffffffffffffffffffff021916908373ffffffffffffffffffffffffffffffffffffffff16021790555080601160006101000a81548173ffffffffffffffffffffffffffffffffffffffff021916908373ffffffffffffffffffffffffffffffffffffffff160217905550505050505062000249565b828054600181600116156101000203166002900490600052602060002090601f016020900481019282601f10620001dd57805160ff19168380011785556200020e565b828001600101855582156200020e579182015b828111156200020d578251825591602001919060010190620001f0565b5b5090506200021d919062000221565b5090565b6200024691905b808211156200024257600081600090555060010162000228565b5090565b90565b6142bf80620002596000396000f3006060604052600436106101c2576000357c0100000000000000000000000000000000000000000000000000000000900463ffffffff1680630525cafa146101c757806306fdde0314610255578063081812fc146102e3578063095ea7b31461034657806318160ddd146103885780631f0cbfb9146103b157806323300ca4146103dd57806323b872dd14610432578063298c8c92146104935780632f745c59146104e9578063309d20811461053f57806339ca5ad01461056f5780633a6841381461065b5780633f4ba83a146107d657806342842e0e146107eb5780634f558e791461084c5780634f6ccce7146108875780635c975abb146108be5780636352211e146108eb57806370a082311461094e57806383197ef01461099b5780638456cb59146109b057806385f145c1146109c55780638da5cb5b146109f157806395d89b4114610a465780639e647aac14610ad4578063a22cb46514610baa578063b88d4fde14610bee578063c87b56dd14610c92578063cdf9e33b14610d2e578063d07d1e2b14610d83578063d09ef24114610e23578063e985e9c514610f4e578063f2fde38b14610fbe578063f5074f4114610ff7578063f5f5ba7214611030575b600080fd5b34156101d257600080fd5b6101da6110be565b6040518080602001828103825283818151815260200191508051906020019080838360005b8381101561021a5780820151818401526020810190506101ff565b50505050905090810190601f1680156102475780820380516001836020036101000a031916815260200191505b509250505060405180910390f35b341561026057600080fd5b610268611166565b6040518080602001828103825283818151815260200191508051906020019080838360005b838110156102a857808201518184015260208101905061028d565b50505050905090810190601f1680156102d55780820380516001836020036101000a031916815260200191505b509250505060405180910390f35b34156102ee57600080fd5b610304600480803590602001909190505061120e565b604051808273ffffffffffffffffffffffffffffffffffffffff1673ffffffffffffffffffffffffffffffffffffffff16815260200191505060405180910390f35b341561035157600080fd5b610386600480803573ffffffffffffffffffffffffffffffffffffffff1690602001909190803590602001909190505061124b565b005b341561039357600080fd5b61039b611411565b6040518082815260200191505060405180910390f35b6103c7600480803590602001909190505061141e565b6040518082815260200191505060405180910390f35b34156103e857600080fd5b6103f061184f565b604051808273ffffffffffffffffffffffffffffffffffffffff1673ffffffffffffffffffffffffffffffffffffffff16815260200191505060405180910390f35b341561043d57600080fd5b610491600480803573ffffffffffffffffffffffffffffffffffffffff1690602001909190803573ffffffffffffffffffffffffffffffffffffffff16906020019091908035906020019091905050611879565b005b341561049e57600080fd5b6104e760048080359060200190919080356000191690602001909190803560ff169060200190919080356000191690602001909190803560001916906020019091905050611990565b005b34156104f457600080fd5b610529600480803573ffffffffffffffffffffffffffffffffffffffff16906020019091908035906020019091905050611b44565b6040518082815260200191505060405180910390f35b341561054a57600080fd5b61056d600480803590602001909190803560001916906020019091905050611bbc565b005b341561057a57600080fd5b610659600480803590602001908201803590602001908080601f0160208091040260200160405190810160405280939291908181526020018383808284378201915050505050509190803590602001908201803590602001908080601f0160208091040260200160405190810160405280939291908181526020018383808284378201915050505050509190803590602001908201803590602001908080601f01602080910402602001604051908101604052809392919081815260200183838082843782019150505050505091908035906020019091905050611c8e565b005b341561066657600080fd5b61067c6004808035906020019091905050611ebc565b60405180806020018060200180602001858152602001848103845288818151815260200191508051906020019080838360005b838110156106ca5780820151818401526020810190506106af565b50505050905090810190601f1680156106f75780820380516001836020036101000a031916815260200191505b50848103835287818151815260200191508051906020019080838360005b83811015610730578082015181840152602081019050610715565b50505050905090810190601f16801561075d5780820380516001836020036101000a031916815260200191505b50848103825286818151815260200191508051906020019080838360005b8381101561079657808201518184015260208101905061077b565b50505050905090810190601f1680156107c35780820380516001836020036101000a031916815260200191505b5097505050505050505060405180910390f35b34156107e157600080fd5b6107e961213a565b005b34156107f657600080fd5b61084a600480803573ffffffffffffffffffffffffffffffffffffffff1690602001909190803573ffffffffffffffffffffffffffffffffffffffff169060200190919080359060200190919050506121fa565b005b341561085757600080fd5b61086d6004808035906020019091905050612232565b604051808215151515815260200191505060405180910390f35b341561089257600080fd5b6108a860048080359060200190919050506122a3565b6040518082815260200191505060405180910390f35b34156108c957600080fd5b6108d16122dc565b604051808215151515815260200191505060405180910390f35b34156108f657600080fd5b61090c60048080359060200190919050506122ef565b604051808273ffffffffffffffffffffffffffffffffffffffff1673ffffffffffffffffffffffffffffffffffffffff16815260200191505060405180910390f35b341561095957600080fd5b610985600480803573ffffffffffffffffffffffffffffffffffffffff1690602001909190505061236c565b6040518082815260200191505060405180910390f35b34156109a657600080fd5b6109ae6123f0565b005b34156109bb57600080fd5b6109c3612487565b005b34156109d057600080fd5b6109ef6004808035906020019091908035906020019091905050612548565b005b34156109fc57600080fd5b610a0461267a565b604051808273ffffffffffffffffffffffffffffffffffffffff1673ffffffffffffffffffffffffffffffffffffffff16815260200191505060405180910390f35b3415610a5157600080fd5b610a596126a0565b6040518080602001828103825283818151815260200191508051906020019080838360005b83811015610a99578082015181840152602081019050610a7e565b50505050905090810190601f168015610ac65780820380516001836020036101000a031916815260200191505b509250505060405180910390f35b3415610adf57600080fd5b610b2f600480803590602001908201803590602001908080601f01602080910402602001604051908101604052809392919081815260200183838082843782019150505050505091905050612748565b6040518080602001828103825283818151815260200191508051906020019080838360005b83811015610b6f578082015181840152602081019050610b54565b50505050905090810190601f168015610b9c5780820380516001836020036101000a031916815260200191505b509250505060405180910390f35b3415610bb557600080fd5b610bec600480803573ffffffffffffffffffffffffffffffffffffffff16906020019091908035151590602001909190505061285b565b005b3415610bf957600080fd5b610c90600480803573ffffffffffffffffffffffffffffffffffffffff1690602001909190803573ffffffffffffffffffffffffffffffffffffffff1690602001909190803590602001909190803590602001908201803590602001908080601f01602080910402602001604051908101604052809392919081815260200183838082843782019150505050505091905050612997565b005b3415610c9d57600080fd5b610cb360048080359060200190919050506129d6565b6040518080602001828103825283818151815260200191508051906020019080838360005b83811015610cf3578082015181840152602081019050610cd8565b50505050905090810190601f168015610d205780820380516001836020036101000a031916815260200191505b509250505060405180910390f35b3415610d3957600080fd5b610d41612aa5565b604051808273ffffffffffffffffffffffffffffffffffffffff1673ffffffffffffffffffffffffffffffffffffffff16815260200191505060405180910390f35b3415610d8e57600080fd5b610e21600480803590602001908201803590602001908080601f0160208091040260200160405190810160405280939291908181526020018383808284378201915050505050509190803590602001908201803590602001908080601f01602080910402602001604051908101604052809392919081815260200183838082843782019150505050505091905050612acf565b005b3415610e2e57600080fd5b610e446004808035906020019091905050612cf4565b604051808060200180602001868152602001858152602001846005811115610e6857fe5b60ff168152602001838103835288818151815260200191508051906020019080838360005b83811015610ea8578082015181840152602081019050610e8d565b50505050905090810190601f168015610ed55780820380516001836020036101000a031916815260200191505b50838103825287818151815260200191508051906020019080838360005b83811015610f0e578082015181840152602081019050610ef3565b50505050905090810190601f168015610f3b5780820380516001836020036101000a031916815260200191505b5097505050505050505060405180910390f35b3415610f5957600080fd5b610fa4600480803573ffffffffffffffffffffffffffffffffffffffff1690602001909190803573ffffffffffffffffffffffffffffffffffffffff16906020019091905050612f0d565b604051808215151515815260200191505060405180910390f35b3415610fc957600080fd5b610ff5600480803573ffffffffffffffffffffffffffffffffffffffff16906020019091905050612fa1565b005b341561100257600080fd5b61102e600480803573ffffffffffffffffffffffffffffffffffffffff169060200190919050506130f9565b005b341561103b57600080fd5b61104361316e565b6040518080602001828103825283818151815260200191508051906020019080838360005b83811015611083578082015181840152602081019050611068565b50505050905090810190601f1680156110b05780820380516001836020036101000a031916815260200191505b509250505060405180910390f35b6110c6613e70565b600d8054600181600116156101000203166002900480601f01602080910402602001604051908101604052809291908181526020018280546001816001161561010002031660029004801561115c5780601f106111315761010080835404028352916020019161115c565b820191906000526020600020905b81548152906001019060200180831161113f57829003601f168201915b5050505050905090565b61116e613e70565b60048054600181600116156101000203166002900480601f0160208091040260200160405190810160405280929190818152602001828054600181600116156101000203166002900480156112045780601f106111d957610100808354040283529160200191611204565b820191906000526020600020905b8154815290600101906020018083116111e757829003601f168201915b5050505050905090565b60006001600083815260200190815260200160002060009054906101000a900473ffffffffffffffffffffffffffffffffffffffff169050919050565b6000611256826122ef565b90508073ffffffffffffffffffffffffffffffffffffffff168373ffffffffffffffffffffffffffffffffffffffff161415151561129357600080fd5b8073ffffffffffffffffffffffffffffffffffffffff163373ffffffffffffffffffffffffffffffffffffffff1614806112d357506112d28133612f0d565b5b15156112de57600080fd5b600073ffffffffffffffffffffffffffffffffffffffff166112ff8361120e565b73ffffffffffffffffffffffffffffffffffffffff1614158061134f5750600073ffffffffffffffffffffffffffffffffffffffff168373ffffffffffffffffffffffffffffffffffffffff1614155b1561140c57826001600084815260200190815260200160002060006101000a81548173ffffffffffffffffffffffffffffffffffffffff021916908373ffffffffffffffffffffffffffffffffffffffff1602179055508273ffffffffffffffffffffffffffffffffffffffff168173ffffffffffffffffffffffffffffffffffffffff167f8c5be1e5ebec7d5bd14f71427d1e84f3dd0314c0f7b2291e5b200ac8c7c3b925846040518082815260200191505060405180910390a35b505050565b6000600880549050905090565b6000611428613e84565b6000601060009054906101000a900473ffffffffffffffffffffffffffffffffffffffff1673ffffffffffffffffffffffffffffffffffffffff163373ffffffffffffffffffffffffffffffffffffffff1614151561148657600080fd5b600a600f8054905014151561149a57600080fd5b6013848154811015156114a957fe5b906000526020600020906004020160030154341415156114c857600080fd5b6060604051908101604052806013868154811015156114e357fe5b906000526020600020906004020160806040519081016040529081600082018054600181600116156101000203166002900480601f0160208091040260200160405190810160405280929190818152602001828054600181600116156101000203166002900480156115965780601f1061156b57610100808354040283529160200191611596565b820191906000526020600020905b81548152906001019060200180831161157957829003601f168201915b50505050508152602001600182018054600181600116156101000203166002900480601f0160208091040260200160405190810160405280929190818152602001828054600181600116156101000203166002900480156116385780601f1061160d57610100808354040283529160200191611638565b820191906000526020600020905b81548152906001019060200180831161161b57829003601f168201915b50505050508152602001600282018054600181600116156101000203166002900480601f0160208091040260200160405190810160405280929190818152602001828054600181600116156101000203166002900480156116da5780601f106116af576101008083540402835291602001916116da565b820191906000526020600020905b8154815290600101906020018083116116bd57829003601f168201915b505050505081526020016003820154815250508152602001600060058111156116ff57fe5b81526020014281525091506001601480548060010182816117209190613eb7565b91600052602060002090600602016000859091909150600082015181600001600082015181600001908051906020019061175b929190613ee9565b506020820151816001019080519060200190611778929190613ee9565b506040820151816002019080519060200190611795929190613ee9565b5060608201518160030155505060208201518160040160006101000a81548160ff021916908360058111156117c657fe5b0217905550604082015181600501555050039050611806601160009054906101000a900473ffffffffffffffffffffffffffffffffffffffff1682613216565b7ff1d542d1e8d64ae8d9aa6c51c4cecbd3ca17548d2800e0c55cfd76d35cc31a1e8442604051808381526020018281526020019250505060405180910390a18092505050919050565b6000601160009054906101000a900473ffffffffffffffffffffffffffffffffffffffff16905090565b80611884338261326a565b151561188f57600080fd5b600073ffffffffffffffffffffffffffffffffffffffff168473ffffffffffffffffffffffffffffffffffffffff16141515156118cb57600080fd5b600073ffffffffffffffffffffffffffffffffffffffff168373ffffffffffffffffffffffffffffffffffffffff161415151561190757600080fd5b61191184836132ff565b61191b8483613468565b6119258383613683565b8273ffffffffffffffffffffffffffffffffffffffff168473ffffffffffffffffffffffffffffffffffffffff167fddf252ad1be2c89b69c2b068fc378daa952ba7f163c4a11628f55a4df523b3ef846040518082815260200191505060405180910390a350505050565b600a600f805490501415156119a457600080fd5b601060009054906101000a900473ffffffffffffffffffffffffffffffffffffffff1673ffffffffffffffffffffffffffffffffffffffff163373ffffffffffffffffffffffffffffffffffffffff16141515611a0057600080fd5b8360001916601260008781526020019081526020016000205460001916141515611a2957600080fd5b611a58601060009054906101000a900473ffffffffffffffffffffffffffffffffffffffff1685858585613757565b1515611a6357600080fd5b6004601486815481101515611a7457fe5b906000526020600020906006020160040160006101000a81548160ff02191690836005811115611aa057fe5b0217905550611ad1601160009054906101000a900473ffffffffffffffffffffffffffffffffffffffff1686613468565b611afd601060009054906101000a900473ffffffffffffffffffffffffffffffffffffffff1686613683565b611b0685613819565b7fd874b613099af8e7e8d6713dd132e17582243caf64e06907af5ccc0475408fd3856040518082815260200191505060405180910390a15050505050565b6000611b4f8361236c565b82101515611b5c57600080fd5b600660008473ffffffffffffffffffffffffffffffffffffffff1673ffffffffffffffffffffffffffffffffffffffff16815260200190815260200160002082815481101515611ba857fe5b906000526020600020900154905092915050565b600a600f80549050141515611bd057600080fd5b601160009054906101000a900473ffffffffffffffffffffffffffffffffffffffff1673ffffffffffffffffffffffffffffffffffffffff163373ffffffffffffffffffffffffffffffffffffffff16141515611c2c57600080fd5b6003601483815481101515611c3d57fe5b906000526020600020906006020160040160006101000a81548160ff02191690836005811115611c6957fe5b0217905550806012600084815260200190815260200160002081600019169055505050565b611c96613f69565b601160009054906101000a900473ffffffffffffffffffffffffffffffffffffffff1673ffffffffffffffffffffffffffffffffffffffff163373ffffffffffffffffffffffffffffffffffffffff16141515611cf257600080fd5b60806040519081016040528086815260200185815260200184815260200183815250905060138054806001018281611d2a9190613fa4565b916000526020600020906004020160008390919091506000820151816000019080519060200190611d5c929190613ee9565b506020820151816001019080519060200190611d79929190613ee9565b506040820151816002019080519060200190611d96929190613ee9565b50606082015181600301555050507fdf087dd188026a4df1138ae7f5d804f9c9d1fccb66fdd27ee4c44a65ccb1d319858484604051808060200180602001848152602001838103835286818151815260200191508051906020019080838360005b83811015611e12578082015181840152602081019050611df7565b50505050905090810190601f168015611e3f5780820380516001836020036101000a031916815260200191505b50838103825285818151815260200191508051906020019080838360005b83811015611e78578082015181840152602081019050611e5d565b50505050905090810190601f168015611ea55780820380516001836020036101000a031916815260200191505b509550505050505060405180910390a15050505050565b611ec4613e70565b611ecc613e70565b611ed4613e70565b6000601385815481101515611ee557fe5b9060005260206000209060040201600001601386815481101515611f0557fe5b9060005260206000209060040201600101601387815481101515611f2557fe5b9060005260206000209060040201600201601388815481101515611f4557fe5b906000526020600020906004020160030154838054600181600116156101000203166002900480601f016020809104026020016040519081016040528092919081815260200182805460018160011615610100020316600290048015611fec5780601f10611fc157610100808354040283529160200191611fec565b820191906000526020600020905b815481529060010190602001808311611fcf57829003601f168201915b50505050509350828054600181600116156101000203166002900480601f0160208091040260200160405190810160405280929190818152602001828054600181600116156101000203166002900480156120885780601f1061205d57610100808354040283529160200191612088565b820191906000526020600020905b81548152906001019060200180831161206b57829003601f168201915b50505050509250818054600181600116156101000203166002900480601f0160208091040260200160405190810160405280929190818152602001828054600181600116156101000203166002900480156121245780601f106120f957610100808354040283529160200191612124565b820191906000526020600020905b81548152906001019060200180831161210757829003601f168201915b5050505050915093509350935093509193509193565b600b60009054906101000a900473ffffffffffffffffffffffffffffffffffffffff1673ffffffffffffffffffffffffffffffffffffffff163373ffffffffffffffffffffffffffffffffffffffff1614151561219657600080fd5b600b60149054906101000a900460ff1615156121b157600080fd5b6000600b60146101000a81548160ff0219169083151502179055507f7805862f689e2f13df9f062ff482ad3ad112aca9e0847911ed832e158c525b3360405160405180910390a1565b80612205338261326a565b151561221057600080fd5b61222c8484846020604051908101604052806000815250612997565b50505050565b60008060008084815260200190815260200160002060009054906101000a900473ffffffffffffffffffffffffffffffffffffffff169050600073ffffffffffffffffffffffffffffffffffffffff168173ffffffffffffffffffffffffffffffffffffffff161415915050919050565b60006122ad611411565b821015156122ba57600080fd5b6008828154811015156122c957fe5b9060005260206000209001549050919050565b600b60149054906101000a900460ff1681565b60008060008084815260200190815260200160002060009054906101000a900473ffffffffffffffffffffffffffffffffffffffff169050600073ffffffffffffffffffffffffffffffffffffffff168173ffffffffffffffffffffffffffffffffffffffff161415151561236357600080fd5b80915050919050565b60008073ffffffffffffffffffffffffffffffffffffffff168273ffffffffffffffffffffffffffffffffffffffff16141515156123a957600080fd5b600260008373ffffffffffffffffffffffffffffffffffffffff1673ffffffffffffffffffffffffffffffffffffffff168152602001908152602001600020549050919050565b600b60009054906101000a900473ffffffffffffffffffffffffffffffffffffffff1673ffffffffffffffffffffffffffffffffffffffff163373ffffffffffffffffffffffffffffffffffffffff1614151561244c57600080fd5b600b60009054906101000a900473ffffffffffffffffffffffffffffffffffffffff1673ffffffffffffffffffffffffffffffffffffffff16ff5b600b60009054906101000a900473ffffffffffffffffffffffffffffffffffffffff1673ffffffffffffffffffffffffffffffffffffffff163373ffffffffffffffffffffffffffffffffffffffff161415156124e357600080fd5b600b60149054906101000a900460ff161515156124ff57600080fd5b6001600b60146101000a81548160ff0219169083151502179055507f6985a02210a168e66602d3235cb6db0e70f92b3ba4d376a33c0f3d9434bff62560405160405180910390a1565b600a600f8054905014151561255c57600080fd5b601160009054906101000a900473ffffffffffffffffffffffffffffffffffffffff1673ffffffffffffffffffffffffffffffffffffffff163373ffffffffffffffffffffffffffffffffffffffff161415156125b857600080fd5b80600260058111156125c657fe5b101580156125e05750600160058111156125dc57fe5b8110155b15156125eb57600080fd5b8060058111156125f757fe5b60148381548110151561260657fe5b906000526020600020906006020160040160006101000a81548160ff0219169083600581111561263257fe5b02179055507fd432bc214507012b549be455591444ece6efc9df290a656c7ae372e9770fa9118282604051808381526020018281526020019250505060405180910390a15050565b600b60009054906101000a900473ffffffffffffffffffffffffffffffffffffffff1681565b6126a8613e70565b60058054600181600116156101000203166002900480601f01602080910402602001604051908101604052809291908181526020018280546001816001161561010002031660029004801561273e5780601f106127135761010080835404028352916020019161273e565b820191906000526020600020905b81548152906001019060200180831161272157829003601f168201915b5050505050905090565b612750613e70565b600e826040518082805190602001908083835b6020831015156127885780518252602082019150602081019050602083039250612763565b6001836020036101000a03801982511681845116808217855250505050505090500191505090815260200160405180910390208054600181600116156101000203166002900480601f01602080910402602001604051908101604052809291908181526020018280546001816001161561010002031660029004801561284f5780601f106128245761010080835404028352916020019161284f565b820191906000526020600020905b81548152906001019060200180831161283257829003601f168201915b50505050509050919050565b3373ffffffffffffffffffffffffffffffffffffffff168273ffffffffffffffffffffffffffffffffffffffff161415151561289657600080fd5b80600360003373ffffffffffffffffffffffffffffffffffffffff1673ffffffffffffffffffffffffffffffffffffffff16815260200190815260200160002060008473ffffffffffffffffffffffffffffffffffffffff1673ffffffffffffffffffffffffffffffffffffffff16815260200190815260200160002060006101000a81548160ff0219169083151502179055508173ffffffffffffffffffffffffffffffffffffffff163373ffffffffffffffffffffffffffffffffffffffff167f17307eab39ab6107e8899845ad3d59bd9653f200f220920489ca2b5937696c3183604051808215151515815260200191505060405180910390a35050565b816129a2338261326a565b15156129ad57600080fd5b6129b8858585611879565b6129c48585858561391a565b15156129cf57600080fd5b5050505050565b6129de613e70565b6129e782612232565b15156129f257600080fd5b600a60008381526020019081526020016000208054600181600116156101000203166002900480601f016020809104026020016040519081016040528092919081815260200182805460018160011615610100020316600290048015612a995780601f10612a6e57610100808354040283529160200191612a99565b820191906000526020600020905b815481529060010190602001808311612a7c57829003601f168201915b50505050509050919050565b6000601060009054906101000a900473ffffffffffffffffffffffffffffffffffffffff16905090565b600b60009054906101000a900473ffffffffffffffffffffffffffffffffffffffff1673ffffffffffffffffffffffffffffffffffffffff163373ffffffffffffffffffffffffffffffffffffffff16141515612b2b57600080fd5b80600e836040518082805190602001908083835b602083101515612b645780518252602082019150602081019050602083039250612b3f565b6001836020036101000a03801982511681845116808217855250505050505090500191505090815260200160405180910390209080519060200190612baa929190613fd6565b50600f8054806001018281612bbf9190614056565b916000526020600020900160008490919091509080519060200190612be5929190613fd6565b50507f5ad69516aee2b1d29a4c660228ff067db85c427a079dff23d38097ae0acdde068282604051808060200180602001838103835285818151815260200191508051906020019080838360005b83811015612c4e578082015181840152602081019050612c33565b50505050905090810190601f168015612c7b5780820380516001836020036101000a031916815260200191505b50838103825284818151815260200191508051906020019080838360005b83811015612cb4578082015181840152602081019050612c99565b50505050905090810190601f168015612ce15780820380516001836020036101000a031916815260200191505b5094505050505060405180910390a15050565b612cfc613e70565b612d04613e70565b6000806000601486815481101515612d1857fe5b9060005260206000209060060201600001600001601487815481101515612d3b57fe5b9060005260206000209060060201600001600201601488815481101515612d5e57fe5b906000526020600020906006020160000160030154601489815481101515612d8257fe5b90600052602060002090600602016005015460148a815481101515612da357fe5b906000526020600020906006020160040160009054906101000a900460ff16848054600181600116156101000203166002900480601f016020809104026020016040519081016040528092919081815260200182805460018160011615610100020316600290048015612e575780601f10612e2c57610100808354040283529160200191612e57565b820191906000526020600020905b815481529060010190602001808311612e3a57829003601f168201915b50505050509450838054600181600116156101000203166002900480601f016020809104026020016040519081016040528092919081815260200182805460018160011615610100020316600290048015612ef35780601f10612ec857610100808354040283529160200191612ef3565b820191906000526020600020905b815481529060010190602001808311612ed657829003601f168201915b505050505093509450945094509450945091939590929450565b6000600360008473ffffffffffffffffffffffffffffffffffffffff1673ffffffffffffffffffffffffffffffffffffffff16815260200190815260200160002060008373ffffffffffffffffffffffffffffffffffffffff1673ffffffffffffffffffffffffffffffffffffffff16815260200190815260200160002060009054906101000a900460ff16905092915050565b600b60009054906101000a900473ffffffffffffffffffffffffffffffffffffffff1673ffffffffffffffffffffffffffffffffffffffff163373ffffffffffffffffffffffffffffffffffffffff16141515612ffd57600080fd5b600073ffffffffffffffffffffffffffffffffffffffff168173ffffffffffffffffffffffffffffffffffffffff161415151561303957600080fd5b8073ffffffffffffffffffffffffffffffffffffffff16600b60009054906101000a900473ffffffffffffffffffffffffffffffffffffffff1673ffffffffffffffffffffffffffffffffffffffff167f8be0079c531659141344cd1fd0a4f28419497f9722a3daafe3b4186f6b6457e060405160405180910390a380600b60006101000a81548173ffffffffffffffffffffffffffffffffffffffff021916908373ffffffffffffffffffffffffffffffffffffffff16021790555050565b600b60009054906101000a900473ffffffffffffffffffffffffffffffffffffffff1673ffffffffffffffffffffffffffffffffffffffff163373ffffffffffffffffffffffffffffffffffffffff1614151561315557600080fd5b8073ffffffffffffffffffffffffffffffffffffffff16ff5b613176613e70565b600c8054600181600116156101000203166002900480601f01602080910402602001604051908101604052809291908181526020018280546001816001161561010002031660029004801561320c5780601f106131e15761010080835404028352916020019161320c565b820191906000526020600020905b8154815290600101906020018083116131ef57829003601f168201915b5050505050905090565b6132208282613af0565b6008805490506009600083815260200190815260200160002081905550600880548060010182816132519190614082565b9160005260206000209001600083909190915055505050565b600080613276836122ef565b90508073ffffffffffffffffffffffffffffffffffffffff168473ffffffffffffffffffffffffffffffffffffffff1614806132e557508373ffffffffffffffffffffffffffffffffffffffff166132cd8461120e565b73ffffffffffffffffffffffffffffffffffffffff16145b806132f657506132f58185612f0d565b5b91505092915050565b8173ffffffffffffffffffffffffffffffffffffffff1661331f826122ef565b73ffffffffffffffffffffffffffffffffffffffff1614151561334157600080fd5b600073ffffffffffffffffffffffffffffffffffffffff166001600083815260200190815260200160002060009054906101000a900473ffffffffffffffffffffffffffffffffffffffff1673ffffffffffffffffffffffffffffffffffffffff161415156134645760006001600083815260200190815260200160002060006101000a81548173ffffffffffffffffffffffffffffffffffffffff021916908373ffffffffffffffffffffffffffffffffffffffff160217905550600073ffffffffffffffffffffffffffffffffffffffff168273ffffffffffffffffffffffffffffffffffffffff167f8c5be1e5ebec7d5bd14f71427d1e84f3dd0314c0f7b2291e5b200ac8c7c3b925836040518082815260200191505060405180910390a35b5050565b60008060006134778585613ba0565b600760008581526020019081526020016000205492506134e36001600660008873ffffffffffffffffffffffffffffffffffffffff1673ffffffffffffffffffffffffffffffffffffffff16815260200190815260200160002080549050613cce90919063ffffffff16565b9150600660008673ffffffffffffffffffffffffffffffffffffffff1673ffffffffffffffffffffffffffffffffffffffff1681526020019081526020016000208281548110151561353157fe5b906000526020600020900154905080600660008773ffffffffffffffffffffffffffffffffffffffff1673ffffffffffffffffffffffffffffffffffffffff1681526020019081526020016000208481548110151561358c57fe5b9060005260206000209001819055506000600660008773ffffffffffffffffffffffffffffffffffffffff1673ffffffffffffffffffffffffffffffffffffffff168152602001908152602001600020838154811015156135e957fe5b906000526020600020900181905550600660008673ffffffffffffffffffffffffffffffffffffffff1673ffffffffffffffffffffffffffffffffffffffff16815260200190815260200160002080548091906001900361364a91906140ae565b50600060076000868152602001908152602001600020819055508260076000838152602001908152602001600020819055505050505050565b600061368f8383613ce7565b600660008473ffffffffffffffffffffffffffffffffffffffff1673ffffffffffffffffffffffffffffffffffffffff168152602001908152602001600020805490509050600660008473ffffffffffffffffffffffffffffffffffffffff1673ffffffffffffffffffffffffffffffffffffffff16815260200190815260200160002080548060010182816137259190614082565b916000526020600020900160008490919091505550806007600084815260200190815260200160002081905550505050565b60008573ffffffffffffffffffffffffffffffffffffffff16600186868686604051600081526020016040526000604051602001526040518085600019166000191681526020018460ff1660ff16815260200183600019166000191681526020018260001916600019168152602001945050505050602060405160208103908084039060008661646e5a03f115156137ee57600080fd5b50506020604051035173ffffffffffffffffffffffffffffffffffffffff1614905095945050505050565b601160009054906101000a900473ffffffffffffffffffffffffffffffffffffffff1673ffffffffffffffffffffffffffffffffffffffff166108fc60148381548110151561386457fe5b9060005260206000209060060201600001600301549081150290604051600060405180830381858888f19350505050151561389e57600080fd5b60056014828154811015156138af57fe5b906000526020600020906006020160040160006101000a81548160ff021916908360058111156138db57fe5b02179055507f0ffc50e9307fb2a4c6b030ccd0129cfae0b9cca37264f558d91c49a16f5ff03b816040518082815260200191505060405180910390a150565b60008061393c8573ffffffffffffffffffffffffffffffffffffffff16613e3f565b151561394b5760019150613ae7565b8473ffffffffffffffffffffffffffffffffffffffff1663f0b9e5ba8786866000604051602001526040518463ffffffff167c0100000000000000000000000000000000000000000000000000000000028152600401808473ffffffffffffffffffffffffffffffffffffffff1673ffffffffffffffffffffffffffffffffffffffff16815260200183815260200180602001828103825283818151815260200191508051906020019080838360005b83811015613a165780820151818401526020810190506139fb565b50505050905090810190601f168015613a435780820380516001836020036101000a031916815260200191505b50945050505050602060405180830381600087803b1515613a6357600080fd5b6102c65a03f11515613a7457600080fd5b50505060405180519050905063f0b9e5ba7c0100000000000000000000000000000000000000000000000000000000027bffffffffffffffffffffffffffffffffffffffffffffffffffffffff1916817bffffffffffffffffffffffffffffffffffffffffffffffffffffffff19161491505b50949350505050565b600073ffffffffffffffffffffffffffffffffffffffff168273ffffffffffffffffffffffffffffffffffffffff1614151515613b2c57600080fd5b613b368282613683565b8173ffffffffffffffffffffffffffffffffffffffff16600073ffffffffffffffffffffffffffffffffffffffff167fddf252ad1be2c89b69c2b068fc378daa952ba7f163c4a11628f55a4df523b3ef836040518082815260200191505060405180910390a35050565b8173ffffffffffffffffffffffffffffffffffffffff16613bc0826122ef565b73ffffffffffffffffffffffffffffffffffffffff16141515613be257600080fd5b613c356001600260008573ffffffffffffffffffffffffffffffffffffffff1673ffffffffffffffffffffffffffffffffffffffff16815260200190815260200160002054613cce90919063ffffffff16565b600260008473ffffffffffffffffffffffffffffffffffffffff1673ffffffffffffffffffffffffffffffffffffffff16815260200190815260200160002081905550600080600083815260200190815260200160002060006101000a81548173ffffffffffffffffffffffffffffffffffffffff021916908373ffffffffffffffffffffffffffffffffffffffff1602179055505050565b6000828211151515613cdc57fe5b818303905092915050565b600073ffffffffffffffffffffffffffffffffffffffff1660008083815260200190815260200160002060009054906101000a900473ffffffffffffffffffffffffffffffffffffffff1673ffffffffffffffffffffffffffffffffffffffff16141515613d5457600080fd5b8160008083815260200190815260200160002060006101000a81548173ffffffffffffffffffffffffffffffffffffffff021916908373ffffffffffffffffffffffffffffffffffffffff160217905550613df86001600260008573ffffffffffffffffffffffffffffffffffffffff1673ffffffffffffffffffffffffffffffffffffffff16815260200190815260200160002054613e5290919063ffffffff16565b600260008473ffffffffffffffffffffffffffffffffffffffff1673ffffffffffffffffffffffffffffffffffffffff168152602001908152602001600020819055505050565b600080823b905060008111915050919050565b6000808284019050838110151515613e6657fe5b8091505092915050565b602060405190810160405280600081525090565b60c060405190810160405280613e986140da565b815260200160006005811115613eaa57fe5b8152602001600081525090565b815481835581811511613ee457600602816006028360005260206000209182019101613ee39190614115565b5b505050565b828054600181600116156101000203166002900490600052602060002090601f016020900481019282601f10613f2a57805160ff1916838001178555613f58565b82800160010185558215613f58579182015b82811115613f57578251825591602001919060010190613f3c565b5b509050613f65919061418f565b5090565b608060405190810160405280613f7d6141b4565b8152602001613f8a6141b4565b8152602001613f976141b4565b8152602001600081525090565b815481835581811511613fd157600402816004028360005260206000209182019101613fd091906141c8565b5b505050565b828054600181600116156101000203166002900490600052602060002090601f016020900481019282601f1061401757805160ff1916838001178555614045565b82800160010185558215614045579182015b82811115614044578251825591602001919060010190614029565b5b509050614052919061418f565b5090565b81548183558181151161407d5781836000526020600020918201910161407c919061421f565b5b505050565b8154818355818115116140a9578183600052602060002091820191016140a8919061418f565b5b505050565b8154818355818115116140d5578183600052602060002091820191016140d4919061418f565b5b505050565b6080604051908101604052806140ee6141b4565b81526020016140fb6141b4565b81526020016141086141b4565b8152602001600081525090565b61418c91905b8082111561418857600080820160008082016000614139919061424b565b600182016000614149919061424b565b600282016000614159919061424b565b600382016000905550506004820160006101000a81549060ff021916905560058201600090555060060161411b565b5090565b90565b6141b191905b808211156141ad576000816000905550600101614195565b5090565b90565b602060405190810160405280600081525090565b61421c91905b8082111561421857600080820160006141e7919061424b565b6001820160006141f7919061424b565b600282016000614207919061424b565b6003820160009055506004016141ce565b5090565b90565b61424891905b80821115614244576000818161423b919061424b565b50600101614225565b5090565b90565b50805460018160011615610100020316600290046000825580601f106142715750614290565b601f01602090049060005260206000209081019061428f919061418f565b5b505600a165627a7a7230582064ce0592b8571e381b0af256ee199b35754b72c73c1c025ddf38501de1e53fff0029",
  "source": "pragma solidity ^0.4.19;\n\nimport \"zeppelin-solidity/contracts/ownership/Ownable.sol\";\nimport \"zeppelin-solidity/contracts/lifecycle/Destructible.sol\";\nimport \"zeppelin-solidity/contracts/token/ERC721/ERC721Token.sol\";\nimport \"zeppelin-solidity/contracts/math/SafeMath.sol\";\nimport \"zeppelin-solidity/contracts/AddressUtils.sol\";\nimport \"zeppelin-solidity/contracts/lifecycle/Pausable.sol\";\n\n\ncontract NIL2 is ERC721Token, Ownable, Pausable, Destructible {\n\n    using SafeMath for uint256;\n    using AddressUtils for address;\n\n    string internal contractName_;\n    string internal contractCID_;\n    mapping (string => string) parameters_;\n    string[] parametersKeys_;\n    address internal byuer_;\n    address internal supplier_;\n\n    enum goodState {Ordered, Manufacturing, Manufactured, Delivery, Delivered, Payed}\n\n    event GoodAdded(string name, string CID, uint price);\n    event ParameterAdded(string param, string value);\n    event ByuerMadeOrder(uint goodID, uint timestamp);\n    event SupplierUpdatedOrderState(uint orderID, uint orderState);\n    event ByuerConfirmedDelivery(uint orderID);\n    event ByuerTransferPayment(uint orderID);\n\n    modifier onlySupplier() {\n        require(msg.sender == supplier_);\n        _;\n    }\n\n    modifier onlyByuer() {\n        require(msg.sender == byuer_);\n        _;\n    }\n\n    modifier contractDataFilled() {\n        require(parametersKeys_.length == 10);\n        _;\n    }\n\n    struct GoodInfo {\n        string name;\n        string description;\n        string CID;\n        uint price;\n    }\n\n    struct Order {\n        GoodInfo good;\n        goodState state;\n        uint orderTimestamp;\n    }\n\n    mapping (uint => bytes32) ordersMessages;\n\n    GoodInfo[] internal supplierGoods;\n    Order[] internal orders;\n\n    function NIL2(\n        string _contractName,\n        string _supplierSymbol,\n        string _contractCID,\n        address _byuer,\n        address _supplier\n    )\n        ERC721Token(_contractName, _supplierSymbol)\n        public\n        payable\n    {\n        contractName_ = _contractName;\n        contractCID_ = _contractCID;\n        byuer_ = _byuer;\n        supplier_ = _supplier;\n    }\n\n    function getContractName()\n        public\n        view\n        returns (string name)\n    {\n        return contractName_;\n    }\n\n    function getContractCID()\n        public\n        view\n        returns (string CID)\n    {\n        return contractCID_;\n    }\n\n    function getByuer()\n        public\n        view\n        returns (address byuer)\n    {\n        return byuer_;\n    }\n\n    function getSupplier()\n        public\n        view\n        returns (address supplier)\n    {\n        return supplier_;\n    }\n\n    function getParameter(string _param)\n        public\n        view\n        returns (string value)\n    {\n        return parameters_[_param];\n    }\n\n    function addContractParameter(string param_, string value_)\n        public\n        onlyOwner\n    {\n        parameters_[param_] = value_;\n        parametersKeys_.push(param_);\n\n        ParameterAdded(param_, value_);\n    }\n\n    function addGood(string name_, string description_, string CID_, uint price_)\n        public\n        onlySupplier\n    {\n        GoodInfo memory good = (GoodInfo(\n        {\n            name: name_,\n            description: description_,\n            CID: CID_,\n            price: price_\n        }));\n        supplierGoods.push(good);\n\n        GoodAdded(name_, CID_, price_);\n    }\n\n    function getGoodInfo(uint _goodID)\n        public\n        view\n        returns(string, string, string, uint)\n    {\n        return (\n            supplierGoods[_goodID].name,\n            supplierGoods[_goodID].description,\n            supplierGoods[_goodID].CID,\n            supplierGoods[_goodID].price\n        );\n    }\n\n    function makeOrder(uint _goodID)\n        public\n        payable\n        onlyByuer\n        contractDataFilled\n        returns (uint ID)\n    {\n        require(msg.value == supplierGoods[_goodID].price);\n\n        Order memory order = (Order(\n        {\n            good: supplierGoods[_goodID],\n            state: goodState.Ordered,\n            orderTimestamp: block.timestamp\n        }));\n\n        uint orderID = orders.push(order) - 1;\n        _mint(supplier_, orderID);\n\n        ByuerMadeOrder(_goodID, block.timestamp);\n\n        return orderID;\n    }\n\n    function getOrder(uint _orderID)\n        public\n        view\n        returns (string, string, uint, uint, goodState)\n    {\n        return(\n            orders[_orderID].good.name,\n            orders[_orderID].good.CID,\n            orders[_orderID].good.price,\n            orders[_orderID].orderTimestamp,\n            orders[_orderID].state\n        );\n    }\n\n    function supplierUpdateManufacturingState(uint _orderID, uint _orderState)\n        public\n        contractDataFilled\n        onlySupplier\n    {\n        require(uint(goodState.Manufactured) >= _orderState && _orderState >= uint(goodState.Manufacturing));\n        orders[_orderID].state = goodState(_orderState);\n\n        SupplierUpdatedOrderState(_orderID, _orderState);\n    }\n\n    function supplierStartDelivery(uint _orderID, bytes32 _message)\n        public\n        contractDataFilled\n        onlySupplier\n    {\n        orders[_orderID].state = goodState.Delivery;\n        ordersMessages[_orderID] = _message;\n    }\n\n    function byuerConfirmedDelivery(uint _orderID, bytes32 _hash, uint8 _v, bytes32 _r, bytes32 _s)\n        public\n        contractDataFilled\n        onlyByuer\n    {\n        require(ordersMessages[_orderID] == _hash);\n        require(verifyByuerSignature(byuer_, _hash, _v, _r, _s));\n\n        orders[_orderID].state = goodState.Delivered;\n\n        super.removeTokenFrom(supplier_, _orderID);\n        super.addTokenTo(byuer_, _orderID);\n\n        transferPaymentToSupplier(_orderID);\n\n        ByuerConfirmedDelivery(_orderID);\n    }\n\n    function verifyByuerSignature(address p, bytes32 hash, uint8 v, bytes32 r, bytes32 s)\n        private\n        constant\n        returns(bool)\n    {\n        return ecrecover(hash, v, r, s) == p;\n    }\n\n    function transferPaymentToSupplier(uint _orderID)\n        private\n    {\n        supplier_.transfer(orders[_orderID].good.price);\n        orders[_orderID].state = goodState.Payed;\n        ByuerTransferPayment(_orderID);\n    }\n}\n",
  "sourcePath": "/Users/litvintech/Projects/NIL-2/contracts/NIL2.sol",
  "compiler": {
    "name": "solc",
    "version": "0.4.19+commit.c4cbbb05.Emscripten.clang"
  },
  "schemaVersion": "1.0.1",
  "updatedAt": "2018-04-21T12:20:48.966Z"
}