{
  "contractName": "NIL2",
  "abi": [
    {
      "constant": true,
      "inputs": [],
      "name": "name",
      "outputs": [
        {
          "name": "",
          "type": "string"
        }
      ],
      "payable": false,
      "stateMutability": "view",
      "type": "function"
    },
    {
      "constant": true,
      "inputs": [
        {
          "name": "_tokenId",
          "type": "uint256"
        }
      ],
      "name": "getApproved",
      "outputs": [
        {
          "name": "",
          "type": "address"
        }
      ],
      "payable": false,
      "stateMutability": "view",
      "type": "function"
    },
    {
      "constant": false,
      "inputs": [
        {
          "name": "_to",
          "type": "address"
        },
        {
          "name": "_tokenId",
          "type": "uint256"
        }
      ],
      "name": "approve",
      "outputs": [],
      "payable": false,
      "stateMutability": "nonpayable",
      "type": "function"
    },
    {
      "constant": true,
      "inputs": [],
      "name": "totalSupply",
      "outputs": [
        {
          "name": "",
          "type": "uint256"
        }
      ],
      "payable": false,
      "stateMutability": "view",
      "type": "function"
    },
    {
      "constant": false,
      "inputs": [
        {
          "name": "_from",
          "type": "address"
        },
        {
          "name": "_to",
          "type": "address"
        },
        {
          "name": "_tokenId",
          "type": "uint256"
        }
      ],
      "name": "transferFrom",
      "outputs": [],
      "payable": false,
      "stateMutability": "nonpayable",
      "type": "function"
    },
    {
      "constant": true,
      "inputs": [
        {
          "name": "_owner",
          "type": "address"
        },
        {
          "name": "_index",
          "type": "uint256"
        }
      ],
      "name": "tokenOfOwnerByIndex",
      "outputs": [
        {
          "name": "",
          "type": "uint256"
        }
      ],
      "payable": false,
      "stateMutability": "view",
      "type": "function"
    },
    {
      "constant": false,
      "inputs": [],
      "name": "unpause",
      "outputs": [],
      "payable": false,
      "stateMutability": "nonpayable",
      "type": "function"
    },
    {
      "constant": false,
      "inputs": [
        {
          "name": "_from",
          "type": "address"
        },
        {
          "name": "_to",
          "type": "address"
        },
        {
          "name": "_tokenId",
          "type": "uint256"
        }
      ],
      "name": "safeTransferFrom",
      "outputs": [],
      "payable": false,
      "stateMutability": "nonpayable",
      "type": "function"
    },
    {
      "constant": true,
      "inputs": [
        {
          "name": "_tokenId",
          "type": "uint256"
        }
      ],
      "name": "exists",
      "outputs": [
        {
          "name": "",
          "type": "bool"
        }
      ],
      "payable": false,
      "stateMutability": "view",
      "type": "function"
    },
    {
      "constant": true,
      "inputs": [
        {
          "name": "_index",
          "type": "uint256"
        }
      ],
      "name": "tokenByIndex",
      "outputs": [
        {
          "name": "",
          "type": "uint256"
        }
      ],
      "payable": false,
      "stateMutability": "view",
      "type": "function"
    },
    {
      "constant": true,
      "inputs": [],
      "name": "paused",
      "outputs": [
        {
          "name": "",
          "type": "bool"
        }
      ],
      "payable": false,
      "stateMutability": "view",
      "type": "function"
    },
    {
      "constant": true,
      "inputs": [
        {
          "name": "_tokenId",
          "type": "uint256"
        }
      ],
      "name": "ownerOf",
      "outputs": [
        {
          "name": "",
          "type": "address"
        }
      ],
      "payable": false,
      "stateMutability": "view",
      "type": "function"
    },
    {
      "constant": true,
      "inputs": [
        {
          "name": "_owner",
          "type": "address"
        }
      ],
      "name": "balanceOf",
      "outputs": [
        {
          "name": "",
          "type": "uint256"
        }
      ],
      "payable": false,
      "stateMutability": "view",
      "type": "function"
    },
    {
      "constant": false,
      "inputs": [],
      "name": "destroy",
      "outputs": [],
      "payable": false,
      "stateMutability": "nonpayable",
      "type": "function"
    },
    {
      "constant": false,
      "inputs": [],
      "name": "pause",
      "outputs": [],
      "payable": false,
      "stateMutability": "nonpayable",
      "type": "function"
    },
    {
      "constant": true,
      "inputs": [],
      "name": "owner",
      "outputs": [
        {
          "name": "",
          "type": "address"
        }
      ],
      "payable": false,
      "stateMutability": "view",
      "type": "function"
    },
    {
      "constant": true,
      "inputs": [],
      "name": "symbol",
      "outputs": [
        {
          "name": "",
          "type": "string"
        }
      ],
      "payable": false,
      "stateMutability": "view",
      "type": "function"
    },
    {
      "constant": false,
      "inputs": [
        {
          "name": "_to",
          "type": "address"
        },
        {
          "name": "_approved",
          "type": "bool"
        }
      ],
      "name": "setApprovalForAll",
      "outputs": [],
      "payable": false,
      "stateMutability": "nonpayable",
      "type": "function"
    },
    {
      "constant": false,
      "inputs": [
        {
          "name": "_from",
          "type": "address"
        },
        {
          "name": "_to",
          "type": "address"
        },
        {
          "name": "_tokenId",
          "type": "uint256"
        },
        {
          "name": "_data",
          "type": "bytes"
        }
      ],
      "name": "safeTransferFrom",
      "outputs": [],
      "payable": false,
      "stateMutability": "nonpayable",
      "type": "function"
    },
    {
      "constant": true,
      "inputs": [
        {
          "name": "_tokenId",
          "type": "uint256"
        }
      ],
      "name": "tokenURI",
      "outputs": [
        {
          "name": "",
          "type": "string"
        }
      ],
      "payable": false,
      "stateMutability": "view",
      "type": "function"
    },
    {
      "constant": true,
      "inputs": [
        {
          "name": "_owner",
          "type": "address"
        },
        {
          "name": "_operator",
          "type": "address"
        }
      ],
      "name": "isApprovedForAll",
      "outputs": [
        {
          "name": "",
          "type": "bool"
        }
      ],
      "payable": false,
      "stateMutability": "view",
      "type": "function"
    },
    {
      "constant": false,
      "inputs": [
        {
          "name": "newOwner",
          "type": "address"
        }
      ],
      "name": "transferOwnership",
      "outputs": [],
      "payable": false,
      "stateMutability": "nonpayable",
      "type": "function"
    },
    {
      "constant": false,
      "inputs": [
        {
          "name": "_recipient",
          "type": "address"
        }
      ],
      "name": "destroyAndSend",
      "outputs": [],
      "payable": false,
      "stateMutability": "nonpayable",
      "type": "function"
    },
    {
      "inputs": [
        {
          "name": "_contractName",
          "type": "string"
        },
        {
          "name": "_supplierSymbol",
          "type": "string"
        },
        {
          "name": "_contractCID",
          "type": "string"
        },
        {
          "name": "_byuer",
          "type": "address"
        },
        {
          "name": "_supplier",
          "type": "address"
        }
      ],
      "payable": true,
      "stateMutability": "payable",
      "type": "constructor"
    },
    {
      "anonymous": false,
      "inputs": [
        {
          "indexed": false,
          "name": "name",
          "type": "string"
        },
        {
          "indexed": false,
          "name": "CID",
          "type": "string"
        },
        {
          "indexed": false,
          "name": "price",
          "type": "uint256"
        }
      ],
      "name": "GoodAdded",
      "type": "event"
    },
    {
      "anonymous": false,
      "inputs": [
        {
          "indexed": false,
          "name": "param",
          "type": "string"
        },
        {
          "indexed": false,
          "name": "value",
          "type": "string"
        }
      ],
      "name": "ParameterAdded",
      "type": "event"
    },
    {
      "anonymous": false,
      "inputs": [
        {
          "indexed": false,
          "name": "goodID",
          "type": "uint256"
        },
        {
          "indexed": false,
          "name": "timestamp",
          "type": "uint256"
        }
      ],
      "name": "ByuerMadeOrder",
      "type": "event"
    },
    {
      "anonymous": false,
      "inputs": [],
      "name": "Pause",
      "type": "event"
    },
    {
      "anonymous": false,
      "inputs": [],
      "name": "Unpause",
      "type": "event"
    },
    {
      "anonymous": false,
      "inputs": [
        {
          "indexed": true,
          "name": "previousOwner",
          "type": "address"
        },
        {
          "indexed": true,
          "name": "newOwner",
          "type": "address"
        }
      ],
      "name": "OwnershipTransferred",
      "type": "event"
    },
    {
      "anonymous": false,
      "inputs": [
        {
          "indexed": true,
          "name": "_from",
          "type": "address"
        },
        {
          "indexed": true,
          "name": "_to",
          "type": "address"
        },
        {
          "indexed": false,
          "name": "_tokenId",
          "type": "uint256"
        }
      ],
      "name": "Transfer",
      "type": "event"
    },
    {
      "anonymous": false,
      "inputs": [
        {
          "indexed": true,
          "name": "_owner",
          "type": "address"
        },
        {
          "indexed": true,
          "name": "_approved",
          "type": "address"
        },
        {
          "indexed": false,
          "name": "_tokenId",
          "type": "uint256"
        }
      ],
      "name": "Approval",
      "type": "event"
    },
    {
      "anonymous": false,
      "inputs": [
        {
          "indexed": true,
          "name": "_owner",
          "type": "address"
        },
        {
          "indexed": true,
          "name": "_operator",
          "type": "address"
        },
        {
          "indexed": false,
          "name": "_approved",
          "type": "bool"
        }
      ],
      "name": "ApprovalForAll",
      "type": "event"
    },
    {
      "constant": true,
      "inputs": [],
      "name": "getContractName",
      "outputs": [
        {
          "name": "name",
          "type": "string"
        }
      ],
      "payable": false,
      "stateMutability": "view",
      "type": "function"
    },
    {
      "constant": true,
      "inputs": [],
      "name": "getContractCID",
      "outputs": [
        {
          "name": "CID",
          "type": "string"
        }
      ],
      "payable": false,
      "stateMutability": "view",
      "type": "function"
    },
    {
      "constant": true,
      "inputs": [],
      "name": "getByuer",
      "outputs": [
        {
          "name": "byuer",
          "type": "address"
        }
      ],
      "payable": false,
      "stateMutability": "view",
      "type": "function"
    },
    {
      "constant": true,
      "inputs": [],
      "name": "getSupplier",
      "outputs": [
        {
          "name": "supplier",
          "type": "address"
        }
      ],
      "payable": false,
      "stateMutability": "view",
      "type": "function"
    },
    {
      "constant": true,
      "inputs": [
        {
          "name": "_param",
          "type": "string"
        }
      ],
      "name": "getParameter",
      "outputs": [
        {
          "name": "value",
          "type": "string"
        }
      ],
      "payable": false,
      "stateMutability": "view",
      "type": "function"
    },
    {
      "constant": false,
      "inputs": [
        {
          "name": "param_",
          "type": "string"
        },
        {
          "name": "value_",
          "type": "string"
        }
      ],
      "name": "addContractParameter",
      "outputs": [],
      "payable": false,
      "stateMutability": "nonpayable",
      "type": "function"
    },
    {
      "constant": false,
      "inputs": [
        {
          "name": "name_",
          "type": "string"
        },
        {
          "name": "description_",
          "type": "string"
        },
        {
          "name": "CID_",
          "type": "string"
        },
        {
          "name": "price_",
          "type": "uint256"
        }
      ],
      "name": "addGood",
      "outputs": [],
      "payable": false,
      "stateMutability": "nonpayable",
      "type": "function"
    },
    {
      "constant": true,
      "inputs": [
        {
          "name": "_goodID",
          "type": "uint256"
        }
      ],
      "name": "getGoodInfo",
      "outputs": [
        {
          "name": "",
          "type": "string"
        },
        {
          "name": "",
          "type": "string"
        },
        {
          "name": "",
          "type": "string"
        },
        {
          "name": "",
          "type": "uint256"
        }
      ],
      "payable": false,
      "stateMutability": "view",
      "type": "function"
    },
    {
      "constant": false,
      "inputs": [
        {
          "name": "_goodID",
          "type": "uint256"
        }
      ],
      "name": "makeOrder",
      "outputs": [
        {
          "name": "ID",
          "type": "uint256"
        }
      ],
      "payable": true,
      "stateMutability": "payable",
      "type": "function"
    },
    {
      "constant": true,
      "inputs": [
        {
          "name": "_orderID",
          "type": "uint256"
        }
      ],
      "name": "getOrder",
      "outputs": [
        {
          "name": "",
          "type": "string"
        },
        {
          "name": "",
          "type": "string"
        },
        {
          "name": "",
          "type": "uint256"
        },
        {
          "name": "",
          "type": "uint256"
        },
        {
          "name": "",
          "type": "uint8"
        }
      ],
      "payable": false,
      "stateMutability": "view",
      "type": "function"
    }
  ],
  "bytecode": "0x60606040526000600b60146101000a81548160ff02191690831515021790555060405162003e2238038062003e2283398101604052808051820191906020018051820191906020018051820191906020018051906020019091908051906020019091905050848481600490805190602001906200007e9291906200019a565b508060059080519060200190620000979291906200019a565b50505033600b60006101000a81548173ffffffffffffffffffffffffffffffffffffffff021916908373ffffffffffffffffffffffffffffffffffffffff16021790555084600c9080519060200190620000f39291906200019a565b5082600d90805190602001906200010c9291906200019a565b5081600f60006101000a81548173ffffffffffffffffffffffffffffffffffffffff021916908373ffffffffffffffffffffffffffffffffffffffff16021790555080601060006101000a81548173ffffffffffffffffffffffffffffffffffffffff021916908373ffffffffffffffffffffffffffffffffffffffff160217905550505050505062000249565b828054600181600116156101000203166002900490600052602060002090601f016020900481019282601f10620001dd57805160ff19168380011785556200020e565b828001600101855582156200020e579182015b828111156200020d578251825591602001919060010190620001f0565b5b5090506200021d919062000221565b5090565b6200024691905b808211156200024257600081600090555060010162000228565b5090565b90565b613bc980620002596000396000f3006060604052600436106101a1576000357c0100000000000000000000000000000000000000000000000000000000900463ffffffff1680630525cafa146101a657806306fdde0314610234578063081812fc146102c2578063095ea7b31461032557806318160ddd146103675780631f0cbfb91461039057806323300ca4146103bc57806323b872dd146104115780632f745c591461047257806339ca5ad0146104c85780633a684138146105b45780633f4ba83a1461072f57806342842e0e146107445780634f558e79146107a55780634f6ccce7146107e05780635c975abb146108175780636352211e1461084457806370a08231146108a757806383197ef0146108f45780638456cb59146109095780638da5cb5b1461091e57806395d89b41146109735780639e647aac14610a01578063a22cb46514610ad7578063b88d4fde14610b1b578063c87b56dd14610bbf578063cdf9e33b14610c5b578063d07d1e2b14610cb0578063d09ef24114610d50578063e985e9c514610e7b578063f2fde38b14610eeb578063f5074f4114610f24578063f5f5ba7214610f5d575b600080fd5b34156101b157600080fd5b6101b9610feb565b6040518080602001828103825283818151815260200191508051906020019080838360005b838110156101f95780820151818401526020810190506101de565b50505050905090810190601f1680156102265780820380516001836020036101000a031916815260200191505b509250505060405180910390f35b341561023f57600080fd5b610247611093565b6040518080602001828103825283818151815260200191508051906020019080838360005b8381101561028757808201518184015260208101905061026c565b50505050905090810190601f1680156102b45780820380516001836020036101000a031916815260200191505b509250505060405180910390f35b34156102cd57600080fd5b6102e3600480803590602001909190505061113b565b604051808273ffffffffffffffffffffffffffffffffffffffff1673ffffffffffffffffffffffffffffffffffffffff16815260200191505060405180910390f35b341561033057600080fd5b610365600480803573ffffffffffffffffffffffffffffffffffffffff16906020019091908035906020019091905050611178565b005b341561037257600080fd5b61037a61133e565b6040518082815260200191505060405180910390f35b6103a6600480803590602001909190505061134b565b6040518082815260200191505060405180910390f35b34156103c757600080fd5b6103cf611768565b604051808273ffffffffffffffffffffffffffffffffffffffff1673ffffffffffffffffffffffffffffffffffffffff16815260200191505060405180910390f35b341561041c57600080fd5b610470600480803573ffffffffffffffffffffffffffffffffffffffff1690602001909190803573ffffffffffffffffffffffffffffffffffffffff16906020019091908035906020019091905050611792565b005b341561047d57600080fd5b6104b2600480803573ffffffffffffffffffffffffffffffffffffffff169060200190919080359060200190919050506118a9565b6040518082815260200191505060405180910390f35b34156104d357600080fd5b6105b2600480803590602001908201803590602001908080601f0160208091040260200160405190810160405280939291908181526020018383808284378201915050505050509190803590602001908201803590602001908080601f0160208091040260200160405190810160405280939291908181526020018383808284378201915050505050509190803590602001908201803590602001908080601f01602080910402602001604051908101604052809392919081815260200183838082843782019150505050505091908035906020019091905050611921565b005b34156105bf57600080fd5b6105d56004808035906020019091905050611b4f565b60405180806020018060200180602001858152602001848103845288818151815260200191508051906020019080838360005b83811015610623578082015181840152602081019050610608565b50505050905090810190601f1680156106505780820380516001836020036101000a031916815260200191505b50848103835287818151815260200191508051906020019080838360005b8381101561068957808201518184015260208101905061066e565b50505050905090810190601f1680156106b65780820380516001836020036101000a031916815260200191505b50848103825286818151815260200191508051906020019080838360005b838110156106ef5780820151818401526020810190506106d4565b50505050905090810190601f16801561071c5780820380516001836020036101000a031916815260200191505b5097505050505050505060405180910390f35b341561073a57600080fd5b610742611dcd565b005b341561074f57600080fd5b6107a3600480803573ffffffffffffffffffffffffffffffffffffffff1690602001909190803573ffffffffffffffffffffffffffffffffffffffff16906020019091908035906020019091905050611e8d565b005b34156107b057600080fd5b6107c66004808035906020019091905050611ec5565b604051808215151515815260200191505060405180910390f35b34156107eb57600080fd5b6108016004808035906020019091905050611f36565b6040518082815260200191505060405180910390f35b341561082257600080fd5b61082a611f6f565b604051808215151515815260200191505060405180910390f35b341561084f57600080fd5b6108656004808035906020019091905050611f82565b604051808273ffffffffffffffffffffffffffffffffffffffff1673ffffffffffffffffffffffffffffffffffffffff16815260200191505060405180910390f35b34156108b257600080fd5b6108de600480803573ffffffffffffffffffffffffffffffffffffffff16906020019091905050611fff565b6040518082815260200191505060405180910390f35b34156108ff57600080fd5b610907612083565b005b341561091457600080fd5b61091c61211a565b005b341561092957600080fd5b6109316121db565b604051808273ffffffffffffffffffffffffffffffffffffffff1673ffffffffffffffffffffffffffffffffffffffff16815260200191505060405180910390f35b341561097e57600080fd5b610986612201565b6040518080602001828103825283818151815260200191508051906020019080838360005b838110156109c65780820151818401526020810190506109ab565b50505050905090810190601f1680156109f35780820380516001836020036101000a031916815260200191505b509250505060405180910390f35b3415610a0c57600080fd5b610a5c600480803590602001908201803590602001908080601f016020809104026020016040519081016040528093929190818152602001838380828437820191505050505050919050506122a9565b6040518080602001828103825283818151815260200191508051906020019080838360005b83811015610a9c578082015181840152602081019050610a81565b50505050905090810190601f168015610ac95780820380516001836020036101000a031916815260200191505b509250505060405180910390f35b3415610ae257600080fd5b610b19600480803573ffffffffffffffffffffffffffffffffffffffff1690602001909190803515159060200190919050506123bc565b005b3415610b2657600080fd5b610bbd600480803573ffffffffffffffffffffffffffffffffffffffff1690602001909190803573ffffffffffffffffffffffffffffffffffffffff1690602001909190803590602001909190803590602001908201803590602001908080601f016020809104026020016040519081016040528093929190818152602001838380828437820191505050505050919050506124f8565b005b3415610bca57600080fd5b610be06004808035906020019091905050612537565b6040518080602001828103825283818151815260200191508051906020019080838360005b83811015610c20578082015181840152602081019050610c05565b50505050905090810190601f168015610c4d5780820380516001836020036101000a031916815260200191505b509250505060405180910390f35b3415610c6657600080fd5b610c6e612606565b604051808273ffffffffffffffffffffffffffffffffffffffff1673ffffffffffffffffffffffffffffffffffffffff16815260200191505060405180910390f35b3415610cbb57600080fd5b610d4e600480803590602001908201803590602001908080601f0160208091040260200160405190810160405280939291908181526020018383808284378201915050505050509190803590602001908201803590602001908080601f01602080910402602001604051908101604052809392919081815260200183838082843782019150505050505091905050612630565b005b3415610d5b57600080fd5b610d716004808035906020019091905050612819565b604051808060200180602001868152602001858152602001846005811115610d9557fe5b60ff168152602001838103835288818151815260200191508051906020019080838360005b83811015610dd5578082015181840152602081019050610dba565b50505050905090810190601f168015610e025780820380516001836020036101000a031916815260200191505b50838103825287818151815260200191508051906020019080838360005b83811015610e3b578082015181840152602081019050610e20565b50505050905090810190601f168015610e685780820380516001836020036101000a031916815260200191505b5097505050505050505060405180910390f35b3415610e8657600080fd5b610ed1600480803573ffffffffffffffffffffffffffffffffffffffff1690602001909190803573ffffffffffffffffffffffffffffffffffffffff16906020019091905050612a32565b604051808215151515815260200191505060405180910390f35b3415610ef657600080fd5b610f22600480803573ffffffffffffffffffffffffffffffffffffffff16906020019091905050612ac6565b005b3415610f2f57600080fd5b610f5b600480803573ffffffffffffffffffffffffffffffffffffffff16906020019091905050612c1e565b005b3415610f6857600080fd5b610f70612c93565b6040518080602001828103825283818151815260200191508051906020019080838360005b83811015610fb0578082015181840152602081019050610f95565b50505050905090810190601f168015610fdd5780820380516001836020036101000a031916815260200191505b509250505060405180910390f35b610ff36137d2565b600d8054600181600116156101000203166002900480601f0160208091040260200160405190810160405280929190818152602001828054600181600116156101000203166002900480156110895780601f1061105e57610100808354040283529160200191611089565b820191906000526020600020905b81548152906001019060200180831161106c57829003601f168201915b5050505050905090565b61109b6137d2565b60048054600181600116156101000203166002900480601f0160208091040260200160405190810160405280929190818152602001828054600181600116156101000203166002900480156111315780601f1061110657610100808354040283529160200191611131565b820191906000526020600020905b81548152906001019060200180831161111457829003601f168201915b5050505050905090565b60006001600083815260200190815260200160002060009054906101000a900473ffffffffffffffffffffffffffffffffffffffff169050919050565b600061118382611f82565b90508073ffffffffffffffffffffffffffffffffffffffff168373ffffffffffffffffffffffffffffffffffffffff16141515156111c057600080fd5b8073ffffffffffffffffffffffffffffffffffffffff163373ffffffffffffffffffffffffffffffffffffffff16148061120057506111ff8133612a32565b5b151561120b57600080fd5b600073ffffffffffffffffffffffffffffffffffffffff1661122c8361113b565b73ffffffffffffffffffffffffffffffffffffffff1614158061127c5750600073ffffffffffffffffffffffffffffffffffffffff168373ffffffffffffffffffffffffffffffffffffffff1614155b1561133957826001600084815260200190815260200160002060006101000a81548173ffffffffffffffffffffffffffffffffffffffff021916908373ffffffffffffffffffffffffffffffffffffffff1602179055508273ffffffffffffffffffffffffffffffffffffffff168173ffffffffffffffffffffffffffffffffffffffff167f8c5be1e5ebec7d5bd14f71427d1e84f3dd0314c0f7b2291e5b200ac8c7c3b925846040518082815260200191505060405180910390a35b505050565b6000600880549050905090565b60006113556137e6565b6000600f60009054906101000a900473ffffffffffffffffffffffffffffffffffffffff1673ffffffffffffffffffffffffffffffffffffffff163373ffffffffffffffffffffffffffffffffffffffff161415156113b357600080fd5b6011848154811015156113c257fe5b906000526020600020906004020160030154341415156113e157600080fd5b6060604051908101604052806011868154811015156113fc57fe5b906000526020600020906004020160806040519081016040529081600082018054600181600116156101000203166002900480601f0160208091040260200160405190810160405280929190818152602001828054600181600116156101000203166002900480156114af5780601f10611484576101008083540402835291602001916114af565b820191906000526020600020905b81548152906001019060200180831161149257829003601f168201915b50505050508152602001600182018054600181600116156101000203166002900480601f0160208091040260200160405190810160405280929190818152602001828054600181600116156101000203166002900480156115515780601f1061152657610100808354040283529160200191611551565b820191906000526020600020905b81548152906001019060200180831161153457829003601f168201915b50505050508152602001600282018054600181600116156101000203166002900480601f0160208091040260200160405190810160405280929190818152602001828054600181600116156101000203166002900480156115f35780601f106115c8576101008083540402835291602001916115f3565b820191906000526020600020905b8154815290600101906020018083116115d657829003601f168201915b5050505050815260200160038201548152505081526020016000600581111561161857fe5b81526020014281525091506001601280548060010182816116399190613819565b91600052602060002090600602016000859091909150600082015181600001600082015181600001908051906020019061167492919061384b565b50602082015181600101908051906020019061169192919061384b565b5060408201518160020190805190602001906116ae92919061384b565b5060608201518160030155505060208201518160040160006101000a81548160ff021916908360058111156116df57fe5b021790555060408201518160050155505003905061171f601060009054906101000a900473ffffffffffffffffffffffffffffffffffffffff1682612d3b565b7ff1d542d1e8d64ae8d9aa6c51c4cecbd3ca17548d2800e0c55cfd76d35cc31a1e8442604051808381526020018281526020019250505060405180910390a18092505050919050565b6000601060009054906101000a900473ffffffffffffffffffffffffffffffffffffffff16905090565b8061179d3382612d8f565b15156117a857600080fd5b600073ffffffffffffffffffffffffffffffffffffffff168473ffffffffffffffffffffffffffffffffffffffff16141515156117e457600080fd5b600073ffffffffffffffffffffffffffffffffffffffff168373ffffffffffffffffffffffffffffffffffffffff161415151561182057600080fd5b61182a8483612e24565b6118348483612f8d565b61183e83836131a8565b8273ffffffffffffffffffffffffffffffffffffffff168473ffffffffffffffffffffffffffffffffffffffff167fddf252ad1be2c89b69c2b068fc378daa952ba7f163c4a11628f55a4df523b3ef846040518082815260200191505060405180910390a350505050565b60006118b483611fff565b821015156118c157600080fd5b600660008473ffffffffffffffffffffffffffffffffffffffff1673ffffffffffffffffffffffffffffffffffffffff1681526020019081526020016000208281548110151561190d57fe5b906000526020600020900154905092915050565b6119296138cb565b601060009054906101000a900473ffffffffffffffffffffffffffffffffffffffff1673ffffffffffffffffffffffffffffffffffffffff163373ffffffffffffffffffffffffffffffffffffffff1614151561198557600080fd5b608060405190810160405280868152602001858152602001848152602001838152509050601180548060010182816119bd9190613906565b9160005260206000209060040201600083909190915060008201518160000190805190602001906119ef92919061384b565b506020820151816001019080519060200190611a0c92919061384b565b506040820151816002019080519060200190611a2992919061384b565b50606082015181600301555050507fdf087dd188026a4df1138ae7f5d804f9c9d1fccb66fdd27ee4c44a65ccb1d319858484604051808060200180602001848152602001838103835286818151815260200191508051906020019080838360005b83811015611aa5578082015181840152602081019050611a8a565b50505050905090810190601f168015611ad25780820380516001836020036101000a031916815260200191505b50838103825285818151815260200191508051906020019080838360005b83811015611b0b578082015181840152602081019050611af0565b50505050905090810190601f168015611b385780820380516001836020036101000a031916815260200191505b509550505050505060405180910390a15050505050565b611b576137d2565b611b5f6137d2565b611b676137d2565b6000601185815481101515611b7857fe5b9060005260206000209060040201600001601186815481101515611b9857fe5b9060005260206000209060040201600101601187815481101515611bb857fe5b9060005260206000209060040201600201601188815481101515611bd857fe5b906000526020600020906004020160030154838054600181600116156101000203166002900480601f016020809104026020016040519081016040528092919081815260200182805460018160011615610100020316600290048015611c7f5780601f10611c5457610100808354040283529160200191611c7f565b820191906000526020600020905b815481529060010190602001808311611c6257829003601f168201915b50505050509350828054600181600116156101000203166002900480601f016020809104026020016040519081016040528092919081815260200182805460018160011615610100020316600290048015611d1b5780601f10611cf057610100808354040283529160200191611d1b565b820191906000526020600020905b815481529060010190602001808311611cfe57829003601f168201915b50505050509250818054600181600116156101000203166002900480601f016020809104026020016040519081016040528092919081815260200182805460018160011615610100020316600290048015611db75780601f10611d8c57610100808354040283529160200191611db7565b820191906000526020600020905b815481529060010190602001808311611d9a57829003601f168201915b5050505050915093509350935093509193509193565b600b60009054906101000a900473ffffffffffffffffffffffffffffffffffffffff1673ffffffffffffffffffffffffffffffffffffffff163373ffffffffffffffffffffffffffffffffffffffff16141515611e2957600080fd5b600b60149054906101000a900460ff161515611e4457600080fd5b6000600b60146101000a81548160ff0219169083151502179055507f7805862f689e2f13df9f062ff482ad3ad112aca9e0847911ed832e158c525b3360405160405180910390a1565b80611e983382612d8f565b1515611ea357600080fd5b611ebf84848460206040519081016040528060008152506124f8565b50505050565b60008060008084815260200190815260200160002060009054906101000a900473ffffffffffffffffffffffffffffffffffffffff169050600073ffffffffffffffffffffffffffffffffffffffff168173ffffffffffffffffffffffffffffffffffffffff161415915050919050565b6000611f4061133e565b82101515611f4d57600080fd5b600882815481101515611f5c57fe5b9060005260206000209001549050919050565b600b60149054906101000a900460ff1681565b60008060008084815260200190815260200160002060009054906101000a900473ffffffffffffffffffffffffffffffffffffffff169050600073ffffffffffffffffffffffffffffffffffffffff168173ffffffffffffffffffffffffffffffffffffffff1614151515611ff657600080fd5b80915050919050565b60008073ffffffffffffffffffffffffffffffffffffffff168273ffffffffffffffffffffffffffffffffffffffff161415151561203c57600080fd5b600260008373ffffffffffffffffffffffffffffffffffffffff1673ffffffffffffffffffffffffffffffffffffffff168152602001908152602001600020549050919050565b600b60009054906101000a900473ffffffffffffffffffffffffffffffffffffffff1673ffffffffffffffffffffffffffffffffffffffff163373ffffffffffffffffffffffffffffffffffffffff161415156120df57600080fd5b600b60009054906101000a900473ffffffffffffffffffffffffffffffffffffffff1673ffffffffffffffffffffffffffffffffffffffff16ff5b600b60009054906101000a900473ffffffffffffffffffffffffffffffffffffffff1673ffffffffffffffffffffffffffffffffffffffff163373ffffffffffffffffffffffffffffffffffffffff1614151561217657600080fd5b600b60149054906101000a900460ff1615151561219257600080fd5b6001600b60146101000a81548160ff0219169083151502179055507f6985a02210a168e66602d3235cb6db0e70f92b3ba4d376a33c0f3d9434bff62560405160405180910390a1565b600b60009054906101000a900473ffffffffffffffffffffffffffffffffffffffff1681565b6122096137d2565b60058054600181600116156101000203166002900480601f01602080910402602001604051908101604052809291908181526020018280546001816001161561010002031660029004801561229f5780601f106122745761010080835404028352916020019161229f565b820191906000526020600020905b81548152906001019060200180831161228257829003601f168201915b5050505050905090565b6122b16137d2565b600e826040518082805190602001908083835b6020831015156122e957805182526020820191506020810190506020830392506122c4565b6001836020036101000a03801982511681845116808217855250505050505090500191505090815260200160405180910390208054600181600116156101000203166002900480601f0160208091040260200160405190810160405280929190818152602001828054600181600116156101000203166002900480156123b05780601f10612385576101008083540402835291602001916123b0565b820191906000526020600020905b81548152906001019060200180831161239357829003601f168201915b50505050509050919050565b3373ffffffffffffffffffffffffffffffffffffffff168273ffffffffffffffffffffffffffffffffffffffff16141515156123f757600080fd5b80600360003373ffffffffffffffffffffffffffffffffffffffff1673ffffffffffffffffffffffffffffffffffffffff16815260200190815260200160002060008473ffffffffffffffffffffffffffffffffffffffff1673ffffffffffffffffffffffffffffffffffffffff16815260200190815260200160002060006101000a81548160ff0219169083151502179055508173ffffffffffffffffffffffffffffffffffffffff163373ffffffffffffffffffffffffffffffffffffffff167f17307eab39ab6107e8899845ad3d59bd9653f200f220920489ca2b5937696c3183604051808215151515815260200191505060405180910390a35050565b816125033382612d8f565b151561250e57600080fd5b612519858585611792565b6125258585858561327c565b151561253057600080fd5b5050505050565b61253f6137d2565b61254882611ec5565b151561255357600080fd5b600a60008381526020019081526020016000208054600181600116156101000203166002900480601f0160208091040260200160405190810160405280929190818152602001828054600181600116156101000203166002900480156125fa5780601f106125cf576101008083540402835291602001916125fa565b820191906000526020600020905b8154815290600101906020018083116125dd57829003601f168201915b50505050509050919050565b6000600f60009054906101000a900473ffffffffffffffffffffffffffffffffffffffff16905090565b600b60009054906101000a900473ffffffffffffffffffffffffffffffffffffffff1673ffffffffffffffffffffffffffffffffffffffff163373ffffffffffffffffffffffffffffffffffffffff1614151561268c57600080fd5b80600e836040518082805190602001908083835b6020831015156126c557805182526020820191506020810190506020830392506126a0565b6001836020036101000a0380198251168184511680821785525050505050509050019150509081526020016040518091039020908051906020019061270b929190613938565b507f5ad69516aee2b1d29a4c660228ff067db85c427a079dff23d38097ae0acdde068282604051808060200180602001838103835285818151815260200191508051906020019080838360005b83811015612773578082015181840152602081019050612758565b50505050905090810190601f1680156127a05780820380516001836020036101000a031916815260200191505b50838103825284818151815260200191508051906020019080838360005b838110156127d95780820151818401526020810190506127be565b50505050905090810190601f1680156128065780820380516001836020036101000a031916815260200191505b5094505050505060405180910390a15050565b6128216137d2565b6128296137d2565b600080600060128681548110151561283d57fe5b906000526020600020906006020160000160000160128781548110151561286057fe5b906000526020600020906006020160000160020160128881548110151561288357fe5b9060005260206000209060060201600001600301546012898154811015156128a757fe5b90600052602060002090600602016005015460128a8154811015156128c857fe5b906000526020600020906006020160040160009054906101000a900460ff16848054600181600116156101000203166002900480601f01602080910402602001604051908101604052809291908181526020018280546001816001161561010002031660029004801561297c5780601f106129515761010080835404028352916020019161297c565b820191906000526020600020905b81548152906001019060200180831161295f57829003601f168201915b50505050509450838054600181600116156101000203166002900480601f016020809104026020016040519081016040528092919081815260200182805460018160011615610100020316600290048015612a185780601f106129ed57610100808354040283529160200191612a18565b820191906000526020600020905b8154815290600101906020018083116129fb57829003601f168201915b505050505093509450945094509450945091939590929450565b6000600360008473ffffffffffffffffffffffffffffffffffffffff1673ffffffffffffffffffffffffffffffffffffffff16815260200190815260200160002060008373ffffffffffffffffffffffffffffffffffffffff1673ffffffffffffffffffffffffffffffffffffffff16815260200190815260200160002060009054906101000a900460ff16905092915050565b600b60009054906101000a900473ffffffffffffffffffffffffffffffffffffffff1673ffffffffffffffffffffffffffffffffffffffff163373ffffffffffffffffffffffffffffffffffffffff16141515612b2257600080fd5b600073ffffffffffffffffffffffffffffffffffffffff168173ffffffffffffffffffffffffffffffffffffffff1614151515612b5e57600080fd5b8073ffffffffffffffffffffffffffffffffffffffff16600b60009054906101000a900473ffffffffffffffffffffffffffffffffffffffff1673ffffffffffffffffffffffffffffffffffffffff167f8be0079c531659141344cd1fd0a4f28419497f9722a3daafe3b4186f6b6457e060405160405180910390a380600b60006101000a81548173ffffffffffffffffffffffffffffffffffffffff021916908373ffffffffffffffffffffffffffffffffffffffff16021790555050565b600b60009054906101000a900473ffffffffffffffffffffffffffffffffffffffff1673ffffffffffffffffffffffffffffffffffffffff163373ffffffffffffffffffffffffffffffffffffffff16141515612c7a57600080fd5b8073ffffffffffffffffffffffffffffffffffffffff16ff5b612c9b6137d2565b600c8054600181600116156101000203166002900480601f016020809104026020016040519081016040528092919081815260200182805460018160011615610100020316600290048015612d315780601f10612d0657610100808354040283529160200191612d31565b820191906000526020600020905b815481529060010190602001808311612d1457829003601f168201915b5050505050905090565b612d458282613452565b600880549050600960008381526020019081526020016000208190555060088054806001018281612d7691906139b8565b9160005260206000209001600083909190915055505050565b600080612d9b83611f82565b90508073ffffffffffffffffffffffffffffffffffffffff168473ffffffffffffffffffffffffffffffffffffffff161480612e0a57508373ffffffffffffffffffffffffffffffffffffffff16612df28461113b565b73ffffffffffffffffffffffffffffffffffffffff16145b80612e1b5750612e1a8185612a32565b5b91505092915050565b8173ffffffffffffffffffffffffffffffffffffffff16612e4482611f82565b73ffffffffffffffffffffffffffffffffffffffff16141515612e6657600080fd5b600073ffffffffffffffffffffffffffffffffffffffff166001600083815260200190815260200160002060009054906101000a900473ffffffffffffffffffffffffffffffffffffffff1673ffffffffffffffffffffffffffffffffffffffff16141515612f895760006001600083815260200190815260200160002060006101000a81548173ffffffffffffffffffffffffffffffffffffffff021916908373ffffffffffffffffffffffffffffffffffffffff160217905550600073ffffffffffffffffffffffffffffffffffffffff168273ffffffffffffffffffffffffffffffffffffffff167f8c5be1e5ebec7d5bd14f71427d1e84f3dd0314c0f7b2291e5b200ac8c7c3b925836040518082815260200191505060405180910390a35b5050565b6000806000612f9c8585613502565b600760008581526020019081526020016000205492506130086001600660008873ffffffffffffffffffffffffffffffffffffffff1673ffffffffffffffffffffffffffffffffffffffff1681526020019081526020016000208054905061363090919063ffffffff16565b9150600660008673ffffffffffffffffffffffffffffffffffffffff1673ffffffffffffffffffffffffffffffffffffffff1681526020019081526020016000208281548110151561305657fe5b906000526020600020900154905080600660008773ffffffffffffffffffffffffffffffffffffffff1673ffffffffffffffffffffffffffffffffffffffff168152602001908152602001600020848154811015156130b157fe5b9060005260206000209001819055506000600660008773ffffffffffffffffffffffffffffffffffffffff1673ffffffffffffffffffffffffffffffffffffffff1681526020019081526020016000208381548110151561310e57fe5b906000526020600020900181905550600660008673ffffffffffffffffffffffffffffffffffffffff1673ffffffffffffffffffffffffffffffffffffffff16815260200190815260200160002080548091906001900361316f91906139e4565b50600060076000868152602001908152602001600020819055508260076000838152602001908152602001600020819055505050505050565b60006131b48383613649565b600660008473ffffffffffffffffffffffffffffffffffffffff1673ffffffffffffffffffffffffffffffffffffffff168152602001908152602001600020805490509050600660008473ffffffffffffffffffffffffffffffffffffffff1673ffffffffffffffffffffffffffffffffffffffff168152602001908152602001600020805480600101828161324a91906139b8565b916000526020600020900160008490919091505550806007600084815260200190815260200160002081905550505050565b60008061329e8573ffffffffffffffffffffffffffffffffffffffff166137a1565b15156132ad5760019150613449565b8473ffffffffffffffffffffffffffffffffffffffff1663f0b9e5ba8786866000604051602001526040518463ffffffff167c0100000000000000000000000000000000000000000000000000000000028152600401808473ffffffffffffffffffffffffffffffffffffffff1673ffffffffffffffffffffffffffffffffffffffff16815260200183815260200180602001828103825283818151815260200191508051906020019080838360005b8381101561337857808201518184015260208101905061335d565b50505050905090810190601f1680156133a55780820380516001836020036101000a031916815260200191505b50945050505050602060405180830381600087803b15156133c557600080fd5b6102c65a03f115156133d657600080fd5b50505060405180519050905063f0b9e5ba7c0100000000000000000000000000000000000000000000000000000000027bffffffffffffffffffffffffffffffffffffffffffffffffffffffff1916817bffffffffffffffffffffffffffffffffffffffffffffffffffffffff19161491505b50949350505050565b600073ffffffffffffffffffffffffffffffffffffffff168273ffffffffffffffffffffffffffffffffffffffff161415151561348e57600080fd5b61349882826131a8565b8173ffffffffffffffffffffffffffffffffffffffff16600073ffffffffffffffffffffffffffffffffffffffff167fddf252ad1be2c89b69c2b068fc378daa952ba7f163c4a11628f55a4df523b3ef836040518082815260200191505060405180910390a35050565b8173ffffffffffffffffffffffffffffffffffffffff1661352282611f82565b73ffffffffffffffffffffffffffffffffffffffff1614151561354457600080fd5b6135976001600260008573ffffffffffffffffffffffffffffffffffffffff1673ffffffffffffffffffffffffffffffffffffffff1681526020019081526020016000205461363090919063ffffffff16565b600260008473ffffffffffffffffffffffffffffffffffffffff1673ffffffffffffffffffffffffffffffffffffffff16815260200190815260200160002081905550600080600083815260200190815260200160002060006101000a81548173ffffffffffffffffffffffffffffffffffffffff021916908373ffffffffffffffffffffffffffffffffffffffff1602179055505050565b600082821115151561363e57fe5b818303905092915050565b600073ffffffffffffffffffffffffffffffffffffffff1660008083815260200190815260200160002060009054906101000a900473ffffffffffffffffffffffffffffffffffffffff1673ffffffffffffffffffffffffffffffffffffffff161415156136b657600080fd5b8160008083815260200190815260200160002060006101000a81548173ffffffffffffffffffffffffffffffffffffffff021916908373ffffffffffffffffffffffffffffffffffffffff16021790555061375a6001600260008573ffffffffffffffffffffffffffffffffffffffff1673ffffffffffffffffffffffffffffffffffffffff168152602001908152602001600020546137b490919063ffffffff16565b600260008473ffffffffffffffffffffffffffffffffffffffff1673ffffffffffffffffffffffffffffffffffffffff168152602001908152602001600020819055505050565b600080823b905060008111915050919050565b60008082840190508381101515156137c857fe5b8091505092915050565b602060405190810160405280600081525090565b60c0604051908101604052806137fa613a10565b81526020016000600581111561380c57fe5b8152602001600081525090565b815481835581811511613846576006028160060283600052602060002091820191016138459190613a4b565b5b505050565b828054600181600116156101000203166002900490600052602060002090601f016020900481019282601f1061388c57805160ff19168380011785556138ba565b828001600101855582156138ba579182015b828111156138b957825182559160200191906001019061389e565b5b5090506138c79190613ac5565b5090565b6080604051908101604052806138df613aea565b81526020016138ec613aea565b81526020016138f9613aea565b8152602001600081525090565b815481835581811511613933576004028160040283600052602060002091820191016139329190613afe565b5b505050565b828054600181600116156101000203166002900490600052602060002090601f016020900481019282601f1061397957805160ff19168380011785556139a7565b828001600101855582156139a7579182015b828111156139a657825182559160200191906001019061398b565b5b5090506139b49190613ac5565b5090565b8154818355818115116139df578183600052602060002091820191016139de9190613ac5565b5b505050565b815481835581811511613a0b57818360005260206000209182019101613a0a9190613ac5565b5b505050565b608060405190810160405280613a24613aea565b8152602001613a31613aea565b8152602001613a3e613aea565b8152602001600081525090565b613ac291905b80821115613abe57600080820160008082016000613a6f9190613b55565b600182016000613a7f9190613b55565b600282016000613a8f9190613b55565b600382016000905550506004820160006101000a81549060ff0219169055600582016000905550600601613a51565b5090565b90565b613ae791905b80821115613ae3576000816000905550600101613acb565b5090565b90565b602060405190810160405280600081525090565b613b5291905b80821115613b4e5760008082016000613b1d9190613b55565b600182016000613b2d9190613b55565b600282016000613b3d9190613b55565b600382016000905550600401613b04565b5090565b90565b50805460018160011615610100020316600290046000825580601f10613b7b5750613b9a565b601f016020900490600052602060002090810190613b999190613ac5565b5b505600a165627a7a72305820b0acfa7c06f44180fa720b0e4f7c9c84e406670158fc3a28b570c5ca9a9e36110029",
  "source": "pragma solidity ^0.4.19;\n\nimport \"zeppelin-solidity/contracts/ownership/Ownable.sol\";\nimport \"zeppelin-solidity/contracts/lifecycle/Destructible.sol\";\nimport \"zeppelin-solidity/contracts/token/ERC721/ERC721Token.sol\";\nimport \"zeppelin-solidity/contracts/math/SafeMath.sol\";\nimport \"zeppelin-solidity/contracts/AddressUtils.sol\";\nimport \"zeppelin-solidity/contracts/lifecycle/Pausable.sol\";\n\n\ncontract NIL2 is ERC721Token, Ownable, Pausable, Destructible {\n\n    using SafeMath for uint256;\n    using AddressUtils for address;\n\n    string internal contractName_;\n    string internal contractCID_;\n    mapping (string => string) parameters_;\n    address internal byuer_;\n    address internal supplier_;\n\n    enum goodState {Ordered, Manufacturing, Manufactured, Delivery, Delivered, Payed}\n\n    event GoodAdded(string name, string CID, uint price);\n    event ParameterAdded(string param, string value);\n    event ByuerMadeOrder(uint goodID, uint timestamp);\n\n    struct GoodInfo {\n        string name;\n        string description;\n        string CID;\n        uint price;\n    }\n\n    struct Order {\n        GoodInfo good;\n        goodState state;\n        uint orderTimestamp;\n    }\n\n    GoodInfo[] internal supplierGoods;\n    Order[] internal orders;\n\n    function NIL2(\n        string _contractName,\n        string _supplierSymbol,\n        string _contractCID,\n        address _byuer,\n        address _supplier\n    )\n        ERC721Token(_contractName, _supplierSymbol)\n        public\n        payable\n    {\n        contractName_ = _contractName;\n        contractCID_ = _contractCID;\n        byuer_ = _byuer;\n        supplier_ = _supplier;\n    }\n\n    function getContractName()\n        public\n        view\n        returns (string name)\n    {\n        return contractName_;\n    }\n\n    function getContractCID()\n        public\n        view\n        returns (string CID)\n    {\n        return contractCID_;\n    }\n\n    function getByuer()\n        public\n        view\n        returns (address byuer)\n    {\n        return byuer_;\n    }\n\n    function getSupplier()\n        public\n        view\n        returns (address supplier)\n    {\n        return supplier_;\n    }\n\n    function getParameter(string _param)\n        public\n        view\n        returns (string value)\n    {\n        return parameters_[_param];\n    }\n\n    function addContractParameter(string param_, string value_)\n        public\n        onlyOwner\n    {\n        parameters_[param_] = value_;\n\n        ParameterAdded(param_, value_);\n    }\n\n    function addGood(string name_, string description_, string CID_, uint price_)\n        public\n    {\n        require(msg.sender == supplier_);\n        GoodInfo memory good = (GoodInfo(\n        {\n            name: name_,\n            description: description_,\n            CID: CID_,\n            price: price_\n        }));\n        supplierGoods.push(good);\n\n        GoodAdded(name_, CID_, price_);\n    }\n\n    function getGoodInfo(uint _goodID)\n        public\n        view\n        returns(string, string, string, uint)\n    {\n        return (\n            supplierGoods[_goodID].name,\n            supplierGoods[_goodID].description,\n            supplierGoods[_goodID].CID,\n            supplierGoods[_goodID].price\n        );\n    }\n\n    function makeOrder(uint _goodID)\n        public\n        payable\n        returns (uint ID)\n    {\n        require(msg.sender == byuer_);\n        require(msg.value == supplierGoods[_goodID].price);\n\n        Order memory order = (Order(\n        {\n            good: supplierGoods[_goodID],\n            state: goodState.Ordered,\n            orderTimestamp: block.timestamp\n        }));\n\n        uint orderID = orders.push(order) - 1;\n        _mint(supplier_, orderID);\n\n        ByuerMadeOrder(_goodID, block.timestamp);\n\n        return orderID;\n    }\n\n    function getOrder(uint _orderID)\n        public\n        view\n        returns (string, string, uint, uint, goodState)\n    {\n        return(\n            orders[_orderID].good.name,\n            orders[_orderID].good.CID,\n            orders[_orderID].good.price,\n            orders[_orderID].orderTimestamp,\n            orders[_orderID].state\n        );\n    }\n}\n",
  "sourcePath": "/Users/andrey/projects/cyberFund/hackaton/NIL-2/contracts/NIL2.sol",
  "compiler": {
    "name": "solc",
    "version": "0.4.19+commit.c4cbbb05.Emscripten.clang"
  },
  "schemaVersion": "2.0.0",
  "updatedAt": "2018-04-21T11:59:52.937Z"
}