{
  "contractName": "NIL2",
  "abi": [
    {
      "constant": true,
      "inputs": [],
      "name": "name",
      "outputs": [
        {
          "name": "",
          "type": "string"
        }
      ],
      "payable": false,
      "stateMutability": "view",
      "type": "function"
    },
    {
      "constant": true,
      "inputs": [],
      "name": "linkSourceCode",
      "outputs": [
        {
          "name": "",
          "type": "string"
        }
      ],
      "payable": false,
      "stateMutability": "view",
      "type": "function"
    },
    {
      "constant": true,
      "inputs": [
        {
          "name": "_tokenId",
          "type": "uint256"
        }
      ],
      "name": "getApproved",
      "outputs": [
        {
          "name": "",
          "type": "address"
        }
      ],
      "payable": false,
      "stateMutability": "view",
      "type": "function"
    },
    {
      "constant": false,
      "inputs": [
        {
          "name": "_to",
          "type": "address"
        },
        {
          "name": "_tokenId",
          "type": "uint256"
        }
      ],
      "name": "approve",
      "outputs": [],
      "payable": false,
      "stateMutability": "nonpayable",
      "type": "function"
    },
    {
      "constant": true,
      "inputs": [],
      "name": "totalSupply",
      "outputs": [
        {
          "name": "",
          "type": "uint256"
        }
      ],
      "payable": false,
      "stateMutability": "view",
      "type": "function"
    },
    {
      "constant": false,
      "inputs": [
        {
          "name": "_from",
          "type": "address"
        },
        {
          "name": "_to",
          "type": "address"
        },
        {
          "name": "_tokenId",
          "type": "uint256"
        }
      ],
      "name": "transferFrom",
      "outputs": [],
      "payable": false,
      "stateMutability": "nonpayable",
      "type": "function"
    },
    {
      "constant": true,
      "inputs": [
        {
          "name": "_owner",
          "type": "address"
        },
        {
          "name": "_index",
          "type": "uint256"
        }
      ],
      "name": "tokenOfOwnerByIndex",
      "outputs": [
        {
          "name": "",
          "type": "uint256"
        }
      ],
      "payable": false,
      "stateMutability": "view",
      "type": "function"
    },
    {
      "constant": false,
      "inputs": [],
      "name": "unpause",
      "outputs": [],
      "payable": false,
      "stateMutability": "nonpayable",
      "type": "function"
    },
    {
      "constant": false,
      "inputs": [
        {
          "name": "_from",
          "type": "address"
        },
        {
          "name": "_to",
          "type": "address"
        },
        {
          "name": "_tokenId",
          "type": "uint256"
        }
      ],
      "name": "safeTransferFrom",
      "outputs": [],
      "payable": false,
      "stateMutability": "nonpayable",
      "type": "function"
    },
    {
      "constant": true,
      "inputs": [],
      "name": "linkMeta",
      "outputs": [
        {
          "name": "",
          "type": "string"
        }
      ],
      "payable": false,
      "stateMutability": "view",
      "type": "function"
    },
    {
      "constant": true,
      "inputs": [
        {
          "name": "_tokenId",
          "type": "uint256"
        }
      ],
      "name": "exists",
      "outputs": [
        {
          "name": "",
          "type": "bool"
        }
      ],
      "payable": false,
      "stateMutability": "view",
      "type": "function"
    },
    {
      "constant": true,
      "inputs": [
        {
          "name": "_index",
          "type": "uint256"
        }
      ],
      "name": "tokenByIndex",
      "outputs": [
        {
          "name": "",
          "type": "uint256"
        }
      ],
      "payable": false,
      "stateMutability": "view",
      "type": "function"
    },
    {
      "constant": true,
      "inputs": [],
      "name": "paused",
      "outputs": [
        {
          "name": "",
          "type": "bool"
        }
      ],
      "payable": false,
      "stateMutability": "view",
      "type": "function"
    },
    {
      "constant": true,
      "inputs": [
        {
          "name": "_tokenId",
          "type": "uint256"
        }
      ],
      "name": "ownerOf",
      "outputs": [
        {
          "name": "",
          "type": "address"
        }
      ],
      "payable": false,
      "stateMutability": "view",
      "type": "function"
    },
    {
      "constant": false,
      "inputs": [
        {
          "name": "_linkMeta",
          "type": "string"
        }
      ],
      "name": "setMetaLink",
      "outputs": [],
      "payable": false,
      "stateMutability": "nonpayable",
      "type": "function"
    },
    {
      "constant": true,
      "inputs": [
        {
          "name": "_owner",
          "type": "address"
        }
      ],
      "name": "balanceOf",
      "outputs": [
        {
          "name": "",
          "type": "uint256"
        }
      ],
      "payable": false,
      "stateMutability": "view",
      "type": "function"
    },
    {
      "constant": false,
      "inputs": [],
      "name": "destroy",
      "outputs": [],
      "payable": false,
      "stateMutability": "nonpayable",
      "type": "function"
    },
    {
      "constant": false,
      "inputs": [
        {
          "name": "_linkSourceCode",
          "type": "string"
        }
      ],
      "name": "setSourceLink",
      "outputs": [],
      "payable": false,
      "stateMutability": "nonpayable",
      "type": "function"
    },
    {
      "constant": false,
      "inputs": [],
      "name": "pause",
      "outputs": [],
      "payable": false,
      "stateMutability": "nonpayable",
      "type": "function"
    },
    {
      "constant": true,
      "inputs": [],
      "name": "owner",
      "outputs": [
        {
          "name": "",
          "type": "address"
        }
      ],
      "payable": false,
      "stateMutability": "view",
      "type": "function"
    },
    {
      "constant": true,
      "inputs": [],
      "name": "symbol",
      "outputs": [
        {
          "name": "",
          "type": "string"
        }
      ],
      "payable": false,
      "stateMutability": "view",
      "type": "function"
    },
    {
      "constant": true,
      "inputs": [],
      "name": "linkABI",
      "outputs": [
        {
          "name": "",
          "type": "string"
        }
      ],
      "payable": false,
      "stateMutability": "view",
      "type": "function"
    },
    {
      "constant": false,
      "inputs": [
        {
          "name": "_to",
          "type": "address"
        },
        {
          "name": "_approved",
          "type": "bool"
        }
      ],
      "name": "setApprovalForAll",
      "outputs": [],
      "payable": false,
      "stateMutability": "nonpayable",
      "type": "function"
    },
    {
      "constant": false,
      "inputs": [
        {
          "name": "_linkABI",
          "type": "string"
        }
      ],
      "name": "updateABILink",
      "outputs": [],
      "payable": false,
      "stateMutability": "nonpayable",
      "type": "function"
    },
    {
      "constant": false,
      "inputs": [
        {
          "name": "_from",
          "type": "address"
        },
        {
          "name": "_to",
          "type": "address"
        },
        {
          "name": "_tokenId",
          "type": "uint256"
        },
        {
          "name": "_data",
          "type": "bytes"
        }
      ],
      "name": "safeTransferFrom",
      "outputs": [],
      "payable": false,
      "stateMutability": "nonpayable",
      "type": "function"
    },
    {
      "constant": true,
      "inputs": [
        {
          "name": "_tokenId",
          "type": "uint256"
        }
      ],
      "name": "tokenURI",
      "outputs": [
        {
          "name": "",
          "type": "string"
        }
      ],
      "payable": false,
      "stateMutability": "view",
      "type": "function"
    },
    {
      "constant": true,
      "inputs": [
        {
          "name": "_owner",
          "type": "address"
        },
        {
          "name": "_operator",
          "type": "address"
        }
      ],
      "name": "isApprovedForAll",
      "outputs": [
        {
          "name": "",
          "type": "bool"
        }
      ],
      "payable": false,
      "stateMutability": "view",
      "type": "function"
    },
    {
      "constant": false,
      "inputs": [
        {
          "name": "newOwner",
          "type": "address"
        }
      ],
      "name": "transferOwnership",
      "outputs": [],
      "payable": false,
      "stateMutability": "nonpayable",
      "type": "function"
    },
    {
      "constant": false,
      "inputs": [
        {
          "name": "_recipient",
          "type": "address"
        }
      ],
      "name": "destroyAndSend",
      "outputs": [],
      "payable": false,
      "stateMutability": "nonpayable",
      "type": "function"
    },
    {
      "inputs": [
        {
          "name": "_contractName",
          "type": "string"
        },
        {
          "name": "_supplierSymbol",
          "type": "string"
        },
        {
          "name": "_contractCID",
          "type": "string"
        },
        {
          "name": "_byuer",
          "type": "address"
        },
        {
          "name": "_supplier",
          "type": "address"
        }
      ],
      "payable": true,
      "stateMutability": "payable",
      "type": "constructor"
    },
    {
      "anonymous": false,
      "inputs": [
        {
          "indexed": false,
          "name": "name",
          "type": "string"
        },
        {
          "indexed": false,
          "name": "CID",
          "type": "string"
        },
        {
          "indexed": false,
          "name": "price",
          "type": "uint256"
        }
      ],
      "name": "GoodAdded",
      "type": "event"
    },
    {
      "anonymous": false,
      "inputs": [
        {
          "indexed": false,
          "name": "param",
          "type": "string"
        },
        {
          "indexed": false,
          "name": "value",
          "type": "string"
        }
      ],
      "name": "ParameterAdded",
      "type": "event"
    },
    {
      "anonymous": false,
      "inputs": [
        {
          "indexed": false,
          "name": "goodID",
          "type": "uint256"
        },
        {
          "indexed": false,
          "name": "timestamp",
          "type": "uint256"
        }
      ],
      "name": "ByuerMadeOrder",
      "type": "event"
    },
    {
      "anonymous": false,
      "inputs": [
        {
          "indexed": false,
          "name": "orderID",
          "type": "uint256"
        },
        {
          "indexed": false,
          "name": "orderState",
          "type": "uint256"
        }
      ],
      "name": "SupplierUpdatedOrderState",
      "type": "event"
    },
    {
      "anonymous": false,
      "inputs": [
        {
          "indexed": false,
          "name": "orderID",
          "type": "uint256"
        }
      ],
      "name": "ByuerConfirmedDelivery",
      "type": "event"
    },
    {
      "anonymous": false,
      "inputs": [
        {
          "indexed": false,
          "name": "orderID",
          "type": "uint256"
        }
      ],
      "name": "ByuerTransferPayment",
      "type": "event"
    },
    {
      "anonymous": false,
      "inputs": [],
      "name": "Pause",
      "type": "event"
    },
    {
      "anonymous": false,
      "inputs": [],
      "name": "Unpause",
      "type": "event"
    },
    {
      "anonymous": false,
      "inputs": [
        {
          "indexed": false,
          "name": "linkMeta",
          "type": "string"
        }
      ],
      "name": "MetaLinkUpdated",
      "type": "event"
    },
    {
      "anonymous": false,
      "inputs": [
        {
          "indexed": false,
          "name": "linkABI",
          "type": "string"
        }
      ],
      "name": "ABILinkUpdated",
      "type": "event"
    },
    {
      "anonymous": false,
      "inputs": [
        {
          "indexed": false,
          "name": "linkSource",
          "type": "string"
        }
      ],
      "name": "SourceLinkUpdated",
      "type": "event"
    },
    {
      "anonymous": false,
      "inputs": [
        {
          "indexed": true,
          "name": "previousOwner",
          "type": "address"
        },
        {
          "indexed": true,
          "name": "newOwner",
          "type": "address"
        }
      ],
      "name": "OwnershipTransferred",
      "type": "event"
    },
    {
      "anonymous": false,
      "inputs": [
        {
          "indexed": true,
          "name": "_from",
          "type": "address"
        },
        {
          "indexed": true,
          "name": "_to",
          "type": "address"
        },
        {
          "indexed": false,
          "name": "_tokenId",
          "type": "uint256"
        }
      ],
      "name": "Transfer",
      "type": "event"
    },
    {
      "anonymous": false,
      "inputs": [
        {
          "indexed": true,
          "name": "_owner",
          "type": "address"
        },
        {
          "indexed": true,
          "name": "_approved",
          "type": "address"
        },
        {
          "indexed": false,
          "name": "_tokenId",
          "type": "uint256"
        }
      ],
      "name": "Approval",
      "type": "event"
    },
    {
      "anonymous": false,
      "inputs": [
        {
          "indexed": true,
          "name": "_owner",
          "type": "address"
        },
        {
          "indexed": true,
          "name": "_operator",
          "type": "address"
        },
        {
          "indexed": false,
          "name": "_approved",
          "type": "bool"
        }
      ],
      "name": "ApprovalForAll",
      "type": "event"
    },
    {
      "constant": true,
      "inputs": [],
      "name": "getContractName",
      "outputs": [
        {
          "name": "name",
          "type": "string"
        }
      ],
      "payable": false,
      "stateMutability": "view",
      "type": "function"
    },
    {
      "constant": true,
      "inputs": [],
      "name": "getContractCID",
      "outputs": [
        {
          "name": "CID",
          "type": "string"
        }
      ],
      "payable": false,
      "stateMutability": "view",
      "type": "function"
    },
    {
      "constant": true,
      "inputs": [],
      "name": "getByuer",
      "outputs": [
        {
          "name": "byuer",
          "type": "address"
        }
      ],
      "payable": false,
      "stateMutability": "view",
      "type": "function"
    },
    {
      "constant": true,
      "inputs": [],
      "name": "getSupplier",
      "outputs": [
        {
          "name": "supplier",
          "type": "address"
        }
      ],
      "payable": false,
      "stateMutability": "view",
      "type": "function"
    },
    {
      "constant": true,
      "inputs": [
        {
          "name": "_param",
          "type": "string"
        }
      ],
      "name": "getParameter",
      "outputs": [
        {
          "name": "value",
          "type": "string"
        }
      ],
      "payable": false,
      "stateMutability": "view",
      "type": "function"
    },
    {
      "constant": true,
      "inputs": [],
      "name": "getParametersAmount",
      "outputs": [
        {
          "name": "amount",
          "type": "uint256"
        }
      ],
      "payable": false,
      "stateMutability": "view",
      "type": "function"
    },
    {
      "constant": false,
      "inputs": [
        {
          "name": "param_",
          "type": "string"
        },
        {
          "name": "value_",
          "type": "string"
        }
      ],
      "name": "addContractParameter",
      "outputs": [],
      "payable": false,
      "stateMutability": "nonpayable",
      "type": "function"
    },
    {
      "constant": false,
      "inputs": [
        {
          "name": "name_",
          "type": "string"
        },
        {
          "name": "description_",
          "type": "string"
        },
        {
          "name": "CID_",
          "type": "string"
        },
        {
          "name": "price_",
          "type": "uint256"
        }
      ],
      "name": "addGood",
      "outputs": [],
      "payable": false,
      "stateMutability": "nonpayable",
      "type": "function"
    },
    {
      "constant": true,
      "inputs": [
        {
          "name": "_goodID",
          "type": "uint256"
        }
      ],
      "name": "getGoodInfo",
      "outputs": [
        {
          "name": "",
          "type": "string"
        },
        {
          "name": "",
          "type": "string"
        },
        {
          "name": "",
          "type": "string"
        },
        {
          "name": "",
          "type": "uint256"
        }
      ],
      "payable": false,
      "stateMutability": "view",
      "type": "function"
    },
    {
      "constant": false,
      "inputs": [
        {
          "name": "_goodID",
          "type": "uint256"
        }
      ],
      "name": "makeOrder",
      "outputs": [
        {
          "name": "ID",
          "type": "uint256"
        }
      ],
      "payable": true,
      "stateMutability": "payable",
      "type": "function"
    },
    {
      "constant": true,
      "inputs": [
        {
          "name": "_orderID",
          "type": "uint256"
        }
      ],
      "name": "getOrder",
      "outputs": [
        {
          "name": "",
          "type": "string"
        },
        {
          "name": "",
          "type": "string"
        },
        {
          "name": "",
          "type": "uint256"
        },
        {
          "name": "",
          "type": "uint256"
        },
        {
          "name": "",
          "type": "uint8"
        }
      ],
      "payable": false,
      "stateMutability": "view",
      "type": "function"
    },
    {
      "constant": false,
      "inputs": [
        {
          "name": "_orderID",
          "type": "uint256"
        },
        {
          "name": "_orderState",
          "type": "uint256"
        }
      ],
      "name": "supplierUpdateManufacturingState",
      "outputs": [],
      "payable": false,
      "stateMutability": "nonpayable",
      "type": "function"
    },
    {
      "constant": false,
      "inputs": [
        {
          "name": "_orderID",
          "type": "uint256"
        },
        {
          "name": "_message",
          "type": "bytes32"
        }
      ],
      "name": "supplierStartDelivery",
      "outputs": [],
      "payable": false,
      "stateMutability": "nonpayable",
      "type": "function"
    },
    {
      "constant": false,
      "inputs": [
        {
          "name": "_orderID",
          "type": "uint256"
        },
        {
          "name": "_hash",
          "type": "bytes32"
        },
        {
          "name": "_v",
          "type": "uint8"
        },
        {
          "name": "_r",
          "type": "bytes32"
        },
        {
          "name": "_s",
          "type": "bytes32"
        }
      ],
      "name": "byuerConfirmedDelivery",
      "outputs": [],
      "payable": false,
      "stateMutability": "nonpayable",
      "type": "function"
    }
  ],
  "bytecode": "0x60606040526000600f60006101000a81548160ff02191690831515021790555060405162004c9038038062004c9083398101604052808051820191906020018051820191906020018051820191906020018051906020019091908051906020019091905050848481600490805190602001906200007e9291906200019a565b508060059080519060200190620000979291906200019a565b50505033600b60006101000a81548173ffffffffffffffffffffffffffffffffffffffff021916908373ffffffffffffffffffffffffffffffffffffffff1602179055508460109080519060200190620000f39291906200019a565b5082601190805190602001906200010c9291906200019a565b5081601460006101000a81548173ffffffffffffffffffffffffffffffffffffffff021916908373ffffffffffffffffffffffffffffffffffffffff16021790555080601560006101000a81548173ffffffffffffffffffffffffffffffffffffffff021916908373ffffffffffffffffffffffffffffffffffffffff160217905550505050505062000249565b828054600181600116156101000203166002900490600052602060002090601f016020900481019282601f10620001dd57805160ff19168380011785556200020e565b828001600101855582156200020e579182015b828111156200020d578251825591602001919060010190620001f0565b5b5090506200021d919062000221565b5090565b6200024691905b808211156200024257600081600090555060010162000228565b5090565b90565b614a3780620002596000396000f30060606040526004361061020f576000357c0100000000000000000000000000000000000000000000000000000000900463ffffffff1680630525cafa1461021457806306fdde03146102a257806307b1f8f714610330578063081812fc146103be578063095ea7b31461042157806318160ddd146104635780631f0cbfb91461048c57806323300ca4146104b857806323b872dd1461050d578063298c8c921461056e5780632f745c59146105c4578063309d20811461061a57806339ca5ad01461064a5780633a684138146107365780633f4ba83a146108b157806342842e0e146108c65780634dfaf97a146109275780634f558e79146109b55780634f6ccce7146109f05780635c975abb14610a275780636352211e14610a545780636d2fd13814610ab757806370a0823114610ae557806383197ef014610b3257806383ca00ac14610b475780638456cb5914610b7557806385f145c114610b8a5780638da5cb5b14610bb657806395d89b4114610c0b5780639e647aac14610c995780639e925a7814610d6f578063a22cb46514610dfd578063acab3bd514610e41578063b88d4fde14610e6f578063c87b56dd14610f13578063cad4e39914610faf578063cdf9e33b14610fd8578063d07d1e2b1461102d578063d09ef241146110cd578063e985e9c5146111f8578063f2fde38b14611268578063f5074f41146112a1578063f5f5ba72146112da575b600080fd5b341561021f57600080fd5b610227611368565b6040518080602001828103825283818151815260200191508051906020019080838360005b8381101561026757808201518184015260208101905061024c565b50505050905090810190601f1680156102945780820380516001836020036101000a031916815260200191505b509250505060405180910390f35b34156102ad57600080fd5b6102b5611410565b6040518080602001828103825283818151815260200191508051906020019080838360005b838110156102f55780820151818401526020810190506102da565b50505050905090810190601f1680156103225780820380516001836020036101000a031916815260200191505b509250505060405180910390f35b341561033b57600080fd5b6103436114b8565b6040518080602001828103825283818151815260200191508051906020019080838360005b83811015610383578082015181840152602081019050610368565b50505050905090810190601f1680156103b05780820380516001836020036101000a031916815260200191505b509250505060405180910390f35b34156103c957600080fd5b6103df6004808035906020019091905050611560565b604051808273ffffffffffffffffffffffffffffffffffffffff1673ffffffffffffffffffffffffffffffffffffffff16815260200191505060405180910390f35b341561042c57600080fd5b610461600480803573ffffffffffffffffffffffffffffffffffffffff1690602001909190803590602001909190505061159d565b005b341561046e57600080fd5b610476611763565b6040518082815260200191505060405180910390f35b6104a26004808035906020019091905050611770565b6040518082815260200191505060405180910390f35b34156104c357600080fd5b6104cb611ba1565b604051808273ffffffffffffffffffffffffffffffffffffffff1673ffffffffffffffffffffffffffffffffffffffff16815260200191505060405180910390f35b341561051857600080fd5b61056c600480803573ffffffffffffffffffffffffffffffffffffffff1690602001909190803573ffffffffffffffffffffffffffffffffffffffff16906020019091908035906020019091905050611bcb565b005b341561057957600080fd5b6105c260048080359060200190919080356000191690602001909190803560ff169060200190919080356000191690602001909190803560001916906020019091905050611ce2565b005b34156105cf57600080fd5b610604600480803573ffffffffffffffffffffffffffffffffffffffff16906020019091908035906020019091905050611e96565b6040518082815260200191505060405180910390f35b341561062557600080fd5b610648600480803590602001909190803560001916906020019091905050611f0e565b005b341561065557600080fd5b610734600480803590602001908201803590602001908080601f0160208091040260200160405190810160405280939291908181526020018383808284378201915050505050509190803590602001908201803590602001908080601f0160208091040260200160405190810160405280939291908181526020018383808284378201915050505050509190803590602001908201803590602001908080601f01602080910402602001604051908101604052809392919081815260200183838082843782019150505050505091908035906020019091905050611fe0565b005b341561074157600080fd5b610757600480803590602001909190505061220e565b60405180806020018060200180602001858152602001848103845288818151815260200191508051906020019080838360005b838110156107a557808201518184015260208101905061078a565b50505050905090810190601f1680156107d25780820380516001836020036101000a031916815260200191505b50848103835287818151815260200191508051906020019080838360005b8381101561080b5780820151818401526020810190506107f0565b50505050905090810190601f1680156108385780820380516001836020036101000a031916815260200191505b50848103825286818151815260200191508051906020019080838360005b83811015610871578082015181840152602081019050610856565b50505050905090810190601f16801561089e5780820380516001836020036101000a031916815260200191505b5097505050505050505060405180910390f35b34156108bc57600080fd5b6108c461248c565b005b34156108d157600080fd5b610925600480803573ffffffffffffffffffffffffffffffffffffffff1690602001909190803573ffffffffffffffffffffffffffffffffffffffff1690602001909190803590602001909190505061254c565b005b341561093257600080fd5b61093a612584565b6040518080602001828103825283818151815260200191508051906020019080838360005b8381101561097a57808201518184015260208101905061095f565b50505050905090810190601f1680156109a75780820380516001836020036101000a031916815260200191505b509250505060405180910390f35b34156109c057600080fd5b6109d6600480803590602001909190505061262c565b604051808215151515815260200191505060405180910390f35b34156109fb57600080fd5b610a11600480803590602001909190505061269d565b6040518082815260200191505060405180910390f35b3415610a3257600080fd5b610a3a6126d6565b604051808215151515815260200191505060405180910390f35b3415610a5f57600080fd5b610a7560048080359060200190919050506126e9565b604051808273ffffffffffffffffffffffffffffffffffffffff1673ffffffffffffffffffffffffffffffffffffffff16815260200191505060405180910390f35b3415610ac257600080fd5b610ae360048080359060200190820180359060200191909192905050612766565b005b3415610af057600080fd5b610b1c600480803573ffffffffffffffffffffffffffffffffffffffff16906020019091905050612829565b6040518082815260200191505060405180910390f35b3415610b3d57600080fd5b610b456128ad565b005b3415610b5257600080fd5b610b7360048080359060200190820180359060200191909192905050612944565b005b3415610b8057600080fd5b610b88612a07565b005b3415610b9557600080fd5b610bb46004808035906020019091908035906020019091905050612ac8565b005b3415610bc157600080fd5b610bc9612bfa565b604051808273ffffffffffffffffffffffffffffffffffffffff1673ffffffffffffffffffffffffffffffffffffffff16815260200191505060405180910390f35b3415610c1657600080fd5b610c1e612c20565b6040518080602001828103825283818151815260200191508051906020019080838360005b83811015610c5e578082015181840152602081019050610c43565b50505050905090810190601f168015610c8b5780820380516001836020036101000a031916815260200191505b509250505060405180910390f35b3415610ca457600080fd5b610cf4600480803590602001908201803590602001908080601f01602080910402602001604051908101604052809392919081815260200183838082843782019150505050505091905050612cc8565b6040518080602001828103825283818151815260200191508051906020019080838360005b83811015610d34578082015181840152602081019050610d19565b50505050905090810190601f168015610d615780820380516001836020036101000a031916815260200191505b509250505060405180910390f35b3415610d7a57600080fd5b610d82612ddb565b6040518080602001828103825283818151815260200191508051906020019080838360005b83811015610dc2578082015181840152602081019050610da7565b50505050905090810190601f168015610def5780820380516001836020036101000a031916815260200191505b509250505060405180910390f35b3415610e0857600080fd5b610e3f600480803573ffffffffffffffffffffffffffffffffffffffff169060200190919080351515906020019091905050612e83565b005b3415610e4c57600080fd5b610e6d60048080359060200190820180359060200191909192905050612fbf565b005b3415610e7a57600080fd5b610f11600480803573ffffffffffffffffffffffffffffffffffffffff1690602001909190803573ffffffffffffffffffffffffffffffffffffffff1690602001909190803590602001909190803590602001908201803590602001908080601f01602080910402602001604051908101604052809392919081815260200183838082843782019150505050505091905050613082565b005b3415610f1e57600080fd5b610f3460048080359060200190919050506130c1565b6040518080602001828103825283818151815260200191508051906020019080838360005b83811015610f74578082015181840152602081019050610f59565b50505050905090810190601f168015610fa15780820380516001836020036101000a031916815260200191505b509250505060405180910390f35b3415610fba57600080fd5b610fc2613190565b6040518082815260200191505060405180910390f35b3415610fe357600080fd5b610feb61319d565b604051808273ffffffffffffffffffffffffffffffffffffffff1673ffffffffffffffffffffffffffffffffffffffff16815260200191505060405180910390f35b341561103857600080fd5b6110cb600480803590602001908201803590602001908080601f0160208091040260200160405190810160405280939291908181526020018383808284378201915050505050509190803590602001908201803590602001908080601f016020809104026020016040519081016040528093929190818152602001838380828437820191505050505050919050506131c7565b005b34156110d857600080fd5b6110ee60048080359060200190919050506133ec565b60405180806020018060200186815260200185815260200184600581111561111257fe5b60ff168152602001838103835288818151815260200191508051906020019080838360005b83811015611152578082015181840152602081019050611137565b50505050905090810190601f16801561117f5780820380516001836020036101000a031916815260200191505b50838103825287818151815260200191508051906020019080838360005b838110156111b857808201518184015260208101905061119d565b50505050905090810190601f1680156111e55780820380516001836020036101000a031916815260200191505b5097505050505050505060405180910390f35b341561120357600080fd5b61124e600480803573ffffffffffffffffffffffffffffffffffffffff1690602001909190803573ffffffffffffffffffffffffffffffffffffffff16906020019091905050613605565b604051808215151515815260200191505060405180910390f35b341561127357600080fd5b61129f600480803573ffffffffffffffffffffffffffffffffffffffff16906020019091905050613699565b005b34156112ac57600080fd5b6112d8600480803573ffffffffffffffffffffffffffffffffffffffff169060200190919050506137f1565b005b34156112e557600080fd5b6112ed613866565b6040518080602001828103825283818151815260200191508051906020019080838360005b8381101561132d578082015181840152602081019050611312565b50505050905090810190601f16801561135a5780820380516001836020036101000a031916815260200191505b509250505060405180910390f35b611370614568565b60118054600181600116156101000203166002900480601f0160208091040260200160405190810160405280929190818152602001828054600181600116156101000203166002900480156114065780601f106113db57610100808354040283529160200191611406565b820191906000526020600020905b8154815290600101906020018083116113e957829003601f168201915b5050505050905090565b611418614568565b60048054600181600116156101000203166002900480601f0160208091040260200160405190810160405280929190818152602001828054600181600116156101000203166002900480156114ae5780601f10611483576101008083540402835291602001916114ae565b820191906000526020600020905b81548152906001019060200180831161149157829003601f168201915b5050505050905090565b6114c0614568565b600e8054600181600116156101000203166002900480601f0160208091040260200160405190810160405280929190818152602001828054600181600116156101000203166002900480156115565780601f1061152b57610100808354040283529160200191611556565b820191906000526020600020905b81548152906001019060200180831161153957829003601f168201915b5050505050905090565b60006001600083815260200190815260200160002060009054906101000a900473ffffffffffffffffffffffffffffffffffffffff169050919050565b60006115a8826126e9565b90508073ffffffffffffffffffffffffffffffffffffffff168373ffffffffffffffffffffffffffffffffffffffff16141515156115e557600080fd5b8073ffffffffffffffffffffffffffffffffffffffff163373ffffffffffffffffffffffffffffffffffffffff16148061162557506116248133613605565b5b151561163057600080fd5b600073ffffffffffffffffffffffffffffffffffffffff1661165183611560565b73ffffffffffffffffffffffffffffffffffffffff161415806116a15750600073ffffffffffffffffffffffffffffffffffffffff168373ffffffffffffffffffffffffffffffffffffffff1614155b1561175e57826001600084815260200190815260200160002060006101000a81548173ffffffffffffffffffffffffffffffffffffffff021916908373ffffffffffffffffffffffffffffffffffffffff1602179055508273ffffffffffffffffffffffffffffffffffffffff168173ffffffffffffffffffffffffffffffffffffffff167f8c5be1e5ebec7d5bd14f71427d1e84f3dd0314c0f7b2291e5b200ac8c7c3b925846040518082815260200191505060405180910390a35b505050565b6000600880549050905090565b600061177a61457c565b6000601460009054906101000a900473ffffffffffffffffffffffffffffffffffffffff1673ffffffffffffffffffffffffffffffffffffffff163373ffffffffffffffffffffffffffffffffffffffff161415156117d857600080fd5b600a6013805490501415156117ec57600080fd5b6017848154811015156117fb57fe5b9060005260206000209060040201600301543414151561181a57600080fd5b60606040519081016040528060178681548110151561183557fe5b906000526020600020906004020160806040519081016040529081600082018054600181600116156101000203166002900480601f0160208091040260200160405190810160405280929190818152602001828054600181600116156101000203166002900480156118e85780601f106118bd576101008083540402835291602001916118e8565b820191906000526020600020905b8154815290600101906020018083116118cb57829003601f168201915b50505050508152602001600182018054600181600116156101000203166002900480601f01602080910402602001604051908101604052809291908181526020018280546001816001161561010002031660029004801561198a5780601f1061195f5761010080835404028352916020019161198a565b820191906000526020600020905b81548152906001019060200180831161196d57829003601f168201915b50505050508152602001600282018054600181600116156101000203166002900480601f016020809104026020016040519081016040528092919081815260200182805460018160011615610100020316600290048015611a2c5780601f10611a0157610100808354040283529160200191611a2c565b820191906000526020600020905b815481529060010190602001808311611a0f57829003601f168201915b50505050508152602001600382015481525050815260200160006005811115611a5157fe5b8152602001428152509150600160188054806001018281611a7291906145af565b916000526020600020906006020160008590919091506000820151816000016000820151816000019080519060200190611aad9291906145e1565b506020820151816001019080519060200190611aca9291906145e1565b506040820151816002019080519060200190611ae79291906145e1565b5060608201518160030155505060208201518160040160006101000a81548160ff02191690836005811115611b1857fe5b0217905550604082015181600501555050039050611b58601560009054906101000a900473ffffffffffffffffffffffffffffffffffffffff168261390e565b7ff1d542d1e8d64ae8d9aa6c51c4cecbd3ca17548d2800e0c55cfd76d35cc31a1e8442604051808381526020018281526020019250505060405180910390a18092505050919050565b6000601560009054906101000a900473ffffffffffffffffffffffffffffffffffffffff16905090565b80611bd63382613962565b1515611be157600080fd5b600073ffffffffffffffffffffffffffffffffffffffff168473ffffffffffffffffffffffffffffffffffffffff1614151515611c1d57600080fd5b600073ffffffffffffffffffffffffffffffffffffffff168373ffffffffffffffffffffffffffffffffffffffff1614151515611c5957600080fd5b611c6384836139f7565b611c6d8483613b60565b611c778383613d7b565b8273ffffffffffffffffffffffffffffffffffffffff168473ffffffffffffffffffffffffffffffffffffffff167fddf252ad1be2c89b69c2b068fc378daa952ba7f163c4a11628f55a4df523b3ef846040518082815260200191505060405180910390a350505050565b600a601380549050141515611cf657600080fd5b601460009054906101000a900473ffffffffffffffffffffffffffffffffffffffff1673ffffffffffffffffffffffffffffffffffffffff163373ffffffffffffffffffffffffffffffffffffffff16141515611d5257600080fd5b8360001916601660008781526020019081526020016000205460001916141515611d7b57600080fd5b611daa601460009054906101000a900473ffffffffffffffffffffffffffffffffffffffff1685858585613e4f565b1515611db557600080fd5b6004601886815481101515611dc657fe5b906000526020600020906006020160040160006101000a81548160ff02191690836005811115611df257fe5b0217905550611e23601560009054906101000a900473ffffffffffffffffffffffffffffffffffffffff1686613b60565b611e4f601460009054906101000a900473ffffffffffffffffffffffffffffffffffffffff1686613d7b565b611e5885613f11565b7fd874b613099af8e7e8d6713dd132e17582243caf64e06907af5ccc0475408fd3856040518082815260200191505060405180910390a15050505050565b6000611ea183612829565b82101515611eae57600080fd5b600660008473ffffffffffffffffffffffffffffffffffffffff1673ffffffffffffffffffffffffffffffffffffffff16815260200190815260200160002082815481101515611efa57fe5b906000526020600020900154905092915050565b600a601380549050141515611f2257600080fd5b601560009054906101000a900473ffffffffffffffffffffffffffffffffffffffff1673ffffffffffffffffffffffffffffffffffffffff163373ffffffffffffffffffffffffffffffffffffffff16141515611f7e57600080fd5b6003601883815481101515611f8f57fe5b906000526020600020906006020160040160006101000a81548160ff02191690836005811115611fbb57fe5b0217905550806016600084815260200190815260200160002081600019169055505050565b611fe8614661565b601560009054906101000a900473ffffffffffffffffffffffffffffffffffffffff1673ffffffffffffffffffffffffffffffffffffffff163373ffffffffffffffffffffffffffffffffffffffff1614151561204457600080fd5b6080604051908101604052808681526020018581526020018481526020018381525090506017805480600101828161207c919061469c565b9160005260206000209060040201600083909190915060008201518160000190805190602001906120ae9291906145e1565b5060208201518160010190805190602001906120cb9291906145e1565b5060408201518160020190805190602001906120e89291906145e1565b50606082015181600301555050507fdf087dd188026a4df1138ae7f5d804f9c9d1fccb66fdd27ee4c44a65ccb1d319858484604051808060200180602001848152602001838103835286818151815260200191508051906020019080838360005b83811015612164578082015181840152602081019050612149565b50505050905090810190601f1680156121915780820380516001836020036101000a031916815260200191505b50838103825285818151815260200191508051906020019080838360005b838110156121ca5780820151818401526020810190506121af565b50505050905090810190601f1680156121f75780820380516001836020036101000a031916815260200191505b509550505050505060405180910390a15050505050565b612216614568565b61221e614568565b612226614568565b600060178581548110151561223757fe5b906000526020600020906004020160000160178681548110151561225757fe5b906000526020600020906004020160010160178781548110151561227757fe5b906000526020600020906004020160020160178881548110151561229757fe5b906000526020600020906004020160030154838054600181600116156101000203166002900480601f01602080910402602001604051908101604052809291908181526020018280546001816001161561010002031660029004801561233e5780601f106123135761010080835404028352916020019161233e565b820191906000526020600020905b81548152906001019060200180831161232157829003601f168201915b50505050509350828054600181600116156101000203166002900480601f0160208091040260200160405190810160405280929190818152602001828054600181600116156101000203166002900480156123da5780601f106123af576101008083540402835291602001916123da565b820191906000526020600020905b8154815290600101906020018083116123bd57829003601f168201915b50505050509250818054600181600116156101000203166002900480601f0160208091040260200160405190810160405280929190818152602001828054600181600116156101000203166002900480156124765780601f1061244b57610100808354040283529160200191612476565b820191906000526020600020905b81548152906001019060200180831161245957829003601f168201915b5050505050915093509350935093509193509193565b600b60009054906101000a900473ffffffffffffffffffffffffffffffffffffffff1673ffffffffffffffffffffffffffffffffffffffff163373ffffffffffffffffffffffffffffffffffffffff161415156124e857600080fd5b600f60009054906101000a900460ff16151561250357600080fd5b6000600f60006101000a81548160ff0219169083151502179055507f7805862f689e2f13df9f062ff482ad3ad112aca9e0847911ed832e158c525b3360405160405180910390a1565b806125573382613962565b151561256257600080fd5b61257e8484846020604051908101604052806000815250613082565b50505050565b61258c614568565b600d8054600181600116156101000203166002900480601f0160208091040260200160405190810160405280929190818152602001828054600181600116156101000203166002900480156126225780601f106125f757610100808354040283529160200191612622565b820191906000526020600020905b81548152906001019060200180831161260557829003601f168201915b5050505050905090565b60008060008084815260200190815260200160002060009054906101000a900473ffffffffffffffffffffffffffffffffffffffff169050600073ffffffffffffffffffffffffffffffffffffffff168173ffffffffffffffffffffffffffffffffffffffff161415915050919050565b60006126a7611763565b821015156126b457600080fd5b6008828154811015156126c357fe5b9060005260206000209001549050919050565b600f60009054906101000a900460ff1681565b60008060008084815260200190815260200160002060009054906101000a900473ffffffffffffffffffffffffffffffffffffffff169050600073ffffffffffffffffffffffffffffffffffffffff168173ffffffffffffffffffffffffffffffffffffffff161415151561275d57600080fd5b80915050919050565b600b60009054906101000a900473ffffffffffffffffffffffffffffffffffffffff1673ffffffffffffffffffffffffffffffffffffffff163373ffffffffffffffffffffffffffffffffffffffff161415156127c257600080fd5b8181600d91906127d39291906146ce565b507f6362a59ae98fef1a0a45d03a1127a82c2268ca380148117a052b9f8bce8e6f1e8282604051808060200182810382528484828181526020019250808284378201915050935050505060405180910390a15050565b60008073ffffffffffffffffffffffffffffffffffffffff168273ffffffffffffffffffffffffffffffffffffffff161415151561286657600080fd5b600260008373ffffffffffffffffffffffffffffffffffffffff1673ffffffffffffffffffffffffffffffffffffffff168152602001908152602001600020549050919050565b600b60009054906101000a900473ffffffffffffffffffffffffffffffffffffffff1673ffffffffffffffffffffffffffffffffffffffff163373ffffffffffffffffffffffffffffffffffffffff1614151561290957600080fd5b600b60009054906101000a900473ffffffffffffffffffffffffffffffffffffffff1673ffffffffffffffffffffffffffffffffffffffff16ff5b600b60009054906101000a900473ffffffffffffffffffffffffffffffffffffffff1673ffffffffffffffffffffffffffffffffffffffff163373ffffffffffffffffffffffffffffffffffffffff161415156129a057600080fd5b8181600e91906129b19291906146ce565b507fcfaf57d92b1b2684731a770c593d162587ca98e9d372be876ab14b389866f0f68282604051808060200182810382528484828181526020019250808284378201915050935050505060405180910390a15050565b600b60009054906101000a900473ffffffffffffffffffffffffffffffffffffffff1673ffffffffffffffffffffffffffffffffffffffff163373ffffffffffffffffffffffffffffffffffffffff16141515612a6357600080fd5b600f60009054906101000a900460ff16151515612a7f57600080fd5b6001600f60006101000a81548160ff0219169083151502179055507f6985a02210a168e66602d3235cb6db0e70f92b3ba4d376a33c0f3d9434bff62560405160405180910390a1565b600a601380549050141515612adc57600080fd5b601560009054906101000a900473ffffffffffffffffffffffffffffffffffffffff1673ffffffffffffffffffffffffffffffffffffffff163373ffffffffffffffffffffffffffffffffffffffff16141515612b3857600080fd5b8060026005811115612b4657fe5b10158015612b60575060016005811115612b5c57fe5b8110155b1515612b6b57600080fd5b806005811115612b7757fe5b601883815481101515612b8657fe5b906000526020600020906006020160040160006101000a81548160ff02191690836005811115612bb257fe5b02179055507fd432bc214507012b549be455591444ece6efc9df290a656c7ae372e9770fa9118282604051808381526020018281526020019250505060405180910390a15050565b600b60009054906101000a900473ffffffffffffffffffffffffffffffffffffffff1681565b612c28614568565b60058054600181600116156101000203166002900480601f016020809104026020016040519081016040528092919081815260200182805460018160011615610100020316600290048015612cbe5780601f10612c9357610100808354040283529160200191612cbe565b820191906000526020600020905b815481529060010190602001808311612ca157829003601f168201915b5050505050905090565b612cd0614568565b6012826040518082805190602001908083835b602083101515612d085780518252602082019150602081019050602083039250612ce3565b6001836020036101000a03801982511681845116808217855250505050505090500191505090815260200160405180910390208054600181600116156101000203166002900480601f016020809104026020016040519081016040528092919081815260200182805460018160011615610100020316600290048015612dcf5780601f10612da457610100808354040283529160200191612dcf565b820191906000526020600020905b815481529060010190602001808311612db257829003601f168201915b50505050509050919050565b612de3614568565b600c8054600181600116156101000203166002900480601f016020809104026020016040519081016040528092919081815260200182805460018160011615610100020316600290048015612e795780601f10612e4e57610100808354040283529160200191612e79565b820191906000526020600020905b815481529060010190602001808311612e5c57829003601f168201915b5050505050905090565b3373ffffffffffffffffffffffffffffffffffffffff168273ffffffffffffffffffffffffffffffffffffffff1614151515612ebe57600080fd5b80600360003373ffffffffffffffffffffffffffffffffffffffff1673ffffffffffffffffffffffffffffffffffffffff16815260200190815260200160002060008473ffffffffffffffffffffffffffffffffffffffff1673ffffffffffffffffffffffffffffffffffffffff16815260200190815260200160002060006101000a81548160ff0219169083151502179055508173ffffffffffffffffffffffffffffffffffffffff163373ffffffffffffffffffffffffffffffffffffffff167f17307eab39ab6107e8899845ad3d59bd9653f200f220920489ca2b5937696c3183604051808215151515815260200191505060405180910390a35050565b600b60009054906101000a900473ffffffffffffffffffffffffffffffffffffffff1673ffffffffffffffffffffffffffffffffffffffff163373ffffffffffffffffffffffffffffffffffffffff1614151561301b57600080fd5b8181600c919061302c9291906146ce565b507f97bc322e754962c4ff23eb8a9d58b147ead5be0347d9a799addc5a2d44564cbe8282604051808060200182810382528484828181526020019250808284378201915050935050505060405180910390a15050565b8161308d3382613962565b151561309857600080fd5b6130a3858585611bcb565b6130af85858585614012565b15156130ba57600080fd5b5050505050565b6130c9614568565b6130d28261262c565b15156130dd57600080fd5b600a60008381526020019081526020016000208054600181600116156101000203166002900480601f0160208091040260200160405190810160405280929190818152602001828054600181600116156101000203166002900480156131845780601f1061315957610100808354040283529160200191613184565b820191906000526020600020905b81548152906001019060200180831161316757829003601f168201915b50505050509050919050565b6000601380549050905090565b6000601460009054906101000a900473ffffffffffffffffffffffffffffffffffffffff16905090565b600b60009054906101000a900473ffffffffffffffffffffffffffffffffffffffff1673ffffffffffffffffffffffffffffffffffffffff163373ffffffffffffffffffffffffffffffffffffffff1614151561322357600080fd5b806012836040518082805190602001908083835b60208310151561325c5780518252602082019150602081019050602083039250613237565b6001836020036101000a038019825116818451168082178552505050505050905001915050908152602001604051809103902090805190602001906132a292919061474e565b50601380548060010182816132b791906147ce565b9160005260206000209001600084909190915090805190602001906132dd92919061474e565b50507f5ad69516aee2b1d29a4c660228ff067db85c427a079dff23d38097ae0acdde068282604051808060200180602001838103835285818151815260200191508051906020019080838360005b8381101561334657808201518184015260208101905061332b565b50505050905090810190601f1680156133735780820380516001836020036101000a031916815260200191505b50838103825284818151815260200191508051906020019080838360005b838110156133ac578082015181840152602081019050613391565b50505050905090810190601f1680156133d95780820380516001836020036101000a031916815260200191505b5094505050505060405180910390a15050565b6133f4614568565b6133fc614568565b600080600060188681548110151561341057fe5b906000526020600020906006020160000160000160188781548110151561343357fe5b906000526020600020906006020160000160020160188881548110151561345657fe5b90600052602060002090600602016000016003015460188981548110151561347a57fe5b90600052602060002090600602016005015460188a81548110151561349b57fe5b906000526020600020906006020160040160009054906101000a900460ff16848054600181600116156101000203166002900480601f01602080910402602001604051908101604052809291908181526020018280546001816001161561010002031660029004801561354f5780601f106135245761010080835404028352916020019161354f565b820191906000526020600020905b81548152906001019060200180831161353257829003601f168201915b50505050509450838054600181600116156101000203166002900480601f0160208091040260200160405190810160405280929190818152602001828054600181600116156101000203166002900480156135eb5780601f106135c0576101008083540402835291602001916135eb565b820191906000526020600020905b8154815290600101906020018083116135ce57829003601f168201915b505050505093509450945094509450945091939590929450565b6000600360008473ffffffffffffffffffffffffffffffffffffffff1673ffffffffffffffffffffffffffffffffffffffff16815260200190815260200160002060008373ffffffffffffffffffffffffffffffffffffffff1673ffffffffffffffffffffffffffffffffffffffff16815260200190815260200160002060009054906101000a900460ff16905092915050565b600b60009054906101000a900473ffffffffffffffffffffffffffffffffffffffff1673ffffffffffffffffffffffffffffffffffffffff163373ffffffffffffffffffffffffffffffffffffffff161415156136f557600080fd5b600073ffffffffffffffffffffffffffffffffffffffff168173ffffffffffffffffffffffffffffffffffffffff161415151561373157600080fd5b8073ffffffffffffffffffffffffffffffffffffffff16600b60009054906101000a900473ffffffffffffffffffffffffffffffffffffffff1673ffffffffffffffffffffffffffffffffffffffff167f8be0079c531659141344cd1fd0a4f28419497f9722a3daafe3b4186f6b6457e060405160405180910390a380600b60006101000a81548173ffffffffffffffffffffffffffffffffffffffff021916908373ffffffffffffffffffffffffffffffffffffffff16021790555050565b600b60009054906101000a900473ffffffffffffffffffffffffffffffffffffffff1673ffffffffffffffffffffffffffffffffffffffff163373ffffffffffffffffffffffffffffffffffffffff1614151561384d57600080fd5b8073ffffffffffffffffffffffffffffffffffffffff16ff5b61386e614568565b60108054600181600116156101000203166002900480601f0160208091040260200160405190810160405280929190818152602001828054600181600116156101000203166002900480156139045780601f106138d957610100808354040283529160200191613904565b820191906000526020600020905b8154815290600101906020018083116138e757829003601f168201915b5050505050905090565b61391882826141e8565b60088054905060096000838152602001908152602001600020819055506008805480600101828161394991906147fa565b9160005260206000209001600083909190915055505050565b60008061396e836126e9565b90508073ffffffffffffffffffffffffffffffffffffffff168473ffffffffffffffffffffffffffffffffffffffff1614806139dd57508373ffffffffffffffffffffffffffffffffffffffff166139c584611560565b73ffffffffffffffffffffffffffffffffffffffff16145b806139ee57506139ed8185613605565b5b91505092915050565b8173ffffffffffffffffffffffffffffffffffffffff16613a17826126e9565b73ffffffffffffffffffffffffffffffffffffffff16141515613a3957600080fd5b600073ffffffffffffffffffffffffffffffffffffffff166001600083815260200190815260200160002060009054906101000a900473ffffffffffffffffffffffffffffffffffffffff1673ffffffffffffffffffffffffffffffffffffffff16141515613b5c5760006001600083815260200190815260200160002060006101000a81548173ffffffffffffffffffffffffffffffffffffffff021916908373ffffffffffffffffffffffffffffffffffffffff160217905550600073ffffffffffffffffffffffffffffffffffffffff168273ffffffffffffffffffffffffffffffffffffffff167f8c5be1e5ebec7d5bd14f71427d1e84f3dd0314c0f7b2291e5b200ac8c7c3b925836040518082815260200191505060405180910390a35b5050565b6000806000613b6f8585614298565b60076000858152602001908152602001600020549250613bdb6001600660008873ffffffffffffffffffffffffffffffffffffffff1673ffffffffffffffffffffffffffffffffffffffff168152602001908152602001600020805490506143c690919063ffffffff16565b9150600660008673ffffffffffffffffffffffffffffffffffffffff1673ffffffffffffffffffffffffffffffffffffffff16815260200190815260200160002082815481101515613c2957fe5b906000526020600020900154905080600660008773ffffffffffffffffffffffffffffffffffffffff1673ffffffffffffffffffffffffffffffffffffffff16815260200190815260200160002084815481101515613c8457fe5b9060005260206000209001819055506000600660008773ffffffffffffffffffffffffffffffffffffffff1673ffffffffffffffffffffffffffffffffffffffff16815260200190815260200160002083815481101515613ce157fe5b906000526020600020900181905550600660008673ffffffffffffffffffffffffffffffffffffffff1673ffffffffffffffffffffffffffffffffffffffff168152602001908152602001600020805480919060019003613d429190614826565b50600060076000868152602001908152602001600020819055508260076000838152602001908152602001600020819055505050505050565b6000613d8783836143df565b600660008473ffffffffffffffffffffffffffffffffffffffff1673ffffffffffffffffffffffffffffffffffffffff168152602001908152602001600020805490509050600660008473ffffffffffffffffffffffffffffffffffffffff1673ffffffffffffffffffffffffffffffffffffffff1681526020019081526020016000208054806001018281613e1d91906147fa565b916000526020600020900160008490919091505550806007600084815260200190815260200160002081905550505050565b60008573ffffffffffffffffffffffffffffffffffffffff16600186868686604051600081526020016040526000604051602001526040518085600019166000191681526020018460ff1660ff16815260200183600019166000191681526020018260001916600019168152602001945050505050602060405160208103908084039060008661646e5a03f11515613ee657600080fd5b50506020604051035173ffffffffffffffffffffffffffffffffffffffff1614905095945050505050565b601560009054906101000a900473ffffffffffffffffffffffffffffffffffffffff1673ffffffffffffffffffffffffffffffffffffffff166108fc601883815481101515613f5c57fe5b9060005260206000209060060201600001600301549081150290604051600060405180830381858888f193505050501515613f9657600080fd5b6005601882815481101515613fa757fe5b906000526020600020906006020160040160006101000a81548160ff02191690836005811115613fd357fe5b02179055507f0ffc50e9307fb2a4c6b030ccd0129cfae0b9cca37264f558d91c49a16f5ff03b816040518082815260200191505060405180910390a150565b6000806140348573ffffffffffffffffffffffffffffffffffffffff16614537565b151561404357600191506141df565b8473ffffffffffffffffffffffffffffffffffffffff1663f0b9e5ba8786866000604051602001526040518463ffffffff167c0100000000000000000000000000000000000000000000000000000000028152600401808473ffffffffffffffffffffffffffffffffffffffff1673ffffffffffffffffffffffffffffffffffffffff16815260200183815260200180602001828103825283818151815260200191508051906020019080838360005b8381101561410e5780820151818401526020810190506140f3565b50505050905090810190601f16801561413b5780820380516001836020036101000a031916815260200191505b50945050505050602060405180830381600087803b151561415b57600080fd5b6102c65a03f1151561416c57600080fd5b50505060405180519050905063f0b9e5ba7c0100000000000000000000000000000000000000000000000000000000027bffffffffffffffffffffffffffffffffffffffffffffffffffffffff1916817bffffffffffffffffffffffffffffffffffffffffffffffffffffffff19161491505b50949350505050565b600073ffffffffffffffffffffffffffffffffffffffff168273ffffffffffffffffffffffffffffffffffffffff161415151561422457600080fd5b61422e8282613d7b565b8173ffffffffffffffffffffffffffffffffffffffff16600073ffffffffffffffffffffffffffffffffffffffff167fddf252ad1be2c89b69c2b068fc378daa952ba7f163c4a11628f55a4df523b3ef836040518082815260200191505060405180910390a35050565b8173ffffffffffffffffffffffffffffffffffffffff166142b8826126e9565b73ffffffffffffffffffffffffffffffffffffffff161415156142da57600080fd5b61432d6001600260008573ffffffffffffffffffffffffffffffffffffffff1673ffffffffffffffffffffffffffffffffffffffff168152602001908152602001600020546143c690919063ffffffff16565b600260008473ffffffffffffffffffffffffffffffffffffffff1673ffffffffffffffffffffffffffffffffffffffff16815260200190815260200160002081905550600080600083815260200190815260200160002060006101000a81548173ffffffffffffffffffffffffffffffffffffffff021916908373ffffffffffffffffffffffffffffffffffffffff1602179055505050565b60008282111515156143d457fe5b818303905092915050565b600073ffffffffffffffffffffffffffffffffffffffff1660008083815260200190815260200160002060009054906101000a900473ffffffffffffffffffffffffffffffffffffffff1673ffffffffffffffffffffffffffffffffffffffff1614151561444c57600080fd5b8160008083815260200190815260200160002060006101000a81548173ffffffffffffffffffffffffffffffffffffffff021916908373ffffffffffffffffffffffffffffffffffffffff1602179055506144f06001600260008573ffffffffffffffffffffffffffffffffffffffff1673ffffffffffffffffffffffffffffffffffffffff1681526020019081526020016000205461454a90919063ffffffff16565b600260008473ffffffffffffffffffffffffffffffffffffffff1673ffffffffffffffffffffffffffffffffffffffff168152602001908152602001600020819055505050565b600080823b905060008111915050919050565b600080828401905083811015151561455e57fe5b8091505092915050565b602060405190810160405280600081525090565b60c060405190810160405280614590614852565b8152602001600060058111156145a257fe5b8152602001600081525090565b8154818355818115116145dc576006028160060283600052602060002091820191016145db919061488d565b5b505050565b828054600181600116156101000203166002900490600052602060002090601f016020900481019282601f1061462257805160ff1916838001178555614650565b82800160010185558215614650579182015b8281111561464f578251825591602001919060010190614634565b5b50905061465d9190614907565b5090565b60806040519081016040528061467561492c565b815260200161468261492c565b815260200161468f61492c565b8152602001600081525090565b8154818355818115116146c9576004028160040283600052602060002091820191016146c89190614940565b5b505050565b828054600181600116156101000203166002900490600052602060002090601f016020900481019282601f1061470f57803560ff191683800117855561473d565b8280016001018555821561473d579182015b8281111561473c578235825591602001919060010190614721565b5b50905061474a9190614907565b5090565b828054600181600116156101000203166002900490600052602060002090601f016020900481019282601f1061478f57805160ff19168380011785556147bd565b828001600101855582156147bd579182015b828111156147bc5782518255916020019190600101906147a1565b5b5090506147ca9190614907565b5090565b8154818355818115116147f5578183600052602060002091820191016147f49190614997565b5b505050565b815481835581811511614821578183600052602060002091820191016148209190614907565b5b505050565b81548183558181151161484d5781836000526020600020918201910161484c9190614907565b5b505050565b60806040519081016040528061486661492c565b815260200161487361492c565b815260200161488061492c565b8152602001600081525090565b61490491905b80821115614900576000808201600080820160006148b191906149c3565b6001820160006148c191906149c3565b6002820160006148d191906149c3565b600382016000905550506004820160006101000a81549060ff0219169055600582016000905550600601614893565b5090565b90565b61492991905b8082111561492557600081600090555060010161490d565b5090565b90565b602060405190810160405280600081525090565b61499491905b80821115614990576000808201600061495f91906149c3565b60018201600061496f91906149c3565b60028201600061497f91906149c3565b600382016000905550600401614946565b5090565b90565b6149c091905b808211156149bc57600081816149b391906149c3565b5060010161499d565b5090565b90565b50805460018160011615610100020316600290046000825580601f106149e95750614a08565b601f016020900490600052602060002090810190614a079190614907565b5b505600a165627a7a7230582002226dbe1ef40ec433220c6b92c72e6a23d0d152fe591b1add8eeebc5c8cb6290029",
  "source": "pragma solidity ^0.4.19;\n\nimport \"zeppelin-solidity/contracts/lifecycle/Destructible.sol\";\nimport \"zeppelin-solidity/contracts/token/ERC721/ERC721Token.sol\";\nimport \"zeppelin-solidity/contracts/math/SafeMath.sol\";\nimport \"zeppelin-solidity/contracts/AddressUtils.sol\";\nimport \"zeppelin-solidity/contracts/lifecycle/Pausable.sol\";\nimport \"./IPFSeable.sol\";\n\ncontract NIL2 is ERC721Token, IPFSeable, Pausable, Destructible {\n\n    using SafeMath for uint256;\n    using AddressUtils for address;\n\n    string internal contractName_;\n    string internal contractCID_;\n    mapping (string => string) parameters_;\n    string[] parametersKeys_;\n    address internal byuer_;\n    address internal supplier_;\n\n    enum goodState {Ordered, Manufacturing, Manufactured, Delivery, Delivered, Payed}\n\n    event GoodAdded(string name, string CID, uint price);\n    event ParameterAdded(string param, string value);\n    event ByuerMadeOrder(uint goodID, uint timestamp);\n    event SupplierUpdatedOrderState(uint orderID, uint orderState);\n    event ByuerConfirmedDelivery(uint orderID);\n    event ByuerTransferPayment(uint orderID);\n\n    modifier onlySupplier() {\n        require(msg.sender == supplier_);\n        _;\n    }\n\n    modifier onlyByuer() {\n        require(msg.sender == byuer_);\n        _;\n    }\n\n    modifier contractDataFilled() {\n        require(parametersKeys_.length == 10);\n        _;\n    }\n\n    struct GoodInfo {\n        string name;\n        string description;\n        string CID;\n        uint price;\n    }\n\n    struct Order {\n        GoodInfo good;\n        goodState state;\n        uint orderTimestamp;\n    }\n\n    mapping (uint => bytes32) ordersMessages;\n\n    GoodInfo[] internal supplierGoods;\n    Order[] internal orders;\n\n    function NIL2(\n        string _contractName,\n        string _supplierSymbol,\n        string _contractCID,\n        address _byuer,\n        address _supplier\n    )\n        ERC721Token(_contractName, _supplierSymbol)\n        public\n        payable\n    {\n        contractName_ = _contractName;\n        contractCID_ = _contractCID;\n        byuer_ = _byuer;\n        supplier_ = _supplier;\n    }\n\n    function getContractName()\n        public\n        view\n        returns (string name)\n    {\n        return contractName_;\n    }\n\n    function getContractCID()\n        public\n        view\n        returns (string CID)\n    {\n        return contractCID_;\n    }\n\n    function getByuer()\n        public\n        view\n        returns (address byuer)\n    {\n        return byuer_;\n    }\n\n    function getSupplier()\n        public\n        view\n        returns (address supplier)\n    {\n        return supplier_;\n    }\n\n    function getParameter(string _param)\n        public\n        view\n        returns (string value)\n    {\n        return parameters_[_param];\n    }\n\n    function getParametersAmount()\n        public\n        view\n        returns (uint amount)\n    {\n        return parametersKeys_.length;\n    }\n\n    function addContractParameter(string param_, string value_)\n        public\n        onlyOwner\n    {\n        parameters_[param_] = value_;\n        parametersKeys_.push(param_);\n\n        ParameterAdded(param_, value_);\n    }\n\n    function addGood(string name_, string description_, string CID_, uint price_)\n        public\n        onlySupplier\n    {\n        GoodInfo memory good = (GoodInfo(\n        {\n            name: name_,\n            description: description_,\n            CID: CID_,\n            price: price_\n        }));\n        supplierGoods.push(good);\n\n        GoodAdded(name_, CID_, price_);\n    }\n\n    function getGoodInfo(uint _goodID)\n        public\n        view\n        returns(string, string, string, uint)\n    {\n        return (\n            supplierGoods[_goodID].name,\n            supplierGoods[_goodID].description,\n            supplierGoods[_goodID].CID,\n            supplierGoods[_goodID].price\n        );\n    }\n\n    function makeOrder(uint _goodID)\n        public\n        payable\n        onlyByuer\n        contractDataFilled\n        returns (uint ID)\n    {\n        require(msg.value == supplierGoods[_goodID].price);\n\n        Order memory order = (Order(\n        {\n            good: supplierGoods[_goodID],\n            state: goodState.Ordered,\n            orderTimestamp: block.timestamp\n        }));\n\n        uint orderID = orders.push(order) - 1;\n        _mint(supplier_, orderID);\n\n        ByuerMadeOrder(_goodID, block.timestamp);\n\n        return orderID;\n    }\n\n    function getOrder(uint _orderID)\n        public\n        view\n        returns (string, string, uint, uint, goodState)\n    {\n        return(\n            orders[_orderID].good.name,\n            orders[_orderID].good.CID,\n            orders[_orderID].good.price,\n            orders[_orderID].orderTimestamp,\n            orders[_orderID].state\n        );\n    }\n\n    function supplierUpdateManufacturingState(uint _orderID, uint _orderState)\n        public\n        contractDataFilled\n        onlySupplier\n    {\n        require(uint(goodState.Manufactured) >= _orderState && _orderState >= uint(goodState.Manufacturing));\n        orders[_orderID].state = goodState(_orderState);\n\n        SupplierUpdatedOrderState(_orderID, _orderState);\n    }\n\n    function supplierStartDelivery(uint _orderID, bytes32 _message)\n        public\n        contractDataFilled\n        onlySupplier\n    {\n        orders[_orderID].state = goodState.Delivery;\n        ordersMessages[_orderID] = _message;\n    }\n\n    function byuerConfirmedDelivery(uint _orderID, bytes32 _hash, uint8 _v, bytes32 _r, bytes32 _s)\n        public\n        contractDataFilled\n        onlyByuer\n    {\n        require(ordersMessages[_orderID] == _hash);\n        require(verifyByuerSignature(byuer_, _hash, _v, _r, _s));\n\n        orders[_orderID].state = goodState.Delivered;\n\n        super.removeTokenFrom(supplier_, _orderID);\n        super.addTokenTo(byuer_, _orderID);\n\n        transferPaymentToSupplier(_orderID);\n\n        ByuerConfirmedDelivery(_orderID);\n    }\n\n    function verifyByuerSignature(address p, bytes32 hash, uint8 v, bytes32 r, bytes32 s)\n        private\n        constant\n        returns(bool)\n    {\n        return ecrecover(hash, v, r, s) == p;\n    }\n\n    function transferPaymentToSupplier(uint _orderID)\n        private\n    {\n        supplier_.transfer(orders[_orderID].good.price);\n        orders[_orderID].state = goodState.Payed;\n        ByuerTransferPayment(_orderID);\n    }\n}\n",
  "sourcePath": "/Users/litvintech/Projects/NIL-2/contracts/NIL2.sol",
  "compiler": {
    "name": "solc",
    "version": "0.4.19+commit.c4cbbb05.Emscripten.clang"
  },
  "schemaVersion": "1.0.1",
  "updatedAt": "2018-04-21T13:13:56.878Z"
}